{
  "_format": "hh-sol-artifact-1",
  "contractName": "TheDadlessLibrary",
  "sourceName": "contracts/TheDadlessLibrary.sol",
  "abi": [
    {
      "anonymous": false,
      "inputs": [
        {
          "indexed": true,
          "internalType": "address",
          "name": "previousOwner",
          "type": "address"
        },
        {
          "indexed": true,
          "internalType": "address",
          "name": "newOwner",
          "type": "address"
        }
      ],
      "name": "OwnershipTransferred",
      "type": "event"
    },
    {
      "inputs": [
        {
          "internalType": "uint256",
          "name": "",
          "type": "uint256"
        }
      ],
      "name": "Ledger",
      "outputs": [
        {
          "internalType": "string",
          "name": "name",
          "type": "string"
        },
        {
          "internalType": "string",
          "name": "author",
          "type": "string"
        },
        {
          "internalType": "uint256",
          "name": "totalCopies",
          "type": "uint256"
        },
        {
          "internalType": "uint256",
          "name": "copiesOut",
          "type": "uint256"
        }
      ],
      "stateMutability": "view",
      "type": "function"
    },
    {
      "inputs": [
        {
          "internalType": "uint256",
          "name": "_deweyDecimalId",
          "type": "uint256"
        },
        {
          "internalType": "uint256",
          "name": "_newCopies",
          "type": "uint256"
        }
      ],
      "name": "addCopies",
      "outputs": [],
      "stateMutability": "nonpayable",
      "type": "function"
    },
    {
      "inputs": [
        {
          "internalType": "string",
          "name": "_name",
          "type": "string"
        },
        {
          "internalType": "string",
          "name": "_author",
          "type": "string"
        },
        {
          "internalType": "uint256",
          "name": "_totalCopies",
          "type": "uint256"
        }
      ],
      "name": "addNewBook",
      "outputs": [],
      "stateMutability": "nonpayable",
      "type": "function"
    },
    {
      "inputs": [],
      "name": "booksAvaliable",
      "outputs": [
        {
          "internalType": "uint256[]",
          "name": "",
          "type": "uint256[]"
        }
      ],
      "stateMutability": "view",
      "type": "function"
    },
    {
      "inputs": [
        {
          "internalType": "uint256",
          "name": "_deweyDeciamalId",
          "type": "uint256"
        }
      ],
      "name": "borrowBook",
      "outputs": [],
      "stateMutability": "nonpayable",
      "type": "function"
    },
    {
      "inputs": [],
      "name": "deweyDecimalId",
      "outputs": [
        {
          "internalType": "uint256",
          "name": "",
          "type": "uint256"
        }
      ],
      "stateMutability": "view",
      "type": "function"
    },
    {
      "inputs": [],
      "name": "libraryTotalHistory",
      "outputs": [
        {
          "internalType": "address[]",
          "name": "",
          "type": "address[]"
        }
      ],
      "stateMutability": "view",
      "type": "function"
    },
    {
      "inputs": [],
      "name": "owner",
      "outputs": [
        {
          "internalType": "address",
          "name": "",
          "type": "address"
        }
      ],
      "stateMutability": "view",
      "type": "function"
    },
    {
      "inputs": [],
      "name": "renounceOwnership",
      "outputs": [],
      "stateMutability": "nonpayable",
      "type": "function"
    },
    {
      "inputs": [
        {
          "internalType": "uint256",
          "name": "_deweyDeciamalId",
          "type": "uint256"
        }
      ],
      "name": "returnBook",
      "outputs": [],
      "stateMutability": "nonpayable",
      "type": "function"
    },
    {
      "inputs": [
        {
          "internalType": "address",
          "name": "newOwner",
          "type": "address"
        }
      ],
      "name": "transferOwnership",
      "outputs": [],
      "stateMutability": "nonpayable",
      "type": "function"
    },
    {
      "inputs": [
        {
          "internalType": "uint256",
          "name": "_deweyDecimalId",
          "type": "uint256"
        }
      ],
      "name": "whoHasTheBookIWant",
      "outputs": [
        {
          "internalType": "address[]",
          "name": "",
          "type": "address[]"
        }
      ],
      "stateMutability": "view",
      "type": "function"
    }
  ],
  "bytecode": "0x60806040523480156200001157600080fd5b5062000032620000266200003860201b60201c565b6200004060201b60201c565b62000104565b600033905090565b60008060009054906101000a900473ffffffffffffffffffffffffffffffffffffffff169050816000806101000a81548173ffffffffffffffffffffffffffffffffffffffff021916908373ffffffffffffffffffffffffffffffffffffffff1602179055508173ffffffffffffffffffffffffffffffffffffffff168173ffffffffffffffffffffffffffffffffffffffff167f8be0079c531659141344cd1fd0a4f28419497f9722a3daafe3b4186f6b6457e060405160405180910390a35050565b6132c880620001146000396000f3fe608060405234801561001057600080fd5b50600436106100b45760003560e01c80638da5cb5b116100715780638da5cb5b14610169578063bc4d114114610187578063c0d01989146101a3578063ca5140c9146101bf578063f2fde38b146101db578063fb011944146101f7576100b4565b806318dfba68146100b9578063715018a6146100d75780637705eff3146100e157806377d970ba146101115780637e490a9e1461012f578063821764361461014b575b600080fd5b6100c161022a565b6040516100ce9190612b93565b60405180910390f35b6100df6108bb565b005b6100fb60048036038101906100f691906127ea565b610943565b6040516101089190612b71565b60405180910390f35b610119610c3e565b6040516101269190612d48565b60405180910390f35b610149600480360381019061014491906127ea565b610c44565b005b610153611236565b6040516101609190612b71565b60405180910390f35b610171611348565b60405161017e9190612b56565b60405180910390f35b6101a1600480360381019061019c919061276b565b611371565b005b6101bd60048036038101906101b89190612813565b611b20565b005b6101d960048036038101906101d491906127ea565b611f70565b005b6101f560048036038101906101f09190612742565b612306565b005b610211600480360381019061020c91906127ea565b6123fe565b6040516102219493929190612bb5565b60405180910390f35b60606102587f79672d9ad88ed4cad14bc1315915fd44ab3703b6e4a7ad20df91dc010fa0740260001b61253e565b6102847fd6dceaefec64084e55af4067219625e37840b96712a461fc18d0fcb1b793127960001b61253e565b6102b07fa9c83dc31e97f4b719d49a7994d318ea4c43ceafe3429faf3dc910a3053a025660001b61253e565b60006102de7fb8970e5c8b257cfa2e5ccbb1cf4fdec50062e699fc97dfea6a9ccb4b6e1305cd60001b61253e565b61030a7fe7ea29860c52f8cf2cdf4d71cf37cf562b95813ef11b4950823523025226289060001b61253e565b6000600190505b60015481116104a3576103467fb132c1eeebff6df5461f2395a5700b08bc463181709b04eacaf5a1901ac08e3560001b61253e565b6103727f9c4174b9e4760aa3d4b0f31736360e5d7ff3b02b1ebb23bdfadc1076d1767f7560001b61253e565b600a60003373ffffffffffffffffffffffffffffffffffffffff1673ffffffffffffffffffffffffffffffffffffffff168152602001908152602001600020600082815260200190815260200160002060009054906101000a900460ff161580156103f3575060006009600083815260200190815260200160002060020154115b15610463576104247fb376d7bde2509afb40cd747d64fda2f616603744f5434916a7564e0b8d4b214c60001b61253e565b6104507f9194eaeccc2333b73543c95db19f95f213fed7b5f1ca8a37fa96711035a9eaa060001b61253e565b818061045b90612fbd565b925050610490565b61048f7ffea3c8eceb3b4310eddf8c4efa91a21b71c42781a6cf79d2480d77c85d53f92860001b61253e565b5b808061049b90612fbd565b915050610311565b506104d07f25d71a58e12051e1e9f58e7f301eb4e144c129dbc31e0fe28a9957a271231a0660001b61253e565b6104fc7fc1488a6931363dd352e3c84db9bbdbeb6d2c8cb5f507a12086a6e947a4fbbda260001b61253e565b60008167ffffffffffffffff81111561053e577f4e487b7100000000000000000000000000000000000000000000000000000000600052604160045260246000fd5b60405190808252806020026020018201604052801561056c5781602001602082028036833780820191505090505b50905061059b7fb3d28633361114bc18611e09c666e73d64f63c461c14cfba0f923228d2afbb3b60001b61253e565b6105c77f68e611be37dd616a9a1c93a8a278736e26eff1d206bf51af08568f91e809206d60001b61253e565b600091506105f77f05ba6abe23a11ccf7e97b996506d437cd7a8bf9afe2b07988d9c37c246449e5d60001b61253e565b6106237f2cdc0ecd452c270aeb474760eabe3d2b09c87d46279751f122a85e305d12259c60001b61253e565b6000600190505b600154811161085a5761065f7f6e963e3bcde0a2b494c96a0c61c533cdd7ed7ba08a49bdf41e44cb79f99339d560001b61253e565b61068b7fbd5c861c8bb74833c7731f1013b14b8ad89ce86899129280b7b921894bcd456d60001b61253e565b600a60003373ffffffffffffffffffffffffffffffffffffffff1673ffffffffffffffffffffffffffffffffffffffff168152602001908152602001600020600082815260200190815260200160002060009054906101000a900460ff1615801561070c575060006009600083815260200190815260200160002060020154115b1561081a5761073d7fb65fc9de6e7f77d98f029074801f1960ba01bf92021b08699d5af2420a49aace60001b61253e565b6107697f25d72b403e9cd582c78e7555a74b0cfff07bc0e03722064fe5be9ea58d621dee60001b61253e565b6107957fc684f5b70d9e7d6a7c136092de2dbb99044e6372c807c91a7f1e41d8af507d6860001b61253e565b808284815181106107cf577f4e487b7100000000000000000000000000000000000000000000000000000000600052603260045260246000fd5b6020026020010181815250506108077fde8321da7d36d5aa3141919d1272cf91c339a8879a908e0eeab5c741eb59634d60001b61253e565b828061081290612fbd565b935050610847565b6108467f6101549220550580bb866c87875bc33438daab4b2d4d48f8b9656e3781536b7160001b61253e565b5b808061085290612fbd565b91505061062a565b506108877fa77d6b48e14799f44586c6722c46a3a052dfdb99bf046df5d58156d3efadb7a660001b61253e565b6108b37f60b67c7cf2d66b8957cd0a649722cbc310f6b9139e239f63c622b01ecf8a299d60001b61253e565b809250505090565b6108c3612541565b73ffffffffffffffffffffffffffffffffffffffff166108e1611348565b73ffffffffffffffffffffffffffffffffffffffff1614610937576040517f08c379a000000000000000000000000000000000000000000000000000000000815260040161092e90612cc8565b60405180910390fd5b6109416000612549565b565b60606109717f99b025b81d691943bc13c75c1713f426a6782093b9d2c87eed408086d027e08960001b61253e565b61099d7fed92c1907b1c116b5097593af1f80c316e4356ff0f846a0a793d7c85e2d2c5fa60001b61253e565b6109c97f2b836458945c76b34bff0eaa304ef3bf7f84a65b6e5065368575e48752256a2b60001b61253e565b6000600960008481526020019081526020016000206003015467ffffffffffffffff811115610a21577f4e487b7100000000000000000000000000000000000000000000000000000000600052604160045260246000fd5b604051908082528060200260200182016040528015610a4f5781602001602082028036833780820191505090505b509050610a7e7fffc0dd48d93d34849651d4402dc07bff589128c7ac47dbffc6def203c3977bce60001b61253e565b610aaa7ff6e04b316ba84ccb2f7c22dd2dfc46d40e20039168ea83d18dcbb5edab5c8aaa60001b61253e565b60005b8151811015610bdc57610ae27f83d0cd9b18d5ec944cfc6d5a30c451d219f4e7f283ba275b7d53754777cc3a5460001b61253e565b610b0e7f76c1ef9155d1a3ec8ed4567868d0b31e65b8228d3eba03ac441082c6ef2c4d5660001b61253e565b60096000858152602001908152602001600020600401600082815260200190815260200160002060009054906101000a900473ffffffffffffffffffffffffffffffffffffffff16828281518110610b8f577f4e487b7100000000000000000000000000000000000000000000000000000000600052603260045260246000fd5b602002602001019073ffffffffffffffffffffffffffffffffffffffff16908173ffffffffffffffffffffffffffffffffffffffff16815250508080610bd490612fbd565b915050610aad565b50610c097f20a8af2d3c7ca2ee418bd0a6d2ecb0ed64b7ba9597f970cc9d966ddfcff8a8f660001b61253e565b610c357f3e04b28cf25bc993bce56b742b6678a18878c2a3c364e63ac4da82c9d1ede98660001b61253e565b80915050919050565b60015481565b610c707f86113075a4411180e5987997bfdfcbe67156cc57883295ac87ea6b1df898041460001b61253e565b610c9c7fcac7b43111ee3d7774d77ef93ef84ba6a3794d295205d8dc389c405f99974d2260001b61253e565b610cc87f698198a7faefa9850455cf22a5fccb558b9a96179f843f7f89eef89f5496573b60001b61253e565b610cf47f72b000e90585c7297d8313db0613037957428bf5a26ca0c21065ac25b2ef342e60001b61253e565b600a60003373ffffffffffffffffffffffffffffffffffffffff1673ffffffffffffffffffffffffffffffffffffffff168152602001908152602001600020600082815260200190815260200160002060009054906101000a900460ff1615610d92576040517f08c379a0000000000000000000000000000000000000000000000000000000008152600401610d8990612c48565b60405180910390fd5b610dbe7f86dac48bcc4da980d1ccfb717eb349fdf739f3062f9beebfb24c9e7367f31d3960001b61253e565b610dea7fa1461944443462d3011af774a5050dc720766e92d349b22cf3c0130bfb61c48060001b61253e565b610e167ff6b496667460a4666398da0196531dcb9aac809cf3f342413b272d3dbc51dd0b60001b61253e565b6000600960008381526020019081526020016000209050610e597ff934807ee18211dcfc61f6cc3dc347a16736baca25d23b723adefb2bf097c7e160001b61253e565b610e857f43c1ae19988992c9a1158b8b7cdb20074d6d6e0359f761daed7786df17ee407c60001b61253e565b610eb17f4a28b064a7f8c1430f6847fe788212d481e770f21c6ca842faf975031227216860001b61253e565b6000816002015411610ef8576040517f08c379a0000000000000000000000000000000000000000000000000000000008152600401610eef90612c68565b60405180910390fd5b610f247f0cdf506f7e0cdbdab350013f6cd4c7a390940a34beb3a0c2d8875ad5b6c69f4060001b61253e565b610f507f92b15852115d1e544d9993739bfe019c7ce1940d6654452e95d513fb3382d56e60001b61253e565b610f7c7ffd939dcc4caab5826b83481323ab11603f614821127e9f0902650ae30fa559df60001b61253e565b60018160020154610f8d9190612ea8565b8160020181905550610fc17f03145a05e5e1ff7c55f4578d2f99d7aba368ca2ff9000e35916ab60c387f01bd60001b61253e565b610fed7f508e579aefbfeb9907c74f849c70a59ff3329011d4afe28e1cadb164e8e8ec7360001b61253e565b6001600a60003373ffffffffffffffffffffffffffffffffffffffff1673ffffffffffffffffffffffffffffffffffffffff168152602001908152602001600020600084815260200190815260200160002060006101000a81548160ff0219169083151502179055506110827f678b511af491cc94784b85bff0f0f7cb599c5a33f41dc885a33cfbaf74678ed460001b61253e565b6110ae7fadaae61bbb3fb8f2c43d565763b59a1578583ad1ebbc2f0873bf46d4d88e32c460001b61253e565b338160040160008360030154815260200190815260200160002060006101000a81548173ffffffffffffffffffffffffffffffffffffffff021916908373ffffffffffffffffffffffffffffffffffffffff1602179055506111327f3a29d0f3b892d5c38e74279af050cfe3bb2e5f0b02d432200d2f889cedf9833260001b61253e565b61115e7f12524d398e1c91bddd862b0bbc8048d09ecf1d0255dc095493698966a3b6915060001b61253e565b6001816003015461116f9190612e52565b81600301819055506111a37fc74f310e2f39e3c96c6cda951dad8500af5da1ea16d0ff088c2d0bf2f381a23260001b61253e565b6111cf7f9044dc90270241035736152d916224cd1ba1aa81cbf711e3128764beef06fee460001b61253e565b6002339080600181540180825580915050600190039060005260206000200160009091909190916101000a81548173ffffffffffffffffffffffffffffffffffffffff021916908373ffffffffffffffffffffffffffffffffffffffff1602179055505050565b60606112647f8598a9ffad5f41c926c503bab3acc6ec435d7d0a769c89806b4d4fa3c531563960001b61253e565b6112907f74954d43cfdb4e2fa2d0999176f1efaf781d25421df801f79a0f574b55088a1a60001b61253e565b6112bc7f839088359de9590174510e1b16c8a80b7768b6b71cd6301c17abae3226e7361b60001b61253e565b600280548060200260200160405190810160405280929190818152602001828054801561133e57602002820191906000526020600020905b8160009054906101000a900473ffffffffffffffffffffffffffffffffffffffff1673ffffffffffffffffffffffffffffffffffffffff16815260200190600101908083116112f4575b5050505050905090565b60008060009054906101000a900473ffffffffffffffffffffffffffffffffffffffff16905090565b611379612541565b73ffffffffffffffffffffffffffffffffffffffff16611397611348565b73ffffffffffffffffffffffffffffffffffffffff16146113ed576040517f08c379a00000000000000000000000000000000000000000000000000000000081526004016113e490612cc8565b60405180910390fd5b8261141a7f5e001aa137d129253f07c7995d805cb7432cdabd608d195ff5e507190547648260001b61253e565b6114467f9c3b06f28abe75371d42316c62733c804293cc15288d62a4efe1c35b17fa9f3660001b61253e565b6114727fb937fc12bc4b15158857c4acee69a096a2891450c57418782b3aca806d28037860001b61253e565b61149e7f942ef66c34e5936e6884860a2082acb2bb762dbc64f1fc8599b3803e4a4b74e360001b61253e565b6008816040516114ae9190612b3f565b908152602001604051809103902060009054906101000a900460ff161561150a576040517f08c379a000000000000000000000000000000000000000000000000000000000815260040161150190612ca8565b60405180910390fd5b6115367f90ce4ec3873f3791983047d4e96c09c2adc987a6ddc67de31071b3deffc46f4d60001b61253e565b6115627f6964b07e93c7da810d229b2bfcabb37a1f4caf9ac171aac6380ffae0025d748a60001b61253e565b61158e7fe63ede23b400ebda3d6b8834f48615cfc60f1576a83a74a986c0af43cd929f2a60001b61253e565b6115ba7fb986d02fdb1720d9490be7f27ed5da94a184a3be4060dca9143922463a67bec160001b61253e565b6115e67f6670e0060c34ece0b0d1dee3284a59b87c31b3fbff9b8bfc6e718b521d23682c60001b61253e565b6116127f386cc9d00d6dd19f9946dac4f6b27b69d3c1439b065d081fb80065e9df504ac260001b61253e565b600084511415611657576040517f08c379a000000000000000000000000000000000000000000000000000000000815260040161164e90612d08565b60405180910390fd5b6116837fa5e8bb7a0ef16fdb49801f752d1a916aefd65e4e492d5a8c2a23b02b599904e060001b61253e565b6116af7f8d04b68e23fc89d710a120230c29497c2d9495b819a335d34f1ec8bdd53202f760001b61253e565b6116db7feb6af04f0ea3ddb894d7732a59274985811fe286c79eb218acd199a367e98a3e60001b61253e565b6117077fd7381a09af790aeade84944b57daedc9cf11bdabf17c1e39c3e09360398d421560001b61253e565b60008351141561174c576040517f08c379a000000000000000000000000000000000000000000000000000000000815260040161174390612d08565b60405180910390fd5b6117777edf3feaab7f621a00a0cdd02b4cac195753d262287678d2d68ddc507da2e13260001b61253e565b6117a37f1188c90f539c3001fe167879bcd037418901b4ce6658f3f423412229f38997f760001b61253e565b6117cf7f6a0eac7bd3d5251c6a56d0b08b1bbc2e8ebcb829e9fc3fc9fdf3b5fc9858bb3d60001b61253e565b6117fb7f590d759cf2800fdb9b13d3c0bf6a72ed20d458273649a69d79a6ee54ea71f29660001b61253e565b6000821161183e576040517f08c379a000000000000000000000000000000000000000000000000000000000815260040161183590612c88565b60405180910390fd5b61186a7f506671c501770317868dde58104503a45f064d470cff5ff863165f1168b4c12560001b61253e565b6118967f3acebb45d5a43d2d2900bbc04f81edab4416cfb0b27248055b61fe59f470410360001b61253e565b6118c27f743be29fe92001dd1e8daab32c8b0bf1306df9aaed2dda6ee744010da3090be060001b61253e565b600180546118d09190612e52565b6001819055506119027f3c1bc26dafbe73555fc1a7a7b9b52ca0b2d4c10d86217a2c9f5c81ce24ff725960001b61253e565b61192e7f634286c510357e5ef1348d620abb188a5b3046faa242830a2baed0cfd00aaaf560001b61253e565b60016008856040516119409190612b3f565b908152602001604051809103902060006101000a81548160ff0219169083151502179055506119917f86ddd065d6deae3b31f1806221341dbc6311025956af5eb7692120ee48b4f28a60001b61253e565b6119bd7fdd759932c551106e862a014de0f90ca8257685c1808d9d54d7ff13d539b3aedb60001b61253e565b60006009600060015481526020019081526020016000209050611a027fad48fb6840afc131779d74a595eb847b9469694a7eeda4aab048b214530fea0b60001b61253e565b611a2e7fdfabf6cc2707f19e6d2905c0f45719f39638494c8ff5bf369f12b41bae02b0f860001b61253e565b84816000019080519060200190611a4692919061260d565b50611a737f3b0be60e01be3591e31518582b456889b550e896b752f0193c91fb8f9ac9e72060001b61253e565b611a9f7f2b62ba64eb51074578b71d9f8b2fbd9cb61e8219b6bf8dfba8000a2515372d3c60001b61253e565b83816001019080519060200190611ab792919061260d565b50611ae47ff1e9328bbac73c46112674da842a4aa5f57c7676608f3a3c3ea3ee933c6b774b60001b61253e565b611b107f413dec2d10240e5d1a2ebe5ac3375dbf71e844f28eb722dce4556857f969da7b60001b61253e565b8281600201819055505050505050565b611b28612541565b73ffffffffffffffffffffffffffffffffffffffff16611b46611348565b73ffffffffffffffffffffffffffffffffffffffff1614611b9c576040517f08c379a0000000000000000000000000000000000000000000000000000000008152600401611b9390612cc8565b60405180910390fd5b81611bc97f30273bc3f885d4caa9b627e4dce5a1cc494fce7adc3a529668f4d9c64a9933eb60001b61253e565b611bf57fbd26e1090f6be8f1b75a28b2ce295d2256e113e6db1a47f09d2c45356d14aa5360001b61253e565b611c217f93f2cf4ee0883dd02d28baef9c0ab87c25f5f892c66831dd7ad62ed606e8e6d360001b61253e565b60006009600060015481526020019081526020016000209050611c667f21094d1f4b6c00634102e8c01a4cf4248d81368f8fcdc5b141e68974d0de50a760001b61253e565b611c927f8236a3f62930e493b10b7e585a869b572aa9fb763b84b010c8be2bb69050a62d60001b61253e565b611cbe7f8a038bcfe83f408737fbd37393934cb789a78a17c6a2ecec75b7e633ac3d833d60001b61253e565b6000816000018054611ccf90612f5a565b90501415611d12576040517f08c379a0000000000000000000000000000000000000000000000000000000008152600401611d0990612ce8565b60405180910390fd5b611d3e7f9d8451996a8c5f0e9df9257e90126dfb1e74ebc93a1fd2d313c2608389ef675f60001b61253e565b611d6a7fc4babd36a906a557ca1ee7139b1a06d796ffc872a664b582f3e0838c2aaeb19760001b61253e565b611d967f6cb7238f52a16d8c0cc0475f6fd119457c986cfe009cac2ab601ec9ed53095d560001b61253e565b611dc27ffe301dfb62778105fac051d59d0caa589a71b2752193c57fc669334e6f4bbdae60001b61253e565b611dee7fe9d05eb3f685372b66f7aca58a834b483dddf05d8d0a1b9cd6012b160e12264860001b61253e565b611e1a7fb01eb8b5a536bd0d4e1288c0f5fa815501ce1ed8492053ac470b7026d11f9dc760001b61253e565b60008311611e5d576040517f08c379a0000000000000000000000000000000000000000000000000000000008152600401611e5490612d28565b60405180910390fd5b611e897fe30e899d09386c2d43da901913c6f22806d4720e356d54e61f0cb10c75578f2860001b61253e565b611eb47e7e9bce4e2bd223968ef38a932348edbd26c90048cbf08e0414851db9daf1d560001b61253e565b611ee07f634d715c37e86b5322e38204301bd4df292b52a349a2be93e43a5d8d1d1397eb60001b61253e565b60006009600060015481526020019081526020016000209050611f257feab221b0e110bcdfa4ab75ef14e42c8443985b3ab32c13c4c0339733d7bd442a60001b61253e565b611f517fe6186d93b1c114e3cf542ae0559a4c074258f02fdd031c2692486cfe163e562960001b61253e565b838160020154611f619190612e52565b81600201819055505050505050565b611f9c7f772ec3a2e46d6c0e17e6d5169c055e39466be200064ff393893d93f50e08745b60001b61253e565b611fc87f3a6e4f3fa67818171d34964efa21fd85d0f0c0285879fd73e127e65239d70af660001b61253e565b611ff47f330a6f045cd893814b9c761a83ea1a0c155465ee06c2297f67436aa67266fefb60001b61253e565b6120207f8652fcf7f3ce58426c0d9798c416e432b389242d3c87a1e971270f5e4a632d6460001b61253e565b60011515600a60003373ffffffffffffffffffffffffffffffffffffffff1673ffffffffffffffffffffffffffffffffffffffff168152602001908152602001600020600083815260200190815260200160002060009054906101000a900460ff161515146120c4576040517f08c379a00000000000000000000000000000000000000000000000000000000081526004016120bb90612c08565b60405180910390fd5b6120f07f0ec692851365a95eb87505b2e0bf93e94f99ccc0795fececaa57e2397a43001560001b61253e565b61211c7f301840f4a1ecf59ec5984548e4daed0aa55710418a9c564719f16bd4413815a660001b61253e565b6121487f374d77c23bc5f05cc08ee0ac9ec13dcb6c316be684a67968d52aca97d8771d8960001b61253e565b600060096000838152602001908152602001600020905061218b7ffc21bbc9b8461584a93ee80cb30bdc8a0f821ec1a3af2bdfb1771b8a29e8654760001b61253e565b6121b77fd470add96b7d9313b544b8548f36bf9edb9cfc145d69ed67bceac9add8f952c260001b61253e565b600181600301546121c89190612ea8565b81600301819055506121fc7f05b89b4f1adc0893e36162ce6186da281cf708307efb37c69bba44cd6eecc4e560001b61253e565b6122287f3d39f366f02571d8c93d254e633637d4fc178aecf07231d78cf1f711aa64736960001b61253e565b600181600201546122399190612e52565b816002018190555061226d7fe2ee7c0b2e32e4a2f1f9f5df0892ae542fe887eef25edd9f1eed4d0bf6b4c4cf60001b61253e565b6122997f223af0c2e3d04658fefad11df238422c4a89f225530ab43dbb350693804f8c4160001b61253e565b6000600a60003373ffffffffffffffffffffffffffffffffffffffff1673ffffffffffffffffffffffffffffffffffffffff168152602001908152602001600020600084815260200190815260200160002060006101000a81548160ff0219169083151502179055505050565b61230e612541565b73ffffffffffffffffffffffffffffffffffffffff1661232c611348565b73ffffffffffffffffffffffffffffffffffffffff1614612382576040517f08c379a000000000000000000000000000000000000000000000000000000000815260040161237990612cc8565b60405180910390fd5b600073ffffffffffffffffffffffffffffffffffffffff168173ffffffffffffffffffffffffffffffffffffffff1614156123f2576040517f08c379a00000000000000000000000000000000000000000000000000000000081526004016123e990612c28565b60405180910390fd5b6123fb81612549565b50565b600960205280600052604060002060009150905080600001805461242190612f5a565b80601f016020809104026020016040519081016040528092919081815260200182805461244d90612f5a565b801561249a5780601f1061246f5761010080835404028352916020019161249a565b820191906000526020600020905b81548152906001019060200180831161247d57829003601f168201915b5050505050908060010180546124af90612f5a565b80601f01602080910402602001604051908101604052809291908181526020018280546124db90612f5a565b80156125285780601f106124fd57610100808354040283529160200191612528565b820191906000526020600020905b81548152906001019060200180831161250b57829003601f168201915b5050505050908060020154908060030154905084565b50565b600033905090565b60008060009054906101000a900473ffffffffffffffffffffffffffffffffffffffff169050816000806101000a81548173ffffffffffffffffffffffffffffffffffffffff021916908373ffffffffffffffffffffffffffffffffffffffff1602179055508173ffffffffffffffffffffffffffffffffffffffff168173ffffffffffffffffffffffffffffffffffffffff167f8be0079c531659141344cd1fd0a4f28419497f9722a3daafe3b4186f6b6457e060405160405180910390a35050565b82805461261990612f5a565b90600052602060002090601f01602090048101928261263b5760008555612682565b82601f1061265457805160ff1916838001178555612682565b82800160010185558215612682579182015b82811115612681578251825591602001919060010190612666565b5b50905061268f9190612693565b5090565b5b808211156126ac576000816000905550600101612694565b5090565b60006126c36126be84612d88565b612d63565b9050828152602081018484840111156126db57600080fd5b6126e6848285612f18565b509392505050565b6000813590506126fd81613264565b92915050565b600082601f83011261271457600080fd5b81356127248482602086016126b0565b91505092915050565b60008135905061273c8161327b565b92915050565b60006020828403121561275457600080fd5b6000612762848285016126ee565b91505092915050565b60008060006060848603121561278057600080fd5b600084013567ffffffffffffffff81111561279a57600080fd5b6127a686828701612703565b935050602084013567ffffffffffffffff8111156127c357600080fd5b6127cf86828701612703565b92505060406127e08682870161272d565b9150509250925092565b6000602082840312156127fc57600080fd5b600061280a8482850161272d565b91505092915050565b6000806040838503121561282657600080fd5b60006128348582860161272d565b92505060206128458582860161272d565b9150509250929050565b600061285b838361287f565b60208301905092915050565b60006128738383612b21565b60208301905092915050565b61288881612edc565b82525050565b61289781612edc565b82525050565b60006128a882612dd9565b6128b28185612e14565b93506128bd83612db9565b8060005b838110156128ee5781516128d5888261284f565b97506128e083612dfa565b9250506001810190506128c1565b5085935050505092915050565b600061290682612de4565b6129108185612e25565b935061291b83612dc9565b8060005b8381101561294c5781516129338882612867565b975061293e83612e07565b92505060018101905061291f565b5085935050505092915050565b600061296482612def565b61296e8185612e36565b935061297e818560208601612f27565b61298781613093565b840191505092915050565b600061299d82612def565b6129a78185612e47565b93506129b7818560208601612f27565b80840191505092915050565b60006129d0601183612e36565b91506129db826130a4565b602082019050919050565b60006129f3602683612e36565b91506129fe826130cd565b604082019050919050565b6000612a16601983612e36565b9150612a218261311c565b602082019050919050565b6000612a39601783612e36565b9150612a4482613145565b602082019050919050565b6000612a5c601a83612e36565b9150612a678261316e565b602082019050919050565b6000612a7f601783612e36565b9150612a8a82613197565b602082019050919050565b6000612aa2602083612e36565b9150612aad826131c0565b602082019050919050565b6000612ac5601383612e36565b9150612ad0826131e9565b602082019050919050565b6000612ae8601883612e36565b9150612af382613212565b602082019050919050565b6000612b0b601483612e36565b9150612b168261323b565b602082019050919050565b612b2a81612f0e565b82525050565b612b3981612f0e565b82525050565b6000612b4b8284612992565b915081905092915050565b6000602082019050612b6b600083018461288e565b92915050565b60006020820190508181036000830152612b8b818461289d565b905092915050565b60006020820190508181036000830152612bad81846128fb565b905092915050565b60006080820190508181036000830152612bcf8187612959565b90508181036020830152612be38186612959565b9050612bf26040830185612b30565b612bff6060830184612b30565b95945050505050565b60006020820190508181036000830152612c21816129c3565b9050919050565b60006020820190508181036000830152612c41816129e6565b9050919050565b60006020820190508181036000830152612c6181612a09565b9050919050565b60006020820190508181036000830152612c8181612a2c565b9050919050565b60006020820190508181036000830152612ca181612a4f565b9050919050565b60006020820190508181036000830152612cc181612a72565b9050919050565b60006020820190508181036000830152612ce181612a95565b9050919050565b60006020820190508181036000830152612d0181612ab8565b9050919050565b60006020820190508181036000830152612d2181612adb565b9050919050565b60006020820190508181036000830152612d4181612afe565b9050919050565b6000602082019050612d5d6000830184612b30565b92915050565b6000612d6d612d7e565b9050612d798282612f8c565b919050565b6000604051905090565b600067ffffffffffffffff821115612da357612da2613064565b5b612dac82613093565b9050602081019050919050565b6000819050602082019050919050565b6000819050602082019050919050565b600081519050919050565b600081519050919050565b600081519050919050565b6000602082019050919050565b6000602082019050919050565b600082825260208201905092915050565b600082825260208201905092915050565b600082825260208201905092915050565b600081905092915050565b6000612e5d82612f0e565b9150612e6883612f0e565b9250827fffffffffffffffffffffffffffffffffffffffffffffffffffffffffffffffff03821115612e9d57612e9c613006565b5b828201905092915050565b6000612eb382612f0e565b9150612ebe83612f0e565b925082821015612ed157612ed0613006565b5b828203905092915050565b6000612ee782612eee565b9050919050565b600073ffffffffffffffffffffffffffffffffffffffff82169050919050565b6000819050919050565b82818337600083830152505050565b60005b83811015612f45578082015181840152602081019050612f2a565b83811115612f54576000848401525b50505050565b60006002820490506001821680612f7257607f821691505b60208210811415612f8657612f85613035565b5b50919050565b612f9582613093565b810181811067ffffffffffffffff82111715612fb457612fb3613064565b5b80604052505050565b6000612fc882612f0e565b91507fffffffffffffffffffffffffffffffffffffffffffffffffffffffffffffffff821415612ffb57612ffa613006565b5b600182019050919050565b7f4e487b7100000000000000000000000000000000000000000000000000000000600052601160045260246000fd5b7f4e487b7100000000000000000000000000000000000000000000000000000000600052602260045260246000fd5b7f4e487b7100000000000000000000000000000000000000000000000000000000600052604160045260246000fd5b6000601f19601f8301169050919050565b7f4e6f20636f707920746f2072657475726e000000000000000000000000000000600082015250565b7f4f776e61626c653a206e6577206f776e657220697320746865207a65726f206160008201527f6464726573730000000000000000000000000000000000000000000000000000602082015250565b7f5573657220616c72656164792068617320636f7079206f757400000000000000600082015250565b7f4e6f20626f6f6b73206c65667420746f20626f72726f77000000000000000000600082015250565b7f4d75737420686176652061746c65617374206f6e6520636f7079000000000000600082015250565b7f426f6f6b20616c726561647920696e206c696272617279000000000000000000600082015250565b7f4f776e61626c653a2063616c6c6572206973206e6f7420746865206f776e6572600082015250565b7f426f6f6b20646f6573206e6f7420657869737400000000000000000000000000600082015250565b7f426f6f6b206e616d652063616e277420626520656d7074790000000000000000600082015250565b7f43616e7420616464207a65726f20436f70696573000000000000000000000000600082015250565b61326d81612edc565b811461327857600080fd5b50565b61328481612f0e565b811461328f57600080fd5b5056fea264697066735822122029dca3f91776036c7f77425b0bb9764d65775e8d945a357350305e3415a55af564736f6c63430008040033",
  "linkReferences": {},
  "deployedLinkReferences": {}
}