{
  "_format": "hh-sol-artifact-1",
  "contractName": "TheDadlessLibrary",
  "sourceName": "contracts/TheDadlessLibrary.sol",
  "abi": [
    {
      "anonymous": false,
      "inputs": [
        {
          "indexed": true,
          "internalType": "address",
          "name": "previousOwner",
          "type": "address"
        },
        {
          "indexed": true,
          "internalType": "address",
          "name": "newOwner",
          "type": "address"
        }
      ],
      "name": "OwnershipTransferred",
      "type": "event"
    },
    {
      "inputs": [
        {
          "internalType": "uint256",
          "name": "",
          "type": "uint256"
        }
      ],
      "name": "Ledger",
      "outputs": [
        {
          "internalType": "string",
          "name": "name",
          "type": "string"
        },
        {
          "internalType": "string",
          "name": "author",
          "type": "string"
        },
        {
          "internalType": "uint256",
          "name": "totalCopies",
          "type": "uint256"
        },
        {
          "internalType": "uint256",
          "name": "copiesOut",
          "type": "uint256"
        }
      ],
      "stateMutability": "view",
      "type": "function"
    },
    {
      "inputs": [
        {
          "internalType": "uint256",
          "name": "_deweyDecimalId",
          "type": "uint256"
        },
        {
          "internalType": "uint256",
          "name": "_newCopies",
          "type": "uint256"
        }
      ],
      "name": "addCopies",
      "outputs": [],
      "stateMutability": "nonpayable",
      "type": "function"
    },
    {
      "inputs": [
        {
          "internalType": "string",
          "name": "_name",
          "type": "string"
        },
        {
          "internalType": "string",
          "name": "_author",
          "type": "string"
        },
        {
          "internalType": "uint256",
          "name": "_totalCopies",
          "type": "uint256"
        }
      ],
      "name": "addNewBook",
      "outputs": [],
      "stateMutability": "nonpayable",
      "type": "function"
    },
    {
      "inputs": [],
      "name": "booksAvaliable",
      "outputs": [
        {
          "internalType": "uint256[]",
          "name": "",
          "type": "uint256[]"
        }
      ],
      "stateMutability": "view",
      "type": "function"
    },
    {
      "inputs": [
        {
          "internalType": "uint256",
          "name": "_deweyDeciamalId",
          "type": "uint256"
        }
      ],
      "name": "borrowBook",
      "outputs": [],
      "stateMutability": "nonpayable",
      "type": "function"
    },
    {
      "inputs": [],
      "name": "deweyDecimalId",
      "outputs": [
        {
          "internalType": "uint256",
          "name": "",
          "type": "uint256"
        }
      ],
      "stateMutability": "view",
      "type": "function"
    },
    {
      "inputs": [],
      "name": "libraryTotalHistory",
      "outputs": [
        {
          "internalType": "address[]",
          "name": "",
          "type": "address[]"
        }
      ],
      "stateMutability": "view",
      "type": "function"
    },
    {
      "inputs": [],
      "name": "owner",
      "outputs": [
        {
          "internalType": "address",
          "name": "",
          "type": "address"
        }
      ],
      "stateMutability": "view",
      "type": "function"
    },
    {
      "inputs": [],
      "name": "renounceOwnership",
      "outputs": [],
      "stateMutability": "nonpayable",
      "type": "function"
    },
    {
      "inputs": [
        {
          "internalType": "uint256",
          "name": "_deweyDeciamalId",
          "type": "uint256"
        }
      ],
      "name": "returnBook",
      "outputs": [],
      "stateMutability": "nonpayable",
      "type": "function"
    },
    {
      "inputs": [
        {
          "internalType": "address",
          "name": "newOwner",
          "type": "address"
        }
      ],
      "name": "transferOwnership",
      "outputs": [],
      "stateMutability": "nonpayable",
      "type": "function"
    },
    {
      "inputs": [
        {
          "internalType": "uint256",
          "name": "_deweyDecimalId",
          "type": "uint256"
        }
      ],
      "name": "whoHasTheBookIWant",
      "outputs": [
        {
          "internalType": "address[]",
          "name": "",
          "type": "address[]"
        }
      ],
      "stateMutability": "view",
      "type": "function"
    }
  ],
  "bytecode": "0x608060405234801561001057600080fd5b5061002d61002261003260201b60201c565b61003a60201b60201c565b6100fe565b600033905090565b60008060009054906101000a900473ffffffffffffffffffffffffffffffffffffffff169050816000806101000a81548173ffffffffffffffffffffffffffffffffffffffff021916908373ffffffffffffffffffffffffffffffffffffffff1602179055508173ffffffffffffffffffffffffffffffffffffffff168173ffffffffffffffffffffffffffffffffffffffff167f8be0079c531659141344cd1fd0a4f28419497f9722a3daafe3b4186f6b6457e060405160405180910390a35050565b611e488061010d6000396000f3fe608060405234801561001057600080fd5b50600436106100b45760003560e01c80638da5cb5b116100715780638da5cb5b14610169578063bc4d114114610187578063c0d01989146101a3578063ca5140c9146101bf578063f2fde38b146101db578063fb011944146101f7576100b4565b806318dfba68146100b9578063715018a6146100d75780637705eff3146100e157806377d970ba146101115780637e490a9e1461012f578063821764361461014b575b600080fd5b6100c161022a565b6040516100ce9190611713565b60405180910390f35b6100df610464565b005b6100fb60048036038101906100f6919061136a565b6104ec565b60405161010891906116f1565b60405180910390f35b61011961065b565b60405161012691906118c8565b60405180910390f35b6101496004803603810190610144919061136a565b610661565b005b6101536108b7565b60405161016091906116f1565b60405180910390f35b610171610945565b60405161017e91906116d6565b60405180910390f35b6101a1600480360381019061019c91906112eb565b61096e565b005b6101bd60048036038101906101b89190611393565b610bca565b005b6101d960048036038101906101d4919061136a565b610d2f565b005b6101f560048036038101906101f091906112c2565b610e89565b005b610211600480360381019061020c919061136a565b610f81565b6040516102219493929190611735565b60405180910390f35b6060600080600190505b60015481116102e557600a60003373ffffffffffffffffffffffffffffffffffffffff1673ffffffffffffffffffffffffffffffffffffffff168152602001908152602001600020600082815260200190815260200160002060009054906101000a900460ff161580156102be575060006009600083815260200190815260200160002060020154115b156102d25781806102ce90611b3d565b9250505b80806102dd90611b3d565b915050610234565b5060008167ffffffffffffffff811115610328577f4e487b7100000000000000000000000000000000000000000000000000000000600052604160045260246000fd5b6040519080825280602002602001820160405280156103565781602001602082028036833780820191505090505b509050600091506000600190505b600154811161045b57600a60003373ffffffffffffffffffffffffffffffffffffffff1673ffffffffffffffffffffffffffffffffffffffff168152602001908152602001600020600082815260200190815260200160002060009054906101000a900460ff161580156103ee575060006009600083815260200190815260200160002060020154115b15610448578082848151811061042d577f4e487b7100000000000000000000000000000000000000000000000000000000600052603260045260246000fd5b602002602001018181525050828061044490611b3d565b9350505b808061045390611b3d565b915050610364565b50809250505090565b61046c6110c1565b73ffffffffffffffffffffffffffffffffffffffff1661048a610945565b73ffffffffffffffffffffffffffffffffffffffff16146104e0576040517f08c379a00000000000000000000000000000000000000000000000000000000081526004016104d790611848565b60405180910390fd5b6104ea60006110c9565b565b60606000600960008481526020019081526020016000206003015467ffffffffffffffff811115610546577f4e487b7100000000000000000000000000000000000000000000000000000000600052604160045260246000fd5b6040519080825280602002602001820160405280156105745781602001602082028036833780820191505090505b50905060005b81518110156106515760096000858152602001908152602001600020600401600082815260200190815260200160002060009054906101000a900473ffffffffffffffffffffffffffffffffffffffff16828281518110610604577f4e487b7100000000000000000000000000000000000000000000000000000000600052603260045260246000fd5b602002602001019073ffffffffffffffffffffffffffffffffffffffff16908173ffffffffffffffffffffffffffffffffffffffff1681525050808061064990611b3d565b91505061057a565b5080915050919050565b60015481565b600a60003373ffffffffffffffffffffffffffffffffffffffff1673ffffffffffffffffffffffffffffffffffffffff168152602001908152602001600020600082815260200190815260200160002060009054906101000a900460ff16156106ff576040517f08c379a00000000000000000000000000000000000000000000000000000000081526004016106f6906117c8565b60405180910390fd5b6000600960008381526020019081526020016000209050600081600201541161075d576040517f08c379a0000000000000000000000000000000000000000000000000000000008152600401610754906117e8565b60405180910390fd5b6001816002015461076e9190611a28565b81600201819055506001600a60003373ffffffffffffffffffffffffffffffffffffffff1673ffffffffffffffffffffffffffffffffffffffff168152602001908152602001600020600084815260200190815260200160002060006101000a81548160ff021916908315150217905550338160040160008360030154815260200190815260200160002060006101000a81548173ffffffffffffffffffffffffffffffffffffffff021916908373ffffffffffffffffffffffffffffffffffffffff1602179055506001816003015461084891906119d2565b81600301819055506002339080600181540180825580915050600190039060005260206000200160009091909190916101000a81548173ffffffffffffffffffffffffffffffffffffffff021916908373ffffffffffffffffffffffffffffffffffffffff1602179055505050565b6060600280548060200260200160405190810160405280929190818152602001828054801561093b57602002820191906000526020600020905b8160009054906101000a900473ffffffffffffffffffffffffffffffffffffffff1673ffffffffffffffffffffffffffffffffffffffff16815260200190600101908083116108f1575b5050505050905090565b60008060009054906101000a900473ffffffffffffffffffffffffffffffffffffffff16905090565b6109766110c1565b73ffffffffffffffffffffffffffffffffffffffff16610994610945565b73ffffffffffffffffffffffffffffffffffffffff16146109ea576040517f08c379a00000000000000000000000000000000000000000000000000000000081526004016109e190611848565b60405180910390fd5b826008816040516109fb91906116bf565b908152602001604051809103902060009054906101000a900460ff1615610a57576040517f08c379a0000000000000000000000000000000000000000000000000000000008152600401610a4e90611828565b60405180910390fd5b600084511415610a9c576040517f08c379a0000000000000000000000000000000000000000000000000000000008152600401610a9390611888565b60405180910390fd5b600083511415610ae1576040517f08c379a0000000000000000000000000000000000000000000000000000000008152600401610ad890611888565b60405180910390fd5b60008211610b24576040517f08c379a0000000000000000000000000000000000000000000000000000000008152600401610b1b90611808565b60405180910390fd5b60018054610b3291906119d2565b6001819055506001600885604051610b4a91906116bf565b908152602001604051809103902060006101000a81548160ff0219169083151502179055506000600960006001548152602001908152602001600020905084816000019080519060200190610ba092919061118d565b5083816001019080519060200190610bb992919061118d565b508281600201819055505050505050565b610bd26110c1565b73ffffffffffffffffffffffffffffffffffffffff16610bf0610945565b73ffffffffffffffffffffffffffffffffffffffff1614610c46576040517f08c379a0000000000000000000000000000000000000000000000000000000008152600401610c3d90611848565b60405180910390fd5b81600060096000600154815260200190815260200160002090506000816000018054610c7190611ada565b90501415610cb4576040517f08c379a0000000000000000000000000000000000000000000000000000000008152600401610cab90611868565b60405180910390fd5b60008311610cf7576040517f08c379a0000000000000000000000000000000000000000000000000000000008152600401610cee906118a8565b60405180910390fd5b60006009600060015481526020019081526020016000209050838160020154610d2091906119d2565b81600201819055505050505050565b60011515600a60003373ffffffffffffffffffffffffffffffffffffffff1673ffffffffffffffffffffffffffffffffffffffff168152602001908152602001600020600083815260200190815260200160002060009054906101000a900460ff16151514610dd3576040517f08c379a0000000000000000000000000000000000000000000000000000000008152600401610dca90611788565b60405180910390fd5b600060096000838152602001908152602001600020905060018160030154610dfb9190611a28565b816003018190555060018160020154610e1491906119d2565b81600201819055506000600a60003373ffffffffffffffffffffffffffffffffffffffff1673ffffffffffffffffffffffffffffffffffffffff168152602001908152602001600020600084815260200190815260200160002060006101000a81548160ff0219169083151502179055505050565b610e916110c1565b73ffffffffffffffffffffffffffffffffffffffff16610eaf610945565b73ffffffffffffffffffffffffffffffffffffffff1614610f05576040517f08c379a0000000000000000000000000000000000000000000000000000000008152600401610efc90611848565b60405180910390fd5b600073ffffffffffffffffffffffffffffffffffffffff168173ffffffffffffffffffffffffffffffffffffffff161415610f75576040517f08c379a0000000000000000000000000000000000000000000000000000000008152600401610f6c906117a8565b60405180910390fd5b610f7e816110c9565b50565b6009602052806000526040600020600091509050806000018054610fa490611ada565b80601f0160208091040260200160405190810160405280929190818152602001828054610fd090611ada565b801561101d5780601f10610ff25761010080835404028352916020019161101d565b820191906000526020600020905b81548152906001019060200180831161100057829003601f168201915b50505050509080600101805461103290611ada565b80601f016020809104026020016040519081016040528092919081815260200182805461105e90611ada565b80156110ab5780601f10611080576101008083540402835291602001916110ab565b820191906000526020600020905b81548152906001019060200180831161108e57829003601f168201915b5050505050908060020154908060030154905084565b600033905090565b60008060009054906101000a900473ffffffffffffffffffffffffffffffffffffffff169050816000806101000a81548173ffffffffffffffffffffffffffffffffffffffff021916908373ffffffffffffffffffffffffffffffffffffffff1602179055508173ffffffffffffffffffffffffffffffffffffffff168173ffffffffffffffffffffffffffffffffffffffff167f8be0079c531659141344cd1fd0a4f28419497f9722a3daafe3b4186f6b6457e060405160405180910390a35050565b82805461119990611ada565b90600052602060002090601f0160209004810192826111bb5760008555611202565b82601f106111d457805160ff1916838001178555611202565b82800160010185558215611202579182015b828111156112015782518255916020019190600101906111e6565b5b50905061120f9190611213565b5090565b5b8082111561122c576000816000905550600101611214565b5090565b600061124361123e84611908565b6118e3565b90508281526020810184848401111561125b57600080fd5b611266848285611a98565b509392505050565b60008135905061127d81611de4565b92915050565b600082601f83011261129457600080fd5b81356112a4848260208601611230565b91505092915050565b6000813590506112bc81611dfb565b92915050565b6000602082840312156112d457600080fd5b60006112e28482850161126e565b91505092915050565b60008060006060848603121561130057600080fd5b600084013567ffffffffffffffff81111561131a57600080fd5b61132686828701611283565b935050602084013567ffffffffffffffff81111561134357600080fd5b61134f86828701611283565b9250506040611360868287016112ad565b9150509250925092565b60006020828403121561137c57600080fd5b600061138a848285016112ad565b91505092915050565b600080604083850312156113a657600080fd5b60006113b4858286016112ad565b92505060206113c5858286016112ad565b9150509250929050565b60006113db83836113ff565b60208301905092915050565b60006113f383836116a1565b60208301905092915050565b61140881611a5c565b82525050565b61141781611a5c565b82525050565b600061142882611959565b6114328185611994565b935061143d83611939565b8060005b8381101561146e57815161145588826113cf565b97506114608361197a565b925050600181019050611441565b5085935050505092915050565b600061148682611964565b61149081856119a5565b935061149b83611949565b8060005b838110156114cc5781516114b388826113e7565b97506114be83611987565b92505060018101905061149f565b5085935050505092915050565b60006114e48261196f565b6114ee81856119b6565b93506114fe818560208601611aa7565b61150781611c13565b840191505092915050565b600061151d8261196f565b61152781856119c7565b9350611537818560208601611aa7565b80840191505092915050565b60006115506011836119b6565b915061155b82611c24565b602082019050919050565b60006115736026836119b6565b915061157e82611c4d565b604082019050919050565b60006115966019836119b6565b91506115a182611c9c565b602082019050919050565b60006115b96017836119b6565b91506115c482611cc5565b602082019050919050565b60006115dc601a836119b6565b91506115e782611cee565b602082019050919050565b60006115ff6017836119b6565b915061160a82611d17565b602082019050919050565b60006116226020836119b6565b915061162d82611d40565b602082019050919050565b60006116456013836119b6565b915061165082611d69565b602082019050919050565b60006116686018836119b6565b915061167382611d92565b602082019050919050565b600061168b6014836119b6565b915061169682611dbb565b602082019050919050565b6116aa81611a8e565b82525050565b6116b981611a8e565b82525050565b60006116cb8284611512565b915081905092915050565b60006020820190506116eb600083018461140e565b92915050565b6000602082019050818103600083015261170b818461141d565b905092915050565b6000602082019050818103600083015261172d818461147b565b905092915050565b6000608082019050818103600083015261174f81876114d9565b9050818103602083015261176381866114d9565b905061177260408301856116b0565b61177f60608301846116b0565b95945050505050565b600060208201905081810360008301526117a181611543565b9050919050565b600060208201905081810360008301526117c181611566565b9050919050565b600060208201905081810360008301526117e181611589565b9050919050565b60006020820190508181036000830152611801816115ac565b9050919050565b60006020820190508181036000830152611821816115cf565b9050919050565b60006020820190508181036000830152611841816115f2565b9050919050565b6000602082019050818103600083015261186181611615565b9050919050565b6000602082019050818103600083015261188181611638565b9050919050565b600060208201905081810360008301526118a18161165b565b9050919050565b600060208201905081810360008301526118c18161167e565b9050919050565b60006020820190506118dd60008301846116b0565b92915050565b60006118ed6118fe565b90506118f98282611b0c565b919050565b6000604051905090565b600067ffffffffffffffff82111561192357611922611be4565b5b61192c82611c13565b9050602081019050919050565b6000819050602082019050919050565b6000819050602082019050919050565b600081519050919050565b600081519050919050565b600081519050919050565b6000602082019050919050565b6000602082019050919050565b600082825260208201905092915050565b600082825260208201905092915050565b600082825260208201905092915050565b600081905092915050565b60006119dd82611a8e565b91506119e883611a8e565b9250827fffffffffffffffffffffffffffffffffffffffffffffffffffffffffffffffff03821115611a1d57611a1c611b86565b5b828201905092915050565b6000611a3382611a8e565b9150611a3e83611a8e565b925082821015611a5157611a50611b86565b5b828203905092915050565b6000611a6782611a6e565b9050919050565b600073ffffffffffffffffffffffffffffffffffffffff82169050919050565b6000819050919050565b82818337600083830152505050565b60005b83811015611ac5578082015181840152602081019050611aaa565b83811115611ad4576000848401525b50505050565b60006002820490506001821680611af257607f821691505b60208210811415611b0657611b05611bb5565b5b50919050565b611b1582611c13565b810181811067ffffffffffffffff82111715611b3457611b33611be4565b5b80604052505050565b6000611b4882611a8e565b91507fffffffffffffffffffffffffffffffffffffffffffffffffffffffffffffffff821415611b7b57611b7a611b86565b5b600182019050919050565b7f4e487b7100000000000000000000000000000000000000000000000000000000600052601160045260246000fd5b7f4e487b7100000000000000000000000000000000000000000000000000000000600052602260045260246000fd5b7f4e487b7100000000000000000000000000000000000000000000000000000000600052604160045260246000fd5b6000601f19601f8301169050919050565b7f4e6f20636f707920746f2072657475726e000000000000000000000000000000600082015250565b7f4f776e61626c653a206e6577206f776e657220697320746865207a65726f206160008201527f6464726573730000000000000000000000000000000000000000000000000000602082015250565b7f5573657220616c72656164792068617320636f7079206f757400000000000000600082015250565b7f4e6f20626f6f6b73206c65667420746f20626f72726f77000000000000000000600082015250565b7f4d75737420686176652061746c65617374206f6e6520636f7079000000000000600082015250565b7f426f6f6b20616c726561647920696e206c696272617279000000000000000000600082015250565b7f4f776e61626c653a2063616c6c6572206973206e6f7420746865206f776e6572600082015250565b7f426f6f6b20646f6573206e6f7420657869737400000000000000000000000000600082015250565b7f426f6f6b206e616d652063616e277420626520656d7074790000000000000000600082015250565b7f43616e7420616464207a65726f20436f70696573000000000000000000000000600082015250565b611ded81611a5c565b8114611df857600080fd5b50565b611e0481611a8e565b8114611e0f57600080fd5b5056fea26469706673582212207b86e99faf1678bb7d71817649c8aada275afaface467d9d21c898d60544937764736f6c63430008040033",
  "linkReferences": {},
  "deployedLinkReferences": {}
}