{
  "contracts/TheDadlessLibrary.sol": {
    "TheDadlessLibrary": {
      "abi": [
        {
          "anonymous": false,
          "inputs": [
            {
              "indexed": true,
              "internalType": "address",
              "name": "previousOwner",
              "type": "address"
            },
            {
              "indexed": true,
              "internalType": "address",
              "name": "newOwner",
              "type": "address"
            }
          ],
          "name": "OwnershipTransferred",
          "type": "event"
        },
        {
          "inputs": [
            {
              "internalType": "uint256",
              "name": "",
              "type": "uint256"
            }
          ],
          "name": "Ledger",
          "outputs": [
            {
              "internalType": "string",
              "name": "name",
              "type": "string"
            },
            {
              "internalType": "string",
              "name": "author",
              "type": "string"
            },
            {
              "internalType": "uint256",
              "name": "totalCopies",
              "type": "uint256"
            },
            {
              "internalType": "uint256",
              "name": "copiesOut",
              "type": "uint256"
            }
          ],
          "stateMutability": "view",
          "type": "function"
        },
        {
          "inputs": [
            {
              "internalType": "uint256",
              "name": "_deweyDecimalId",
              "type": "uint256"
            },
            {
              "internalType": "uint256",
              "name": "_newCopies",
              "type": "uint256"
            }
          ],
          "name": "addCopies",
          "outputs": [],
          "stateMutability": "nonpayable",
          "type": "function"
        },
        {
          "inputs": [
            {
              "internalType": "string",
              "name": "_name",
              "type": "string"
            },
            {
              "internalType": "string",
              "name": "_author",
              "type": "string"
            },
            {
              "internalType": "uint256",
              "name": "_totalCopies",
              "type": "uint256"
            }
          ],
          "name": "addNewBook",
          "outputs": [],
          "stateMutability": "nonpayable",
          "type": "function"
        },
        {
          "inputs": [],
          "name": "booksAvaliable",
          "outputs": [
            {
              "internalType": "uint256[]",
              "name": "",
              "type": "uint256[]"
            }
          ],
          "stateMutability": "view",
          "type": "function"
        },
        {
          "inputs": [
            {
              "internalType": "uint256",
              "name": "_deweyDeciamalId",
              "type": "uint256"
            }
          ],
          "name": "borrowBook",
          "outputs": [],
          "stateMutability": "nonpayable",
          "type": "function"
        },
        {
          "inputs": [],
          "name": "deweyDecimalId",
          "outputs": [
            {
              "internalType": "uint256",
              "name": "",
              "type": "uint256"
            }
          ],
          "stateMutability": "view",
          "type": "function"
        },
        {
          "inputs": [],
          "name": "libraryTotalHistory",
          "outputs": [
            {
              "internalType": "address[]",
              "name": "",
              "type": "address[]"
            }
          ],
          "stateMutability": "view",
          "type": "function"
        },
        {
          "inputs": [],
          "name": "owner",
          "outputs": [
            {
              "internalType": "address",
              "name": "",
              "type": "address"
            }
          ],
          "stateMutability": "view",
          "type": "function"
        },
        {
          "inputs": [],
          "name": "renounceOwnership",
          "outputs": [],
          "stateMutability": "nonpayable",
          "type": "function"
        },
        {
          "inputs": [
            {
              "internalType": "uint256",
              "name": "_deweyDeciamalId",
              "type": "uint256"
            }
          ],
          "name": "returnBook",
          "outputs": [],
          "stateMutability": "nonpayable",
          "type": "function"
        },
        {
          "inputs": [
            {
              "internalType": "address",
              "name": "newOwner",
              "type": "address"
            }
          ],
          "name": "transferOwnership",
          "outputs": [],
          "stateMutability": "nonpayable",
          "type": "function"
        },
        {
          "inputs": [
            {
              "internalType": "uint256",
              "name": "_deweyDecimalId",
              "type": "uint256"
            }
          ],
          "name": "whoHasTheBookIWant",
          "outputs": [
            {
              "internalType": "address[]",
              "name": "",
              "type": "address[]"
            }
          ],
          "stateMutability": "view",
          "type": "function"
        }
      ],
      "evm": {
        "bytecode": {
          "linkReferences": {},
          "object": "60806040523480156200001157600080fd5b5062000032620000266200003860201b60201c565b6200004060201b60201c565b62000104565b600033905090565b60008060009054906101000a900473ffffffffffffffffffffffffffffffffffffffff169050816000806101000a81548173ffffffffffffffffffffffffffffffffffffffff021916908373ffffffffffffffffffffffffffffffffffffffff1602179055508173ffffffffffffffffffffffffffffffffffffffff168173ffffffffffffffffffffffffffffffffffffffff167f8be0079c531659141344cd1fd0a4f28419497f9722a3daafe3b4186f6b6457e060405160405180910390a35050565b6132c880620001146000396000f3fe608060405234801561001057600080fd5b50600436106100b45760003560e01c80638da5cb5b116100715780638da5cb5b14610169578063bc4d114114610187578063c0d01989146101a3578063ca5140c9146101bf578063f2fde38b146101db578063fb011944146101f7576100b4565b806318dfba68146100b9578063715018a6146100d75780637705eff3146100e157806377d970ba146101115780637e490a9e1461012f578063821764361461014b575b600080fd5b6100c161022a565b6040516100ce9190612b93565b60405180910390f35b6100df6108bb565b005b6100fb60048036038101906100f691906127ea565b610943565b6040516101089190612b71565b60405180910390f35b610119610c3e565b6040516101269190612d48565b60405180910390f35b610149600480360381019061014491906127ea565b610c44565b005b610153611236565b6040516101609190612b71565b60405180910390f35b610171611348565b60405161017e9190612b56565b60405180910390f35b6101a1600480360381019061019c919061276b565b611371565b005b6101bd60048036038101906101b89190612813565b611b20565b005b6101d960048036038101906101d491906127ea565b611f70565b005b6101f560048036038101906101f09190612742565b612306565b005b610211600480360381019061020c91906127ea565b6123fe565b6040516102219493929190612bb5565b60405180910390f35b60606102587f79672d9ad88ed4cad14bc1315915fd44ab3703b6e4a7ad20df91dc010fa0740260001b61253e565b6102847fd6dceaefec64084e55af4067219625e37840b96712a461fc18d0fcb1b793127960001b61253e565b6102b07fa9c83dc31e97f4b719d49a7994d318ea4c43ceafe3429faf3dc910a3053a025660001b61253e565b60006102de7fb8970e5c8b257cfa2e5ccbb1cf4fdec50062e699fc97dfea6a9ccb4b6e1305cd60001b61253e565b61030a7fe7ea29860c52f8cf2cdf4d71cf37cf562b95813ef11b4950823523025226289060001b61253e565b6000600190505b60015481116104a3576103467fb132c1eeebff6df5461f2395a5700b08bc463181709b04eacaf5a1901ac08e3560001b61253e565b6103727f9c4174b9e4760aa3d4b0f31736360e5d7ff3b02b1ebb23bdfadc1076d1767f7560001b61253e565b600a60003373ffffffffffffffffffffffffffffffffffffffff1673ffffffffffffffffffffffffffffffffffffffff168152602001908152602001600020600082815260200190815260200160002060009054906101000a900460ff161580156103f3575060006009600083815260200190815260200160002060020154115b15610463576104247fb376d7bde2509afb40cd747d64fda2f616603744f5434916a7564e0b8d4b214c60001b61253e565b6104507f9194eaeccc2333b73543c95db19f95f213fed7b5f1ca8a37fa96711035a9eaa060001b61253e565b818061045b90612fbd565b925050610490565b61048f7ffea3c8eceb3b4310eddf8c4efa91a21b71c42781a6cf79d2480d77c85d53f92860001b61253e565b5b808061049b90612fbd565b915050610311565b506104d07f25d71a58e12051e1e9f58e7f301eb4e144c129dbc31e0fe28a9957a271231a0660001b61253e565b6104fc7fc1488a6931363dd352e3c84db9bbdbeb6d2c8cb5f507a12086a6e947a4fbbda260001b61253e565b60008167ffffffffffffffff81111561053e577f4e487b7100000000000000000000000000000000000000000000000000000000600052604160045260246000fd5b60405190808252806020026020018201604052801561056c5781602001602082028036833780820191505090505b50905061059b7fb3d28633361114bc18611e09c666e73d64f63c461c14cfba0f923228d2afbb3b60001b61253e565b6105c77f68e611be37dd616a9a1c93a8a278736e26eff1d206bf51af08568f91e809206d60001b61253e565b600091506105f77f05ba6abe23a11ccf7e97b996506d437cd7a8bf9afe2b07988d9c37c246449e5d60001b61253e565b6106237f2cdc0ecd452c270aeb474760eabe3d2b09c87d46279751f122a85e305d12259c60001b61253e565b6000600190505b600154811161085a5761065f7f6e963e3bcde0a2b494c96a0c61c533cdd7ed7ba08a49bdf41e44cb79f99339d560001b61253e565b61068b7fbd5c861c8bb74833c7731f1013b14b8ad89ce86899129280b7b921894bcd456d60001b61253e565b600a60003373ffffffffffffffffffffffffffffffffffffffff1673ffffffffffffffffffffffffffffffffffffffff168152602001908152602001600020600082815260200190815260200160002060009054906101000a900460ff1615801561070c575060006009600083815260200190815260200160002060020154115b1561081a5761073d7fb65fc9de6e7f77d98f029074801f1960ba01bf92021b08699d5af2420a49aace60001b61253e565b6107697f25d72b403e9cd582c78e7555a74b0cfff07bc0e03722064fe5be9ea58d621dee60001b61253e565b6107957fc684f5b70d9e7d6a7c136092de2dbb99044e6372c807c91a7f1e41d8af507d6860001b61253e565b808284815181106107cf577f4e487b7100000000000000000000000000000000000000000000000000000000600052603260045260246000fd5b6020026020010181815250506108077fde8321da7d36d5aa3141919d1272cf91c339a8879a908e0eeab5c741eb59634d60001b61253e565b828061081290612fbd565b935050610847565b6108467f6101549220550580bb866c87875bc33438daab4b2d4d48f8b9656e3781536b7160001b61253e565b5b808061085290612fbd565b91505061062a565b506108877fa77d6b48e14799f44586c6722c46a3a052dfdb99bf046df5d58156d3efadb7a660001b61253e565b6108b37f60b67c7cf2d66b8957cd0a649722cbc310f6b9139e239f63c622b01ecf8a299d60001b61253e565b809250505090565b6108c3612541565b73ffffffffffffffffffffffffffffffffffffffff166108e1611348565b73ffffffffffffffffffffffffffffffffffffffff1614610937576040517f08c379a000000000000000000000000000000000000000000000000000000000815260040161092e90612cc8565b60405180910390fd5b6109416000612549565b565b60606109717f99b025b81d691943bc13c75c1713f426a6782093b9d2c87eed408086d027e08960001b61253e565b61099d7fed92c1907b1c116b5097593af1f80c316e4356ff0f846a0a793d7c85e2d2c5fa60001b61253e565b6109c97f2b836458945c76b34bff0eaa304ef3bf7f84a65b6e5065368575e48752256a2b60001b61253e565b6000600960008481526020019081526020016000206003015467ffffffffffffffff811115610a21577f4e487b7100000000000000000000000000000000000000000000000000000000600052604160045260246000fd5b604051908082528060200260200182016040528015610a4f5781602001602082028036833780820191505090505b509050610a7e7fffc0dd48d93d34849651d4402dc07bff589128c7ac47dbffc6def203c3977bce60001b61253e565b610aaa7ff6e04b316ba84ccb2f7c22dd2dfc46d40e20039168ea83d18dcbb5edab5c8aaa60001b61253e565b60005b8151811015610bdc57610ae27f83d0cd9b18d5ec944cfc6d5a30c451d219f4e7f283ba275b7d53754777cc3a5460001b61253e565b610b0e7f76c1ef9155d1a3ec8ed4567868d0b31e65b8228d3eba03ac441082c6ef2c4d5660001b61253e565b60096000858152602001908152602001600020600401600082815260200190815260200160002060009054906101000a900473ffffffffffffffffffffffffffffffffffffffff16828281518110610b8f577f4e487b7100000000000000000000000000000000000000000000000000000000600052603260045260246000fd5b602002602001019073ffffffffffffffffffffffffffffffffffffffff16908173ffffffffffffffffffffffffffffffffffffffff16815250508080610bd490612fbd565b915050610aad565b50610c097f20a8af2d3c7ca2ee418bd0a6d2ecb0ed64b7ba9597f970cc9d966ddfcff8a8f660001b61253e565b610c357f3e04b28cf25bc993bce56b742b6678a18878c2a3c364e63ac4da82c9d1ede98660001b61253e565b80915050919050565b60015481565b610c707f86113075a4411180e5987997bfdfcbe67156cc57883295ac87ea6b1df898041460001b61253e565b610c9c7fcac7b43111ee3d7774d77ef93ef84ba6a3794d295205d8dc389c405f99974d2260001b61253e565b610cc87f698198a7faefa9850455cf22a5fccb558b9a96179f843f7f89eef89f5496573b60001b61253e565b610cf47f72b000e90585c7297d8313db0613037957428bf5a26ca0c21065ac25b2ef342e60001b61253e565b600a60003373ffffffffffffffffffffffffffffffffffffffff1673ffffffffffffffffffffffffffffffffffffffff168152602001908152602001600020600082815260200190815260200160002060009054906101000a900460ff1615610d92576040517f08c379a0000000000000000000000000000000000000000000000000000000008152600401610d8990612c48565b60405180910390fd5b610dbe7f86dac48bcc4da980d1ccfb717eb349fdf739f3062f9beebfb24c9e7367f31d3960001b61253e565b610dea7fa1461944443462d3011af774a5050dc720766e92d349b22cf3c0130bfb61c48060001b61253e565b610e167ff6b496667460a4666398da0196531dcb9aac809cf3f342413b272d3dbc51dd0b60001b61253e565b6000600960008381526020019081526020016000209050610e597ff934807ee18211dcfc61f6cc3dc347a16736baca25d23b723adefb2bf097c7e160001b61253e565b610e857f43c1ae19988992c9a1158b8b7cdb20074d6d6e0359f761daed7786df17ee407c60001b61253e565b610eb17f4a28b064a7f8c1430f6847fe788212d481e770f21c6ca842faf975031227216860001b61253e565b6000816002015411610ef8576040517f08c379a0000000000000000000000000000000000000000000000000000000008152600401610eef90612c68565b60405180910390fd5b610f247f0cdf506f7e0cdbdab350013f6cd4c7a390940a34beb3a0c2d8875ad5b6c69f4060001b61253e565b610f507f92b15852115d1e544d9993739bfe019c7ce1940d6654452e95d513fb3382d56e60001b61253e565b610f7c7ffd939dcc4caab5826b83481323ab11603f614821127e9f0902650ae30fa559df60001b61253e565b60018160020154610f8d9190612ea8565b8160020181905550610fc17f03145a05e5e1ff7c55f4578d2f99d7aba368ca2ff9000e35916ab60c387f01bd60001b61253e565b610fed7f508e579aefbfeb9907c74f849c70a59ff3329011d4afe28e1cadb164e8e8ec7360001b61253e565b6001600a60003373ffffffffffffffffffffffffffffffffffffffff1673ffffffffffffffffffffffffffffffffffffffff168152602001908152602001600020600084815260200190815260200160002060006101000a81548160ff0219169083151502179055506110827f678b511af491cc94784b85bff0f0f7cb599c5a33f41dc885a33cfbaf74678ed460001b61253e565b6110ae7fadaae61bbb3fb8f2c43d565763b59a1578583ad1ebbc2f0873bf46d4d88e32c460001b61253e565b338160040160008360030154815260200190815260200160002060006101000a81548173ffffffffffffffffffffffffffffffffffffffff021916908373ffffffffffffffffffffffffffffffffffffffff1602179055506111327f3a29d0f3b892d5c38e74279af050cfe3bb2e5f0b02d432200d2f889cedf9833260001b61253e565b61115e7f12524d398e1c91bddd862b0bbc8048d09ecf1d0255dc095493698966a3b6915060001b61253e565b6001816003015461116f9190612e52565b81600301819055506111a37fc74f310e2f39e3c96c6cda951dad8500af5da1ea16d0ff088c2d0bf2f381a23260001b61253e565b6111cf7f9044dc90270241035736152d916224cd1ba1aa81cbf711e3128764beef06fee460001b61253e565b6002339080600181540180825580915050600190039060005260206000200160009091909190916101000a81548173ffffffffffffffffffffffffffffffffffffffff021916908373ffffffffffffffffffffffffffffffffffffffff1602179055505050565b60606112647f8598a9ffad5f41c926c503bab3acc6ec435d7d0a769c89806b4d4fa3c531563960001b61253e565b6112907f74954d43cfdb4e2fa2d0999176f1efaf781d25421df801f79a0f574b55088a1a60001b61253e565b6112bc7f839088359de9590174510e1b16c8a80b7768b6b71cd6301c17abae3226e7361b60001b61253e565b600280548060200260200160405190810160405280929190818152602001828054801561133e57602002820191906000526020600020905b8160009054906101000a900473ffffffffffffffffffffffffffffffffffffffff1673ffffffffffffffffffffffffffffffffffffffff16815260200190600101908083116112f4575b5050505050905090565b60008060009054906101000a900473ffffffffffffffffffffffffffffffffffffffff16905090565b611379612541565b73ffffffffffffffffffffffffffffffffffffffff16611397611348565b73ffffffffffffffffffffffffffffffffffffffff16146113ed576040517f08c379a00000000000000000000000000000000000000000000000000000000081526004016113e490612cc8565b60405180910390fd5b8261141a7f5e001aa137d129253f07c7995d805cb7432cdabd608d195ff5e507190547648260001b61253e565b6114467f9c3b06f28abe75371d42316c62733c804293cc15288d62a4efe1c35b17fa9f3660001b61253e565b6114727fb937fc12bc4b15158857c4acee69a096a2891450c57418782b3aca806d28037860001b61253e565b61149e7f942ef66c34e5936e6884860a2082acb2bb762dbc64f1fc8599b3803e4a4b74e360001b61253e565b6008816040516114ae9190612b3f565b908152602001604051809103902060009054906101000a900460ff161561150a576040517f08c379a000000000000000000000000000000000000000000000000000000000815260040161150190612ca8565b60405180910390fd5b6115367f90ce4ec3873f3791983047d4e96c09c2adc987a6ddc67de31071b3deffc46f4d60001b61253e565b6115627f6964b07e93c7da810d229b2bfcabb37a1f4caf9ac171aac6380ffae0025d748a60001b61253e565b61158e7fe63ede23b400ebda3d6b8834f48615cfc60f1576a83a74a986c0af43cd929f2a60001b61253e565b6115ba7fb986d02fdb1720d9490be7f27ed5da94a184a3be4060dca9143922463a67bec160001b61253e565b6115e67f6670e0060c34ece0b0d1dee3284a59b87c31b3fbff9b8bfc6e718b521d23682c60001b61253e565b6116127f386cc9d00d6dd19f9946dac4f6b27b69d3c1439b065d081fb80065e9df504ac260001b61253e565b600084511415611657576040517f08c379a000000000000000000000000000000000000000000000000000000000815260040161164e90612d08565b60405180910390fd5b6116837fa5e8bb7a0ef16fdb49801f752d1a916aefd65e4e492d5a8c2a23b02b599904e060001b61253e565b6116af7f8d04b68e23fc89d710a120230c29497c2d9495b819a335d34f1ec8bdd53202f760001b61253e565b6116db7feb6af04f0ea3ddb894d7732a59274985811fe286c79eb218acd199a367e98a3e60001b61253e565b6117077fd7381a09af790aeade84944b57daedc9cf11bdabf17c1e39c3e09360398d421560001b61253e565b60008351141561174c576040517f08c379a000000000000000000000000000000000000000000000000000000000815260040161174390612d08565b60405180910390fd5b6117777edf3feaab7f621a00a0cdd02b4cac195753d262287678d2d68ddc507da2e13260001b61253e565b6117a37f1188c90f539c3001fe167879bcd037418901b4ce6658f3f423412229f38997f760001b61253e565b6117cf7f6a0eac7bd3d5251c6a56d0b08b1bbc2e8ebcb829e9fc3fc9fdf3b5fc9858bb3d60001b61253e565b6117fb7f590d759cf2800fdb9b13d3c0bf6a72ed20d458273649a69d79a6ee54ea71f29660001b61253e565b6000821161183e576040517f08c379a000000000000000000000000000000000000000000000000000000000815260040161183590612c88565b60405180910390fd5b61186a7f506671c501770317868dde58104503a45f064d470cff5ff863165f1168b4c12560001b61253e565b6118967f3acebb45d5a43d2d2900bbc04f81edab4416cfb0b27248055b61fe59f470410360001b61253e565b6118c27f743be29fe92001dd1e8daab32c8b0bf1306df9aaed2dda6ee744010da3090be060001b61253e565b600180546118d09190612e52565b6001819055506119027f3c1bc26dafbe73555fc1a7a7b9b52ca0b2d4c10d86217a2c9f5c81ce24ff725960001b61253e565b61192e7f634286c510357e5ef1348d620abb188a5b3046faa242830a2baed0cfd00aaaf560001b61253e565b60016008856040516119409190612b3f565b908152602001604051809103902060006101000a81548160ff0219169083151502179055506119917f86ddd065d6deae3b31f1806221341dbc6311025956af5eb7692120ee48b4f28a60001b61253e565b6119bd7fdd759932c551106e862a014de0f90ca8257685c1808d9d54d7ff13d539b3aedb60001b61253e565b60006009600060015481526020019081526020016000209050611a027fad48fb6840afc131779d74a595eb847b9469694a7eeda4aab048b214530fea0b60001b61253e565b611a2e7fdfabf6cc2707f19e6d2905c0f45719f39638494c8ff5bf369f12b41bae02b0f860001b61253e565b84816000019080519060200190611a4692919061260d565b50611a737f3b0be60e01be3591e31518582b456889b550e896b752f0193c91fb8f9ac9e72060001b61253e565b611a9f7f2b62ba64eb51074578b71d9f8b2fbd9cb61e8219b6bf8dfba8000a2515372d3c60001b61253e565b83816001019080519060200190611ab792919061260d565b50611ae47ff1e9328bbac73c46112674da842a4aa5f57c7676608f3a3c3ea3ee933c6b774b60001b61253e565b611b107f413dec2d10240e5d1a2ebe5ac3375dbf71e844f28eb722dce4556857f969da7b60001b61253e565b8281600201819055505050505050565b611b28612541565b73ffffffffffffffffffffffffffffffffffffffff16611b46611348565b73ffffffffffffffffffffffffffffffffffffffff1614611b9c576040517f08c379a0000000000000000000000000000000000000000000000000000000008152600401611b9390612cc8565b60405180910390fd5b81611bc97f30273bc3f885d4caa9b627e4dce5a1cc494fce7adc3a529668f4d9c64a9933eb60001b61253e565b611bf57fbd26e1090f6be8f1b75a28b2ce295d2256e113e6db1a47f09d2c45356d14aa5360001b61253e565b611c217f93f2cf4ee0883dd02d28baef9c0ab87c25f5f892c66831dd7ad62ed606e8e6d360001b61253e565b60006009600060015481526020019081526020016000209050611c667f21094d1f4b6c00634102e8c01a4cf4248d81368f8fcdc5b141e68974d0de50a760001b61253e565b611c927f8236a3f62930e493b10b7e585a869b572aa9fb763b84b010c8be2bb69050a62d60001b61253e565b611cbe7f8a038bcfe83f408737fbd37393934cb789a78a17c6a2ecec75b7e633ac3d833d60001b61253e565b6000816000018054611ccf90612f5a565b90501415611d12576040517f08c379a0000000000000000000000000000000000000000000000000000000008152600401611d0990612ce8565b60405180910390fd5b611d3e7f9d8451996a8c5f0e9df9257e90126dfb1e74ebc93a1fd2d313c2608389ef675f60001b61253e565b611d6a7fc4babd36a906a557ca1ee7139b1a06d796ffc872a664b582f3e0838c2aaeb19760001b61253e565b611d967f6cb7238f52a16d8c0cc0475f6fd119457c986cfe009cac2ab601ec9ed53095d560001b61253e565b611dc27ffe301dfb62778105fac051d59d0caa589a71b2752193c57fc669334e6f4bbdae60001b61253e565b611dee7fe9d05eb3f685372b66f7aca58a834b483dddf05d8d0a1b9cd6012b160e12264860001b61253e565b611e1a7fb01eb8b5a536bd0d4e1288c0f5fa815501ce1ed8492053ac470b7026d11f9dc760001b61253e565b60008311611e5d576040517f08c379a0000000000000000000000000000000000000000000000000000000008152600401611e5490612d28565b60405180910390fd5b611e897fe30e899d09386c2d43da901913c6f22806d4720e356d54e61f0cb10c75578f2860001b61253e565b611eb47e7e9bce4e2bd223968ef38a932348edbd26c90048cbf08e0414851db9daf1d560001b61253e565b611ee07f634d715c37e86b5322e38204301bd4df292b52a349a2be93e43a5d8d1d1397eb60001b61253e565b60006009600060015481526020019081526020016000209050611f257feab221b0e110bcdfa4ab75ef14e42c8443985b3ab32c13c4c0339733d7bd442a60001b61253e565b611f517fe6186d93b1c114e3cf542ae0559a4c074258f02fdd031c2692486cfe163e562960001b61253e565b838160020154611f619190612e52565b81600201819055505050505050565b611f9c7f772ec3a2e46d6c0e17e6d5169c055e39466be200064ff393893d93f50e08745b60001b61253e565b611fc87f3a6e4f3fa67818171d34964efa21fd85d0f0c0285879fd73e127e65239d70af660001b61253e565b611ff47f330a6f045cd893814b9c761a83ea1a0c155465ee06c2297f67436aa67266fefb60001b61253e565b6120207f8652fcf7f3ce58426c0d9798c416e432b389242d3c87a1e971270f5e4a632d6460001b61253e565b60011515600a60003373ffffffffffffffffffffffffffffffffffffffff1673ffffffffffffffffffffffffffffffffffffffff168152602001908152602001600020600083815260200190815260200160002060009054906101000a900460ff161515146120c4576040517f08c379a00000000000000000000000000000000000000000000000000000000081526004016120bb90612c08565b60405180910390fd5b6120f07f0ec692851365a95eb87505b2e0bf93e94f99ccc0795fececaa57e2397a43001560001b61253e565b61211c7f301840f4a1ecf59ec5984548e4daed0aa55710418a9c564719f16bd4413815a660001b61253e565b6121487f374d77c23bc5f05cc08ee0ac9ec13dcb6c316be684a67968d52aca97d8771d8960001b61253e565b600060096000838152602001908152602001600020905061218b7ffc21bbc9b8461584a93ee80cb30bdc8a0f821ec1a3af2bdfb1771b8a29e8654760001b61253e565b6121b77fd470add96b7d9313b544b8548f36bf9edb9cfc145d69ed67bceac9add8f952c260001b61253e565b600181600301546121c89190612ea8565b81600301819055506121fc7f05b89b4f1adc0893e36162ce6186da281cf708307efb37c69bba44cd6eecc4e560001b61253e565b6122287f3d39f366f02571d8c93d254e633637d4fc178aecf07231d78cf1f711aa64736960001b61253e565b600181600201546122399190612e52565b816002018190555061226d7fe2ee7c0b2e32e4a2f1f9f5df0892ae542fe887eef25edd9f1eed4d0bf6b4c4cf60001b61253e565b6122997f223af0c2e3d04658fefad11df238422c4a89f225530ab43dbb350693804f8c4160001b61253e565b6000600a60003373ffffffffffffffffffffffffffffffffffffffff1673ffffffffffffffffffffffffffffffffffffffff168152602001908152602001600020600084815260200190815260200160002060006101000a81548160ff0219169083151502179055505050565b61230e612541565b73ffffffffffffffffffffffffffffffffffffffff1661232c611348565b73ffffffffffffffffffffffffffffffffffffffff1614612382576040517f08c379a000000000000000000000000000000000000000000000000000000000815260040161237990612cc8565b60405180910390fd5b600073ffffffffffffffffffffffffffffffffffffffff168173ffffffffffffffffffffffffffffffffffffffff1614156123f2576040517f08c379a00000000000000000000000000000000000000000000000000000000081526004016123e990612c28565b60405180910390fd5b6123fb81612549565b50565b600960205280600052604060002060009150905080600001805461242190612f5a565b80601f016020809104026020016040519081016040528092919081815260200182805461244d90612f5a565b801561249a5780601f1061246f5761010080835404028352916020019161249a565b820191906000526020600020905b81548152906001019060200180831161247d57829003601f168201915b5050505050908060010180546124af90612f5a565b80601f01602080910402602001604051908101604052809291908181526020018280546124db90612f5a565b80156125285780601f106124fd57610100808354040283529160200191612528565b820191906000526020600020905b81548152906001019060200180831161250b57829003601f168201915b5050505050908060020154908060030154905084565b50565b600033905090565b60008060009054906101000a900473ffffffffffffffffffffffffffffffffffffffff169050816000806101000a81548173ffffffffffffffffffffffffffffffffffffffff021916908373ffffffffffffffffffffffffffffffffffffffff1602179055508173ffffffffffffffffffffffffffffffffffffffff168173ffffffffffffffffffffffffffffffffffffffff167f8be0079c531659141344cd1fd0a4f28419497f9722a3daafe3b4186f6b6457e060405160405180910390a35050565b82805461261990612f5a565b90600052602060002090601f01602090048101928261263b5760008555612682565b82601f1061265457805160ff1916838001178555612682565b82800160010185558215612682579182015b82811115612681578251825591602001919060010190612666565b5b50905061268f9190612693565b5090565b5b808211156126ac576000816000905550600101612694565b5090565b60006126c36126be84612d88565b612d63565b9050828152602081018484840111156126db57600080fd5b6126e6848285612f18565b509392505050565b6000813590506126fd81613264565b92915050565b600082601f83011261271457600080fd5b81356127248482602086016126b0565b91505092915050565b60008135905061273c8161327b565b92915050565b60006020828403121561275457600080fd5b6000612762848285016126ee565b91505092915050565b60008060006060848603121561278057600080fd5b600084013567ffffffffffffffff81111561279a57600080fd5b6127a686828701612703565b935050602084013567ffffffffffffffff8111156127c357600080fd5b6127cf86828701612703565b92505060406127e08682870161272d565b9150509250925092565b6000602082840312156127fc57600080fd5b600061280a8482850161272d565b91505092915050565b6000806040838503121561282657600080fd5b60006128348582860161272d565b92505060206128458582860161272d565b9150509250929050565b600061285b838361287f565b60208301905092915050565b60006128738383612b21565b60208301905092915050565b61288881612edc565b82525050565b61289781612edc565b82525050565b60006128a882612dd9565b6128b28185612e14565b93506128bd83612db9565b8060005b838110156128ee5781516128d5888261284f565b97506128e083612dfa565b9250506001810190506128c1565b5085935050505092915050565b600061290682612de4565b6129108185612e25565b935061291b83612dc9565b8060005b8381101561294c5781516129338882612867565b975061293e83612e07565b92505060018101905061291f565b5085935050505092915050565b600061296482612def565b61296e8185612e36565b935061297e818560208601612f27565b61298781613093565b840191505092915050565b600061299d82612def565b6129a78185612e47565b93506129b7818560208601612f27565b80840191505092915050565b60006129d0601183612e36565b91506129db826130a4565b602082019050919050565b60006129f3602683612e36565b91506129fe826130cd565b604082019050919050565b6000612a16601983612e36565b9150612a218261311c565b602082019050919050565b6000612a39601783612e36565b9150612a4482613145565b602082019050919050565b6000612a5c601a83612e36565b9150612a678261316e565b602082019050919050565b6000612a7f601783612e36565b9150612a8a82613197565b602082019050919050565b6000612aa2602083612e36565b9150612aad826131c0565b602082019050919050565b6000612ac5601383612e36565b9150612ad0826131e9565b602082019050919050565b6000612ae8601883612e36565b9150612af382613212565b602082019050919050565b6000612b0b601483612e36565b9150612b168261323b565b602082019050919050565b612b2a81612f0e565b82525050565b612b3981612f0e565b82525050565b6000612b4b8284612992565b915081905092915050565b6000602082019050612b6b600083018461288e565b92915050565b60006020820190508181036000830152612b8b818461289d565b905092915050565b60006020820190508181036000830152612bad81846128fb565b905092915050565b60006080820190508181036000830152612bcf8187612959565b90508181036020830152612be38186612959565b9050612bf26040830185612b30565b612bff6060830184612b30565b95945050505050565b60006020820190508181036000830152612c21816129c3565b9050919050565b60006020820190508181036000830152612c41816129e6565b9050919050565b60006020820190508181036000830152612c6181612a09565b9050919050565b60006020820190508181036000830152612c8181612a2c565b9050919050565b60006020820190508181036000830152612ca181612a4f565b9050919050565b60006020820190508181036000830152612cc181612a72565b9050919050565b60006020820190508181036000830152612ce181612a95565b9050919050565b60006020820190508181036000830152612d0181612ab8565b9050919050565b60006020820190508181036000830152612d2181612adb565b9050919050565b60006020820190508181036000830152612d4181612afe565b9050919050565b6000602082019050612d5d6000830184612b30565b92915050565b6000612d6d612d7e565b9050612d798282612f8c565b919050565b6000604051905090565b600067ffffffffffffffff821115612da357612da2613064565b5b612dac82613093565b9050602081019050919050565b6000819050602082019050919050565b6000819050602082019050919050565b600081519050919050565b600081519050919050565b600081519050919050565b6000602082019050919050565b6000602082019050919050565b600082825260208201905092915050565b600082825260208201905092915050565b600082825260208201905092915050565b600081905092915050565b6000612e5d82612f0e565b9150612e6883612f0e565b9250827fffffffffffffffffffffffffffffffffffffffffffffffffffffffffffffffff03821115612e9d57612e9c613006565b5b828201905092915050565b6000612eb382612f0e565b9150612ebe83612f0e565b925082821015612ed157612ed0613006565b5b828203905092915050565b6000612ee782612eee565b9050919050565b600073ffffffffffffffffffffffffffffffffffffffff82169050919050565b6000819050919050565b82818337600083830152505050565b60005b83811015612f45578082015181840152602081019050612f2a565b83811115612f54576000848401525b50505050565b60006002820490506001821680612f7257607f821691505b60208210811415612f8657612f85613035565b5b50919050565b612f9582613093565b810181811067ffffffffffffffff82111715612fb457612fb3613064565b5b80604052505050565b6000612fc882612f0e565b91507fffffffffffffffffffffffffffffffffffffffffffffffffffffffffffffffff821415612ffb57612ffa613006565b5b600182019050919050565b7f4e487b7100000000000000000000000000000000000000000000000000000000600052601160045260246000fd5b7f4e487b7100000000000000000000000000000000000000000000000000000000600052602260045260246000fd5b7f4e487b7100000000000000000000000000000000000000000000000000000000600052604160045260246000fd5b6000601f19601f8301169050919050565b7f4e6f20636f707920746f2072657475726e000000000000000000000000000000600082015250565b7f4f776e61626c653a206e6577206f776e657220697320746865207a65726f206160008201527f6464726573730000000000000000000000000000000000000000000000000000602082015250565b7f5573657220616c72656164792068617320636f7079206f757400000000000000600082015250565b7f4e6f20626f6f6b73206c65667420746f20626f72726f77000000000000000000600082015250565b7f4d75737420686176652061746c65617374206f6e6520636f7079000000000000600082015250565b7f426f6f6b20616c726561647920696e206c696272617279000000000000000000600082015250565b7f4f776e61626c653a2063616c6c6572206973206e6f7420746865206f776e6572600082015250565b7f426f6f6b20646f6573206e6f7420657869737400000000000000000000000000600082015250565b7f426f6f6b206e616d652063616e277420626520656d7074790000000000000000600082015250565b7f43616e7420616464207a65726f20436f70696573000000000000000000000000600082015250565b61326d81612edc565b811461327857600080fd5b50565b61328481612f0e565b811461328f57600080fd5b5056fea264697066735822122029dca3f91776036c7f77425b0bb9764d65775e8d945a357350305e3415a55af564736f6c63430008040033",
          "opcodes": "PUSH1 0x80 PUSH1 0x40 MSTORE CALLVALUE DUP1 ISZERO PUSH3 0x11 JUMPI PUSH1 0x0 DUP1 REVERT JUMPDEST POP PUSH3 0x32 PUSH3 0x26 PUSH3 0x38 PUSH1 0x20 SHL PUSH1 0x20 SHR JUMP JUMPDEST PUSH3 0x40 PUSH1 0x20 SHL PUSH1 0x20 SHR JUMP JUMPDEST PUSH3 0x104 JUMP JUMPDEST PUSH1 0x0 CALLER SWAP1 POP SWAP1 JUMP JUMPDEST PUSH1 0x0 DUP1 PUSH1 0x0 SWAP1 SLOAD SWAP1 PUSH2 0x100 EXP SWAP1 DIV PUSH20 0xFFFFFFFFFFFFFFFFFFFFFFFFFFFFFFFFFFFFFFFF AND SWAP1 POP DUP2 PUSH1 0x0 DUP1 PUSH2 0x100 EXP DUP2 SLOAD DUP2 PUSH20 0xFFFFFFFFFFFFFFFFFFFFFFFFFFFFFFFFFFFFFFFF MUL NOT AND SWAP1 DUP4 PUSH20 0xFFFFFFFFFFFFFFFFFFFFFFFFFFFFFFFFFFFFFFFF AND MUL OR SWAP1 SSTORE POP DUP2 PUSH20 0xFFFFFFFFFFFFFFFFFFFFFFFFFFFFFFFFFFFFFFFF AND DUP2 PUSH20 0xFFFFFFFFFFFFFFFFFFFFFFFFFFFFFFFFFFFFFFFF AND PUSH32 0x8BE0079C531659141344CD1FD0A4F28419497F9722A3DAAFE3B4186F6B6457E0 PUSH1 0x40 MLOAD PUSH1 0x40 MLOAD DUP1 SWAP2 SUB SWAP1 LOG3 POP POP JUMP JUMPDEST PUSH2 0x32C8 DUP1 PUSH3 0x114 PUSH1 0x0 CODECOPY PUSH1 0x0 RETURN INVALID PUSH1 0x80 PUSH1 0x40 MSTORE CALLVALUE DUP1 ISZERO PUSH2 0x10 JUMPI PUSH1 0x0 DUP1 REVERT JUMPDEST POP PUSH1 0x4 CALLDATASIZE LT PUSH2 0xB4 JUMPI PUSH1 0x0 CALLDATALOAD PUSH1 0xE0 SHR DUP1 PUSH4 0x8DA5CB5B GT PUSH2 0x71 JUMPI DUP1 PUSH4 0x8DA5CB5B EQ PUSH2 0x169 JUMPI DUP1 PUSH4 0xBC4D1141 EQ PUSH2 0x187 JUMPI DUP1 PUSH4 0xC0D01989 EQ PUSH2 0x1A3 JUMPI DUP1 PUSH4 0xCA5140C9 EQ PUSH2 0x1BF JUMPI DUP1 PUSH4 0xF2FDE38B EQ PUSH2 0x1DB JUMPI DUP1 PUSH4 0xFB011944 EQ PUSH2 0x1F7 JUMPI PUSH2 0xB4 JUMP JUMPDEST DUP1 PUSH4 0x18DFBA68 EQ PUSH2 0xB9 JUMPI DUP1 PUSH4 0x715018A6 EQ PUSH2 0xD7 JUMPI DUP1 PUSH4 0x7705EFF3 EQ PUSH2 0xE1 JUMPI DUP1 PUSH4 0x77D970BA EQ PUSH2 0x111 JUMPI DUP1 PUSH4 0x7E490A9E EQ PUSH2 0x12F JUMPI DUP1 PUSH4 0x82176436 EQ PUSH2 0x14B JUMPI JUMPDEST PUSH1 0x0 DUP1 REVERT JUMPDEST PUSH2 0xC1 PUSH2 0x22A JUMP JUMPDEST PUSH1 0x40 MLOAD PUSH2 0xCE SWAP2 SWAP1 PUSH2 0x2B93 JUMP JUMPDEST PUSH1 0x40 MLOAD DUP1 SWAP2 SUB SWAP1 RETURN JUMPDEST PUSH2 0xDF PUSH2 0x8BB JUMP JUMPDEST STOP JUMPDEST PUSH2 0xFB PUSH1 0x4 DUP1 CALLDATASIZE SUB DUP2 ADD SWAP1 PUSH2 0xF6 SWAP2 SWAP1 PUSH2 0x27EA JUMP JUMPDEST PUSH2 0x943 JUMP JUMPDEST PUSH1 0x40 MLOAD PUSH2 0x108 SWAP2 SWAP1 PUSH2 0x2B71 JUMP JUMPDEST PUSH1 0x40 MLOAD DUP1 SWAP2 SUB SWAP1 RETURN JUMPDEST PUSH2 0x119 PUSH2 0xC3E JUMP JUMPDEST PUSH1 0x40 MLOAD PUSH2 0x126 SWAP2 SWAP1 PUSH2 0x2D48 JUMP JUMPDEST PUSH1 0x40 MLOAD DUP1 SWAP2 SUB SWAP1 RETURN JUMPDEST PUSH2 0x149 PUSH1 0x4 DUP1 CALLDATASIZE SUB DUP2 ADD SWAP1 PUSH2 0x144 SWAP2 SWAP1 PUSH2 0x27EA JUMP JUMPDEST PUSH2 0xC44 JUMP JUMPDEST STOP JUMPDEST PUSH2 0x153 PUSH2 0x1236 JUMP JUMPDEST PUSH1 0x40 MLOAD PUSH2 0x160 SWAP2 SWAP1 PUSH2 0x2B71 JUMP JUMPDEST PUSH1 0x40 MLOAD DUP1 SWAP2 SUB SWAP1 RETURN JUMPDEST PUSH2 0x171 PUSH2 0x1348 JUMP JUMPDEST PUSH1 0x40 MLOAD PUSH2 0x17E SWAP2 SWAP1 PUSH2 0x2B56 JUMP JUMPDEST PUSH1 0x40 MLOAD DUP1 SWAP2 SUB SWAP1 RETURN JUMPDEST PUSH2 0x1A1 PUSH1 0x4 DUP1 CALLDATASIZE SUB DUP2 ADD SWAP1 PUSH2 0x19C SWAP2 SWAP1 PUSH2 0x276B JUMP JUMPDEST PUSH2 0x1371 JUMP JUMPDEST STOP JUMPDEST PUSH2 0x1BD PUSH1 0x4 DUP1 CALLDATASIZE SUB DUP2 ADD SWAP1 PUSH2 0x1B8 SWAP2 SWAP1 PUSH2 0x2813 JUMP JUMPDEST PUSH2 0x1B20 JUMP JUMPDEST STOP JUMPDEST PUSH2 0x1D9 PUSH1 0x4 DUP1 CALLDATASIZE SUB DUP2 ADD SWAP1 PUSH2 0x1D4 SWAP2 SWAP1 PUSH2 0x27EA JUMP JUMPDEST PUSH2 0x1F70 JUMP JUMPDEST STOP JUMPDEST PUSH2 0x1F5 PUSH1 0x4 DUP1 CALLDATASIZE SUB DUP2 ADD SWAP1 PUSH2 0x1F0 SWAP2 SWAP1 PUSH2 0x2742 JUMP JUMPDEST PUSH2 0x2306 JUMP JUMPDEST STOP JUMPDEST PUSH2 0x211 PUSH1 0x4 DUP1 CALLDATASIZE SUB DUP2 ADD SWAP1 PUSH2 0x20C SWAP2 SWAP1 PUSH2 0x27EA JUMP JUMPDEST PUSH2 0x23FE JUMP JUMPDEST PUSH1 0x40 MLOAD PUSH2 0x221 SWAP5 SWAP4 SWAP3 SWAP2 SWAP1 PUSH2 0x2BB5 JUMP JUMPDEST PUSH1 0x40 MLOAD DUP1 SWAP2 SUB SWAP1 RETURN JUMPDEST PUSH1 0x60 PUSH2 0x258 PUSH32 0x79672D9AD88ED4CAD14BC1315915FD44AB3703B6E4A7AD20DF91DC010FA07402 PUSH1 0x0 SHL PUSH2 0x253E JUMP JUMPDEST PUSH2 0x284 PUSH32 0xD6DCEAEFEC64084E55AF4067219625E37840B96712A461FC18D0FCB1B7931279 PUSH1 0x0 SHL PUSH2 0x253E JUMP JUMPDEST PUSH2 0x2B0 PUSH32 0xA9C83DC31E97F4B719D49A7994D318EA4C43CEAFE3429FAF3DC910A3053A0256 PUSH1 0x0 SHL PUSH2 0x253E JUMP JUMPDEST PUSH1 0x0 PUSH2 0x2DE PUSH32 0xB8970E5C8B257CFA2E5CCBB1CF4FDEC50062E699FC97DFEA6A9CCB4B6E1305CD PUSH1 0x0 SHL PUSH2 0x253E JUMP JUMPDEST PUSH2 0x30A PUSH32 0xE7EA29860C52F8CF2CDF4D71CF37CF562B95813EF11B49508235230252262890 PUSH1 0x0 SHL PUSH2 0x253E JUMP JUMPDEST PUSH1 0x0 PUSH1 0x1 SWAP1 POP JUMPDEST PUSH1 0x1 SLOAD DUP2 GT PUSH2 0x4A3 JUMPI PUSH2 0x346 PUSH32 0xB132C1EEEBFF6DF5461F2395A5700B08BC463181709B04EACAF5A1901AC08E35 PUSH1 0x0 SHL PUSH2 0x253E JUMP JUMPDEST PUSH2 0x372 PUSH32 0x9C4174B9E4760AA3D4B0F31736360E5D7FF3B02B1EBB23BDFADC1076D1767F75 PUSH1 0x0 SHL PUSH2 0x253E JUMP JUMPDEST PUSH1 0xA PUSH1 0x0 CALLER PUSH20 0xFFFFFFFFFFFFFFFFFFFFFFFFFFFFFFFFFFFFFFFF AND PUSH20 0xFFFFFFFFFFFFFFFFFFFFFFFFFFFFFFFFFFFFFFFF AND DUP2 MSTORE PUSH1 0x20 ADD SWAP1 DUP2 MSTORE PUSH1 0x20 ADD PUSH1 0x0 KECCAK256 PUSH1 0x0 DUP3 DUP2 MSTORE PUSH1 0x20 ADD SWAP1 DUP2 MSTORE PUSH1 0x20 ADD PUSH1 0x0 KECCAK256 PUSH1 0x0 SWAP1 SLOAD SWAP1 PUSH2 0x100 EXP SWAP1 DIV PUSH1 0xFF AND ISZERO DUP1 ISZERO PUSH2 0x3F3 JUMPI POP PUSH1 0x0 PUSH1 0x9 PUSH1 0x0 DUP4 DUP2 MSTORE PUSH1 0x20 ADD SWAP1 DUP2 MSTORE PUSH1 0x20 ADD PUSH1 0x0 KECCAK256 PUSH1 0x2 ADD SLOAD GT JUMPDEST ISZERO PUSH2 0x463 JUMPI PUSH2 0x424 PUSH32 0xB376D7BDE2509AFB40CD747D64FDA2F616603744F5434916A7564E0B8D4B214C PUSH1 0x0 SHL PUSH2 0x253E JUMP JUMPDEST PUSH2 0x450 PUSH32 0x9194EAECCC2333B73543C95DB19F95F213FED7B5F1CA8A37FA96711035A9EAA0 PUSH1 0x0 SHL PUSH2 0x253E JUMP JUMPDEST DUP2 DUP1 PUSH2 0x45B SWAP1 PUSH2 0x2FBD JUMP JUMPDEST SWAP3 POP POP PUSH2 0x490 JUMP JUMPDEST PUSH2 0x48F PUSH32 0xFEA3C8ECEB3B4310EDDF8C4EFA91A21B71C42781A6CF79D2480D77C85D53F928 PUSH1 0x0 SHL PUSH2 0x253E JUMP JUMPDEST JUMPDEST DUP1 DUP1 PUSH2 0x49B SWAP1 PUSH2 0x2FBD JUMP JUMPDEST SWAP2 POP POP PUSH2 0x311 JUMP JUMPDEST POP PUSH2 0x4D0 PUSH32 0x25D71A58E12051E1E9F58E7F301EB4E144C129DBC31E0FE28A9957A271231A06 PUSH1 0x0 SHL PUSH2 0x253E JUMP JUMPDEST PUSH2 0x4FC PUSH32 0xC1488A6931363DD352E3C84DB9BBDBEB6D2C8CB5F507A12086A6E947A4FBBDA2 PUSH1 0x0 SHL PUSH2 0x253E JUMP JUMPDEST PUSH1 0x0 DUP2 PUSH8 0xFFFFFFFFFFFFFFFF DUP2 GT ISZERO PUSH2 0x53E JUMPI PUSH32 0x4E487B7100000000000000000000000000000000000000000000000000000000 PUSH1 0x0 MSTORE PUSH1 0x41 PUSH1 0x4 MSTORE PUSH1 0x24 PUSH1 0x0 REVERT JUMPDEST PUSH1 0x40 MLOAD SWAP1 DUP1 DUP3 MSTORE DUP1 PUSH1 0x20 MUL PUSH1 0x20 ADD DUP3 ADD PUSH1 0x40 MSTORE DUP1 ISZERO PUSH2 0x56C JUMPI DUP2 PUSH1 0x20 ADD PUSH1 0x20 DUP3 MUL DUP1 CALLDATASIZE DUP4 CALLDATACOPY DUP1 DUP3 ADD SWAP2 POP POP SWAP1 POP JUMPDEST POP SWAP1 POP PUSH2 0x59B PUSH32 0xB3D28633361114BC18611E09C666E73D64F63C461C14CFBA0F923228D2AFBB3B PUSH1 0x0 SHL PUSH2 0x253E JUMP JUMPDEST PUSH2 0x5C7 PUSH32 0x68E611BE37DD616A9A1C93A8A278736E26EFF1D206BF51AF08568F91E809206D PUSH1 0x0 SHL PUSH2 0x253E JUMP JUMPDEST PUSH1 0x0 SWAP2 POP PUSH2 0x5F7 PUSH32 0x5BA6ABE23A11CCF7E97B996506D437CD7A8BF9AFE2B07988D9C37C246449E5D PUSH1 0x0 SHL PUSH2 0x253E JUMP JUMPDEST PUSH2 0x623 PUSH32 0x2CDC0ECD452C270AEB474760EABE3D2B09C87D46279751F122A85E305D12259C PUSH1 0x0 SHL PUSH2 0x253E JUMP JUMPDEST PUSH1 0x0 PUSH1 0x1 SWAP1 POP JUMPDEST PUSH1 0x1 SLOAD DUP2 GT PUSH2 0x85A JUMPI PUSH2 0x65F PUSH32 0x6E963E3BCDE0A2B494C96A0C61C533CDD7ED7BA08A49BDF41E44CB79F99339D5 PUSH1 0x0 SHL PUSH2 0x253E JUMP JUMPDEST PUSH2 0x68B PUSH32 0xBD5C861C8BB74833C7731F1013B14B8AD89CE86899129280B7B921894BCD456D PUSH1 0x0 SHL PUSH2 0x253E JUMP JUMPDEST PUSH1 0xA PUSH1 0x0 CALLER PUSH20 0xFFFFFFFFFFFFFFFFFFFFFFFFFFFFFFFFFFFFFFFF AND PUSH20 0xFFFFFFFFFFFFFFFFFFFFFFFFFFFFFFFFFFFFFFFF AND DUP2 MSTORE PUSH1 0x20 ADD SWAP1 DUP2 MSTORE PUSH1 0x20 ADD PUSH1 0x0 KECCAK256 PUSH1 0x0 DUP3 DUP2 MSTORE PUSH1 0x20 ADD SWAP1 DUP2 MSTORE PUSH1 0x20 ADD PUSH1 0x0 KECCAK256 PUSH1 0x0 SWAP1 SLOAD SWAP1 PUSH2 0x100 EXP SWAP1 DIV PUSH1 0xFF AND ISZERO DUP1 ISZERO PUSH2 0x70C JUMPI POP PUSH1 0x0 PUSH1 0x9 PUSH1 0x0 DUP4 DUP2 MSTORE PUSH1 0x20 ADD SWAP1 DUP2 MSTORE PUSH1 0x20 ADD PUSH1 0x0 KECCAK256 PUSH1 0x2 ADD SLOAD GT JUMPDEST ISZERO PUSH2 0x81A JUMPI PUSH2 0x73D PUSH32 0xB65FC9DE6E7F77D98F029074801F1960BA01BF92021B08699D5AF2420A49AACE PUSH1 0x0 SHL PUSH2 0x253E JUMP JUMPDEST PUSH2 0x769 PUSH32 0x25D72B403E9CD582C78E7555A74B0CFFF07BC0E03722064FE5BE9EA58D621DEE PUSH1 0x0 SHL PUSH2 0x253E JUMP JUMPDEST PUSH2 0x795 PUSH32 0xC684F5B70D9E7D6A7C136092DE2DBB99044E6372C807C91A7F1E41D8AF507D68 PUSH1 0x0 SHL PUSH2 0x253E JUMP JUMPDEST DUP1 DUP3 DUP5 DUP2 MLOAD DUP2 LT PUSH2 0x7CF JUMPI PUSH32 0x4E487B7100000000000000000000000000000000000000000000000000000000 PUSH1 0x0 MSTORE PUSH1 0x32 PUSH1 0x4 MSTORE PUSH1 0x24 PUSH1 0x0 REVERT JUMPDEST PUSH1 0x20 MUL PUSH1 0x20 ADD ADD DUP2 DUP2 MSTORE POP POP PUSH2 0x807 PUSH32 0xDE8321DA7D36D5AA3141919D1272CF91C339A8879A908E0EEAB5C741EB59634D PUSH1 0x0 SHL PUSH2 0x253E JUMP JUMPDEST DUP3 DUP1 PUSH2 0x812 SWAP1 PUSH2 0x2FBD JUMP JUMPDEST SWAP4 POP POP PUSH2 0x847 JUMP JUMPDEST PUSH2 0x846 PUSH32 0x6101549220550580BB866C87875BC33438DAAB4B2D4D48F8B9656E3781536B71 PUSH1 0x0 SHL PUSH2 0x253E JUMP JUMPDEST JUMPDEST DUP1 DUP1 PUSH2 0x852 SWAP1 PUSH2 0x2FBD JUMP JUMPDEST SWAP2 POP POP PUSH2 0x62A JUMP JUMPDEST POP PUSH2 0x887 PUSH32 0xA77D6B48E14799F44586C6722C46A3A052DFDB99BF046DF5D58156D3EFADB7A6 PUSH1 0x0 SHL PUSH2 0x253E JUMP JUMPDEST PUSH2 0x8B3 PUSH32 0x60B67C7CF2D66B8957CD0A649722CBC310F6B9139E239F63C622B01ECF8A299D PUSH1 0x0 SHL PUSH2 0x253E JUMP JUMPDEST DUP1 SWAP3 POP POP POP SWAP1 JUMP JUMPDEST PUSH2 0x8C3 PUSH2 0x2541 JUMP JUMPDEST PUSH20 0xFFFFFFFFFFFFFFFFFFFFFFFFFFFFFFFFFFFFFFFF AND PUSH2 0x8E1 PUSH2 0x1348 JUMP JUMPDEST PUSH20 0xFFFFFFFFFFFFFFFFFFFFFFFFFFFFFFFFFFFFFFFF AND EQ PUSH2 0x937 JUMPI PUSH1 0x40 MLOAD PUSH32 0x8C379A000000000000000000000000000000000000000000000000000000000 DUP2 MSTORE PUSH1 0x4 ADD PUSH2 0x92E SWAP1 PUSH2 0x2CC8 JUMP JUMPDEST PUSH1 0x40 MLOAD DUP1 SWAP2 SUB SWAP1 REVERT JUMPDEST PUSH2 0x941 PUSH1 0x0 PUSH2 0x2549 JUMP JUMPDEST JUMP JUMPDEST PUSH1 0x60 PUSH2 0x971 PUSH32 0x99B025B81D691943BC13C75C1713F426A6782093B9D2C87EED408086D027E089 PUSH1 0x0 SHL PUSH2 0x253E JUMP JUMPDEST PUSH2 0x99D PUSH32 0xED92C1907B1C116B5097593AF1F80C316E4356FF0F846A0A793D7C85E2D2C5FA PUSH1 0x0 SHL PUSH2 0x253E JUMP JUMPDEST PUSH2 0x9C9 PUSH32 0x2B836458945C76B34BFF0EAA304EF3BF7F84A65B6E5065368575E48752256A2B PUSH1 0x0 SHL PUSH2 0x253E JUMP JUMPDEST PUSH1 0x0 PUSH1 0x9 PUSH1 0x0 DUP5 DUP2 MSTORE PUSH1 0x20 ADD SWAP1 DUP2 MSTORE PUSH1 0x20 ADD PUSH1 0x0 KECCAK256 PUSH1 0x3 ADD SLOAD PUSH8 0xFFFFFFFFFFFFFFFF DUP2 GT ISZERO PUSH2 0xA21 JUMPI PUSH32 0x4E487B7100000000000000000000000000000000000000000000000000000000 PUSH1 0x0 MSTORE PUSH1 0x41 PUSH1 0x4 MSTORE PUSH1 0x24 PUSH1 0x0 REVERT JUMPDEST PUSH1 0x40 MLOAD SWAP1 DUP1 DUP3 MSTORE DUP1 PUSH1 0x20 MUL PUSH1 0x20 ADD DUP3 ADD PUSH1 0x40 MSTORE DUP1 ISZERO PUSH2 0xA4F JUMPI DUP2 PUSH1 0x20 ADD PUSH1 0x20 DUP3 MUL DUP1 CALLDATASIZE DUP4 CALLDATACOPY DUP1 DUP3 ADD SWAP2 POP POP SWAP1 POP JUMPDEST POP SWAP1 POP PUSH2 0xA7E PUSH32 0xFFC0DD48D93D34849651D4402DC07BFF589128C7AC47DBFFC6DEF203C3977BCE PUSH1 0x0 SHL PUSH2 0x253E JUMP JUMPDEST PUSH2 0xAAA PUSH32 0xF6E04B316BA84CCB2F7C22DD2DFC46D40E20039168EA83D18DCBB5EDAB5C8AAA PUSH1 0x0 SHL PUSH2 0x253E JUMP JUMPDEST PUSH1 0x0 JUMPDEST DUP2 MLOAD DUP2 LT ISZERO PUSH2 0xBDC JUMPI PUSH2 0xAE2 PUSH32 0x83D0CD9B18D5EC944CFC6D5A30C451D219F4E7F283BA275B7D53754777CC3A54 PUSH1 0x0 SHL PUSH2 0x253E JUMP JUMPDEST PUSH2 0xB0E PUSH32 0x76C1EF9155D1A3EC8ED4567868D0B31E65B8228D3EBA03AC441082C6EF2C4D56 PUSH1 0x0 SHL PUSH2 0x253E JUMP JUMPDEST PUSH1 0x9 PUSH1 0x0 DUP6 DUP2 MSTORE PUSH1 0x20 ADD SWAP1 DUP2 MSTORE PUSH1 0x20 ADD PUSH1 0x0 KECCAK256 PUSH1 0x4 ADD PUSH1 0x0 DUP3 DUP2 MSTORE PUSH1 0x20 ADD SWAP1 DUP2 MSTORE PUSH1 0x20 ADD PUSH1 0x0 KECCAK256 PUSH1 0x0 SWAP1 SLOAD SWAP1 PUSH2 0x100 EXP SWAP1 DIV PUSH20 0xFFFFFFFFFFFFFFFFFFFFFFFFFFFFFFFFFFFFFFFF AND DUP3 DUP3 DUP2 MLOAD DUP2 LT PUSH2 0xB8F JUMPI PUSH32 0x4E487B7100000000000000000000000000000000000000000000000000000000 PUSH1 0x0 MSTORE PUSH1 0x32 PUSH1 0x4 MSTORE PUSH1 0x24 PUSH1 0x0 REVERT JUMPDEST PUSH1 0x20 MUL PUSH1 0x20 ADD ADD SWAP1 PUSH20 0xFFFFFFFFFFFFFFFFFFFFFFFFFFFFFFFFFFFFFFFF AND SWAP1 DUP2 PUSH20 0xFFFFFFFFFFFFFFFFFFFFFFFFFFFFFFFFFFFFFFFF AND DUP2 MSTORE POP POP DUP1 DUP1 PUSH2 0xBD4 SWAP1 PUSH2 0x2FBD JUMP JUMPDEST SWAP2 POP POP PUSH2 0xAAD JUMP JUMPDEST POP PUSH2 0xC09 PUSH32 0x20A8AF2D3C7CA2EE418BD0A6D2ECB0ED64B7BA9597F970CC9D966DDFCFF8A8F6 PUSH1 0x0 SHL PUSH2 0x253E JUMP JUMPDEST PUSH2 0xC35 PUSH32 0x3E04B28CF25BC993BCE56B742B6678A18878C2A3C364E63AC4DA82C9D1EDE986 PUSH1 0x0 SHL PUSH2 0x253E JUMP JUMPDEST DUP1 SWAP2 POP POP SWAP2 SWAP1 POP JUMP JUMPDEST PUSH1 0x1 SLOAD DUP2 JUMP JUMPDEST PUSH2 0xC70 PUSH32 0x86113075A4411180E5987997BFDFCBE67156CC57883295AC87EA6B1DF8980414 PUSH1 0x0 SHL PUSH2 0x253E JUMP JUMPDEST PUSH2 0xC9C PUSH32 0xCAC7B43111EE3D7774D77EF93EF84BA6A3794D295205D8DC389C405F99974D22 PUSH1 0x0 SHL PUSH2 0x253E JUMP JUMPDEST PUSH2 0xCC8 PUSH32 0x698198A7FAEFA9850455CF22A5FCCB558B9A96179F843F7F89EEF89F5496573B PUSH1 0x0 SHL PUSH2 0x253E JUMP JUMPDEST PUSH2 0xCF4 PUSH32 0x72B000E90585C7297D8313DB0613037957428BF5A26CA0C21065AC25B2EF342E PUSH1 0x0 SHL PUSH2 0x253E JUMP JUMPDEST PUSH1 0xA PUSH1 0x0 CALLER PUSH20 0xFFFFFFFFFFFFFFFFFFFFFFFFFFFFFFFFFFFFFFFF AND PUSH20 0xFFFFFFFFFFFFFFFFFFFFFFFFFFFFFFFFFFFFFFFF AND DUP2 MSTORE PUSH1 0x20 ADD SWAP1 DUP2 MSTORE PUSH1 0x20 ADD PUSH1 0x0 KECCAK256 PUSH1 0x0 DUP3 DUP2 MSTORE PUSH1 0x20 ADD SWAP1 DUP2 MSTORE PUSH1 0x20 ADD PUSH1 0x0 KECCAK256 PUSH1 0x0 SWAP1 SLOAD SWAP1 PUSH2 0x100 EXP SWAP1 DIV PUSH1 0xFF AND ISZERO PUSH2 0xD92 JUMPI PUSH1 0x40 MLOAD PUSH32 0x8C379A000000000000000000000000000000000000000000000000000000000 DUP2 MSTORE PUSH1 0x4 ADD PUSH2 0xD89 SWAP1 PUSH2 0x2C48 JUMP JUMPDEST PUSH1 0x40 MLOAD DUP1 SWAP2 SUB SWAP1 REVERT JUMPDEST PUSH2 0xDBE PUSH32 0x86DAC48BCC4DA980D1CCFB717EB349FDF739F3062F9BEEBFB24C9E7367F31D39 PUSH1 0x0 SHL PUSH2 0x253E JUMP JUMPDEST PUSH2 0xDEA PUSH32 0xA1461944443462D3011AF774A5050DC720766E92D349B22CF3C0130BFB61C480 PUSH1 0x0 SHL PUSH2 0x253E JUMP JUMPDEST PUSH2 0xE16 PUSH32 0xF6B496667460A4666398DA0196531DCB9AAC809CF3F342413B272D3DBC51DD0B PUSH1 0x0 SHL PUSH2 0x253E JUMP JUMPDEST PUSH1 0x0 PUSH1 0x9 PUSH1 0x0 DUP4 DUP2 MSTORE PUSH1 0x20 ADD SWAP1 DUP2 MSTORE PUSH1 0x20 ADD PUSH1 0x0 KECCAK256 SWAP1 POP PUSH2 0xE59 PUSH32 0xF934807EE18211DCFC61F6CC3DC347A16736BACA25D23B723ADEFB2BF097C7E1 PUSH1 0x0 SHL PUSH2 0x253E JUMP JUMPDEST PUSH2 0xE85 PUSH32 0x43C1AE19988992C9A1158B8B7CDB20074D6D6E0359F761DAED7786DF17EE407C PUSH1 0x0 SHL PUSH2 0x253E JUMP JUMPDEST PUSH2 0xEB1 PUSH32 0x4A28B064A7F8C1430F6847FE788212D481E770F21C6CA842FAF9750312272168 PUSH1 0x0 SHL PUSH2 0x253E JUMP JUMPDEST PUSH1 0x0 DUP2 PUSH1 0x2 ADD SLOAD GT PUSH2 0xEF8 JUMPI PUSH1 0x40 MLOAD PUSH32 0x8C379A000000000000000000000000000000000000000000000000000000000 DUP2 MSTORE PUSH1 0x4 ADD PUSH2 0xEEF SWAP1 PUSH2 0x2C68 JUMP JUMPDEST PUSH1 0x40 MLOAD DUP1 SWAP2 SUB SWAP1 REVERT JUMPDEST PUSH2 0xF24 PUSH32 0xCDF506F7E0CDBDAB350013F6CD4C7A390940A34BEB3A0C2D8875AD5B6C69F40 PUSH1 0x0 SHL PUSH2 0x253E JUMP JUMPDEST PUSH2 0xF50 PUSH32 0x92B15852115D1E544D9993739BFE019C7CE1940D6654452E95D513FB3382D56E PUSH1 0x0 SHL PUSH2 0x253E JUMP JUMPDEST PUSH2 0xF7C PUSH32 0xFD939DCC4CAAB5826B83481323AB11603F614821127E9F0902650AE30FA559DF PUSH1 0x0 SHL PUSH2 0x253E JUMP JUMPDEST PUSH1 0x1 DUP2 PUSH1 0x2 ADD SLOAD PUSH2 0xF8D SWAP2 SWAP1 PUSH2 0x2EA8 JUMP JUMPDEST DUP2 PUSH1 0x2 ADD DUP2 SWAP1 SSTORE POP PUSH2 0xFC1 PUSH32 0x3145A05E5E1FF7C55F4578D2F99D7ABA368CA2FF9000E35916AB60C387F01BD PUSH1 0x0 SHL PUSH2 0x253E JUMP JUMPDEST PUSH2 0xFED PUSH32 0x508E579AEFBFEB9907C74F849C70A59FF3329011D4AFE28E1CADB164E8E8EC73 PUSH1 0x0 SHL PUSH2 0x253E JUMP JUMPDEST PUSH1 0x1 PUSH1 0xA PUSH1 0x0 CALLER PUSH20 0xFFFFFFFFFFFFFFFFFFFFFFFFFFFFFFFFFFFFFFFF AND PUSH20 0xFFFFFFFFFFFFFFFFFFFFFFFFFFFFFFFFFFFFFFFF AND DUP2 MSTORE PUSH1 0x20 ADD SWAP1 DUP2 MSTORE PUSH1 0x20 ADD PUSH1 0x0 KECCAK256 PUSH1 0x0 DUP5 DUP2 MSTORE PUSH1 0x20 ADD SWAP1 DUP2 MSTORE PUSH1 0x20 ADD PUSH1 0x0 KECCAK256 PUSH1 0x0 PUSH2 0x100 EXP DUP2 SLOAD DUP2 PUSH1 0xFF MUL NOT AND SWAP1 DUP4 ISZERO ISZERO MUL OR SWAP1 SSTORE POP PUSH2 0x1082 PUSH32 0x678B511AF491CC94784B85BFF0F0F7CB599C5A33F41DC885A33CFBAF74678ED4 PUSH1 0x0 SHL PUSH2 0x253E JUMP JUMPDEST PUSH2 0x10AE PUSH32 0xADAAE61BBB3FB8F2C43D565763B59A1578583AD1EBBC2F0873BF46D4D88E32C4 PUSH1 0x0 SHL PUSH2 0x253E JUMP JUMPDEST CALLER DUP2 PUSH1 0x4 ADD PUSH1 0x0 DUP4 PUSH1 0x3 ADD SLOAD DUP2 MSTORE PUSH1 0x20 ADD SWAP1 DUP2 MSTORE PUSH1 0x20 ADD PUSH1 0x0 KECCAK256 PUSH1 0x0 PUSH2 0x100 EXP DUP2 SLOAD DUP2 PUSH20 0xFFFFFFFFFFFFFFFFFFFFFFFFFFFFFFFFFFFFFFFF MUL NOT AND SWAP1 DUP4 PUSH20 0xFFFFFFFFFFFFFFFFFFFFFFFFFFFFFFFFFFFFFFFF AND MUL OR SWAP1 SSTORE POP PUSH2 0x1132 PUSH32 0x3A29D0F3B892D5C38E74279AF050CFE3BB2E5F0B02D432200D2F889CEDF98332 PUSH1 0x0 SHL PUSH2 0x253E JUMP JUMPDEST PUSH2 0x115E PUSH32 0x12524D398E1C91BDDD862B0BBC8048D09ECF1D0255DC095493698966A3B69150 PUSH1 0x0 SHL PUSH2 0x253E JUMP JUMPDEST PUSH1 0x1 DUP2 PUSH1 0x3 ADD SLOAD PUSH2 0x116F SWAP2 SWAP1 PUSH2 0x2E52 JUMP JUMPDEST DUP2 PUSH1 0x3 ADD DUP2 SWAP1 SSTORE POP PUSH2 0x11A3 PUSH32 0xC74F310E2F39E3C96C6CDA951DAD8500AF5DA1EA16D0FF088C2D0BF2F381A232 PUSH1 0x0 SHL PUSH2 0x253E JUMP JUMPDEST PUSH2 0x11CF PUSH32 0x9044DC90270241035736152D916224CD1BA1AA81CBF711E3128764BEEF06FEE4 PUSH1 0x0 SHL PUSH2 0x253E JUMP JUMPDEST PUSH1 0x2 CALLER SWAP1 DUP1 PUSH1 0x1 DUP2 SLOAD ADD DUP1 DUP3 SSTORE DUP1 SWAP2 POP POP PUSH1 0x1 SWAP1 SUB SWAP1 PUSH1 0x0 MSTORE PUSH1 0x20 PUSH1 0x0 KECCAK256 ADD PUSH1 0x0 SWAP1 SWAP2 SWAP1 SWAP2 SWAP1 SWAP2 PUSH2 0x100 EXP DUP2 SLOAD DUP2 PUSH20 0xFFFFFFFFFFFFFFFFFFFFFFFFFFFFFFFFFFFFFFFF MUL NOT AND SWAP1 DUP4 PUSH20 0xFFFFFFFFFFFFFFFFFFFFFFFFFFFFFFFFFFFFFFFF AND MUL OR SWAP1 SSTORE POP POP POP JUMP JUMPDEST PUSH1 0x60 PUSH2 0x1264 PUSH32 0x8598A9FFAD5F41C926C503BAB3ACC6EC435D7D0A769C89806B4D4FA3C5315639 PUSH1 0x0 SHL PUSH2 0x253E JUMP JUMPDEST PUSH2 0x1290 PUSH32 0x74954D43CFDB4E2FA2D0999176F1EFAF781D25421DF801F79A0F574B55088A1A PUSH1 0x0 SHL PUSH2 0x253E JUMP JUMPDEST PUSH2 0x12BC PUSH32 0x839088359DE9590174510E1B16C8A80B7768B6B71CD6301C17ABAE3226E7361B PUSH1 0x0 SHL PUSH2 0x253E JUMP JUMPDEST PUSH1 0x2 DUP1 SLOAD DUP1 PUSH1 0x20 MUL PUSH1 0x20 ADD PUSH1 0x40 MLOAD SWAP1 DUP2 ADD PUSH1 0x40 MSTORE DUP1 SWAP3 SWAP2 SWAP1 DUP2 DUP2 MSTORE PUSH1 0x20 ADD DUP3 DUP1 SLOAD DUP1 ISZERO PUSH2 0x133E JUMPI PUSH1 0x20 MUL DUP3 ADD SWAP2 SWAP1 PUSH1 0x0 MSTORE PUSH1 0x20 PUSH1 0x0 KECCAK256 SWAP1 JUMPDEST DUP2 PUSH1 0x0 SWAP1 SLOAD SWAP1 PUSH2 0x100 EXP SWAP1 DIV PUSH20 0xFFFFFFFFFFFFFFFFFFFFFFFFFFFFFFFFFFFFFFFF AND PUSH20 0xFFFFFFFFFFFFFFFFFFFFFFFFFFFFFFFFFFFFFFFF AND DUP2 MSTORE PUSH1 0x20 ADD SWAP1 PUSH1 0x1 ADD SWAP1 DUP1 DUP4 GT PUSH2 0x12F4 JUMPI JUMPDEST POP POP POP POP POP SWAP1 POP SWAP1 JUMP JUMPDEST PUSH1 0x0 DUP1 PUSH1 0x0 SWAP1 SLOAD SWAP1 PUSH2 0x100 EXP SWAP1 DIV PUSH20 0xFFFFFFFFFFFFFFFFFFFFFFFFFFFFFFFFFFFFFFFF AND SWAP1 POP SWAP1 JUMP JUMPDEST PUSH2 0x1379 PUSH2 0x2541 JUMP JUMPDEST PUSH20 0xFFFFFFFFFFFFFFFFFFFFFFFFFFFFFFFFFFFFFFFF AND PUSH2 0x1397 PUSH2 0x1348 JUMP JUMPDEST PUSH20 0xFFFFFFFFFFFFFFFFFFFFFFFFFFFFFFFFFFFFFFFF AND EQ PUSH2 0x13ED JUMPI PUSH1 0x40 MLOAD PUSH32 0x8C379A000000000000000000000000000000000000000000000000000000000 DUP2 MSTORE PUSH1 0x4 ADD PUSH2 0x13E4 SWAP1 PUSH2 0x2CC8 JUMP JUMPDEST PUSH1 0x40 MLOAD DUP1 SWAP2 SUB SWAP1 REVERT JUMPDEST DUP3 PUSH2 0x141A PUSH32 0x5E001AA137D129253F07C7995D805CB7432CDABD608D195FF5E5071905476482 PUSH1 0x0 SHL PUSH2 0x253E JUMP JUMPDEST PUSH2 0x1446 PUSH32 0x9C3B06F28ABE75371D42316C62733C804293CC15288D62A4EFE1C35B17FA9F36 PUSH1 0x0 SHL PUSH2 0x253E JUMP JUMPDEST PUSH2 0x1472 PUSH32 0xB937FC12BC4B15158857C4ACEE69A096A2891450C57418782B3ACA806D280378 PUSH1 0x0 SHL PUSH2 0x253E JUMP JUMPDEST PUSH2 0x149E PUSH32 0x942EF66C34E5936E6884860A2082ACB2BB762DBC64F1FC8599B3803E4A4B74E3 PUSH1 0x0 SHL PUSH2 0x253E JUMP JUMPDEST PUSH1 0x8 DUP2 PUSH1 0x40 MLOAD PUSH2 0x14AE SWAP2 SWAP1 PUSH2 0x2B3F JUMP JUMPDEST SWAP1 DUP2 MSTORE PUSH1 0x20 ADD PUSH1 0x40 MLOAD DUP1 SWAP2 SUB SWAP1 KECCAK256 PUSH1 0x0 SWAP1 SLOAD SWAP1 PUSH2 0x100 EXP SWAP1 DIV PUSH1 0xFF AND ISZERO PUSH2 0x150A JUMPI PUSH1 0x40 MLOAD PUSH32 0x8C379A000000000000000000000000000000000000000000000000000000000 DUP2 MSTORE PUSH1 0x4 ADD PUSH2 0x1501 SWAP1 PUSH2 0x2CA8 JUMP JUMPDEST PUSH1 0x40 MLOAD DUP1 SWAP2 SUB SWAP1 REVERT JUMPDEST PUSH2 0x1536 PUSH32 0x90CE4EC3873F3791983047D4E96C09C2ADC987A6DDC67DE31071B3DEFFC46F4D PUSH1 0x0 SHL PUSH2 0x253E JUMP JUMPDEST PUSH2 0x1562 PUSH32 0x6964B07E93C7DA810D229B2BFCABB37A1F4CAF9AC171AAC6380FFAE0025D748A PUSH1 0x0 SHL PUSH2 0x253E JUMP JUMPDEST PUSH2 0x158E PUSH32 0xE63EDE23B400EBDA3D6B8834F48615CFC60F1576A83A74A986C0AF43CD929F2A PUSH1 0x0 SHL PUSH2 0x253E JUMP JUMPDEST PUSH2 0x15BA PUSH32 0xB986D02FDB1720D9490BE7F27ED5DA94A184A3BE4060DCA9143922463A67BEC1 PUSH1 0x0 SHL PUSH2 0x253E JUMP JUMPDEST PUSH2 0x15E6 PUSH32 0x6670E0060C34ECE0B0D1DEE3284A59B87C31B3FBFF9B8BFC6E718B521D23682C PUSH1 0x0 SHL PUSH2 0x253E JUMP JUMPDEST PUSH2 0x1612 PUSH32 0x386CC9D00D6DD19F9946DAC4F6B27B69D3C1439B065D081FB80065E9DF504AC2 PUSH1 0x0 SHL PUSH2 0x253E JUMP JUMPDEST PUSH1 0x0 DUP5 MLOAD EQ ISZERO PUSH2 0x1657 JUMPI PUSH1 0x40 MLOAD PUSH32 0x8C379A000000000000000000000000000000000000000000000000000000000 DUP2 MSTORE PUSH1 0x4 ADD PUSH2 0x164E SWAP1 PUSH2 0x2D08 JUMP JUMPDEST PUSH1 0x40 MLOAD DUP1 SWAP2 SUB SWAP1 REVERT JUMPDEST PUSH2 0x1683 PUSH32 0xA5E8BB7A0EF16FDB49801F752D1A916AEFD65E4E492D5A8C2A23B02B599904E0 PUSH1 0x0 SHL PUSH2 0x253E JUMP JUMPDEST PUSH2 0x16AF PUSH32 0x8D04B68E23FC89D710A120230C29497C2D9495B819A335D34F1EC8BDD53202F7 PUSH1 0x0 SHL PUSH2 0x253E JUMP JUMPDEST PUSH2 0x16DB PUSH32 0xEB6AF04F0EA3DDB894D7732A59274985811FE286C79EB218ACD199A367E98A3E PUSH1 0x0 SHL PUSH2 0x253E JUMP JUMPDEST PUSH2 0x1707 PUSH32 0xD7381A09AF790AEADE84944B57DAEDC9CF11BDABF17C1E39C3E09360398D4215 PUSH1 0x0 SHL PUSH2 0x253E JUMP JUMPDEST PUSH1 0x0 DUP4 MLOAD EQ ISZERO PUSH2 0x174C JUMPI PUSH1 0x40 MLOAD PUSH32 0x8C379A000000000000000000000000000000000000000000000000000000000 DUP2 MSTORE PUSH1 0x4 ADD PUSH2 0x1743 SWAP1 PUSH2 0x2D08 JUMP JUMPDEST PUSH1 0x40 MLOAD DUP1 SWAP2 SUB SWAP1 REVERT JUMPDEST PUSH2 0x1777 PUSH31 0xDF3FEAAB7F621A00A0CDD02B4CAC195753D262287678D2D68DDC507DA2E132 PUSH1 0x0 SHL PUSH2 0x253E JUMP JUMPDEST PUSH2 0x17A3 PUSH32 0x1188C90F539C3001FE167879BCD037418901B4CE6658F3F423412229F38997F7 PUSH1 0x0 SHL PUSH2 0x253E JUMP JUMPDEST PUSH2 0x17CF PUSH32 0x6A0EAC7BD3D5251C6A56D0B08B1BBC2E8EBCB829E9FC3FC9FDF3B5FC9858BB3D PUSH1 0x0 SHL PUSH2 0x253E JUMP JUMPDEST PUSH2 0x17FB PUSH32 0x590D759CF2800FDB9B13D3C0BF6A72ED20D458273649A69D79A6EE54EA71F296 PUSH1 0x0 SHL PUSH2 0x253E JUMP JUMPDEST PUSH1 0x0 DUP3 GT PUSH2 0x183E JUMPI PUSH1 0x40 MLOAD PUSH32 0x8C379A000000000000000000000000000000000000000000000000000000000 DUP2 MSTORE PUSH1 0x4 ADD PUSH2 0x1835 SWAP1 PUSH2 0x2C88 JUMP JUMPDEST PUSH1 0x40 MLOAD DUP1 SWAP2 SUB SWAP1 REVERT JUMPDEST PUSH2 0x186A PUSH32 0x506671C501770317868DDE58104503A45F064D470CFF5FF863165F1168B4C125 PUSH1 0x0 SHL PUSH2 0x253E JUMP JUMPDEST PUSH2 0x1896 PUSH32 0x3ACEBB45D5A43D2D2900BBC04F81EDAB4416CFB0B27248055B61FE59F4704103 PUSH1 0x0 SHL PUSH2 0x253E JUMP JUMPDEST PUSH2 0x18C2 PUSH32 0x743BE29FE92001DD1E8DAAB32C8B0BF1306DF9AAED2DDA6EE744010DA3090BE0 PUSH1 0x0 SHL PUSH2 0x253E JUMP JUMPDEST PUSH1 0x1 DUP1 SLOAD PUSH2 0x18D0 SWAP2 SWAP1 PUSH2 0x2E52 JUMP JUMPDEST PUSH1 0x1 DUP2 SWAP1 SSTORE POP PUSH2 0x1902 PUSH32 0x3C1BC26DAFBE73555FC1A7A7B9B52CA0B2D4C10D86217A2C9F5C81CE24FF7259 PUSH1 0x0 SHL PUSH2 0x253E JUMP JUMPDEST PUSH2 0x192E PUSH32 0x634286C510357E5EF1348D620ABB188A5B3046FAA242830A2BAED0CFD00AAAF5 PUSH1 0x0 SHL PUSH2 0x253E JUMP JUMPDEST PUSH1 0x1 PUSH1 0x8 DUP6 PUSH1 0x40 MLOAD PUSH2 0x1940 SWAP2 SWAP1 PUSH2 0x2B3F JUMP JUMPDEST SWAP1 DUP2 MSTORE PUSH1 0x20 ADD PUSH1 0x40 MLOAD DUP1 SWAP2 SUB SWAP1 KECCAK256 PUSH1 0x0 PUSH2 0x100 EXP DUP2 SLOAD DUP2 PUSH1 0xFF MUL NOT AND SWAP1 DUP4 ISZERO ISZERO MUL OR SWAP1 SSTORE POP PUSH2 0x1991 PUSH32 0x86DDD065D6DEAE3B31F1806221341DBC6311025956AF5EB7692120EE48B4F28A PUSH1 0x0 SHL PUSH2 0x253E JUMP JUMPDEST PUSH2 0x19BD PUSH32 0xDD759932C551106E862A014DE0F90CA8257685C1808D9D54D7FF13D539B3AEDB PUSH1 0x0 SHL PUSH2 0x253E JUMP JUMPDEST PUSH1 0x0 PUSH1 0x9 PUSH1 0x0 PUSH1 0x1 SLOAD DUP2 MSTORE PUSH1 0x20 ADD SWAP1 DUP2 MSTORE PUSH1 0x20 ADD PUSH1 0x0 KECCAK256 SWAP1 POP PUSH2 0x1A02 PUSH32 0xAD48FB6840AFC131779D74A595EB847B9469694A7EEDA4AAB048B214530FEA0B PUSH1 0x0 SHL PUSH2 0x253E JUMP JUMPDEST PUSH2 0x1A2E PUSH32 0xDFABF6CC2707F19E6D2905C0F45719F39638494C8FF5BF369F12B41BAE02B0F8 PUSH1 0x0 SHL PUSH2 0x253E JUMP JUMPDEST DUP5 DUP2 PUSH1 0x0 ADD SWAP1 DUP1 MLOAD SWAP1 PUSH1 0x20 ADD SWAP1 PUSH2 0x1A46 SWAP3 SWAP2 SWAP1 PUSH2 0x260D JUMP JUMPDEST POP PUSH2 0x1A73 PUSH32 0x3B0BE60E01BE3591E31518582B456889B550E896B752F0193C91FB8F9AC9E720 PUSH1 0x0 SHL PUSH2 0x253E JUMP JUMPDEST PUSH2 0x1A9F PUSH32 0x2B62BA64EB51074578B71D9F8B2FBD9CB61E8219B6BF8DFBA8000A2515372D3C PUSH1 0x0 SHL PUSH2 0x253E JUMP JUMPDEST DUP4 DUP2 PUSH1 0x1 ADD SWAP1 DUP1 MLOAD SWAP1 PUSH1 0x20 ADD SWAP1 PUSH2 0x1AB7 SWAP3 SWAP2 SWAP1 PUSH2 0x260D JUMP JUMPDEST POP PUSH2 0x1AE4 PUSH32 0xF1E9328BBAC73C46112674DA842A4AA5F57C7676608F3A3C3EA3EE933C6B774B PUSH1 0x0 SHL PUSH2 0x253E JUMP JUMPDEST PUSH2 0x1B10 PUSH32 0x413DEC2D10240E5D1A2EBE5AC3375DBF71E844F28EB722DCE4556857F969DA7B PUSH1 0x0 SHL PUSH2 0x253E JUMP JUMPDEST DUP3 DUP2 PUSH1 0x2 ADD DUP2 SWAP1 SSTORE POP POP POP POP POP POP JUMP JUMPDEST PUSH2 0x1B28 PUSH2 0x2541 JUMP JUMPDEST PUSH20 0xFFFFFFFFFFFFFFFFFFFFFFFFFFFFFFFFFFFFFFFF AND PUSH2 0x1B46 PUSH2 0x1348 JUMP JUMPDEST PUSH20 0xFFFFFFFFFFFFFFFFFFFFFFFFFFFFFFFFFFFFFFFF AND EQ PUSH2 0x1B9C JUMPI PUSH1 0x40 MLOAD PUSH32 0x8C379A000000000000000000000000000000000000000000000000000000000 DUP2 MSTORE PUSH1 0x4 ADD PUSH2 0x1B93 SWAP1 PUSH2 0x2CC8 JUMP JUMPDEST PUSH1 0x40 MLOAD DUP1 SWAP2 SUB SWAP1 REVERT JUMPDEST DUP2 PUSH2 0x1BC9 PUSH32 0x30273BC3F885D4CAA9B627E4DCE5A1CC494FCE7ADC3A529668F4D9C64A9933EB PUSH1 0x0 SHL PUSH2 0x253E JUMP JUMPDEST PUSH2 0x1BF5 PUSH32 0xBD26E1090F6BE8F1B75A28B2CE295D2256E113E6DB1A47F09D2C45356D14AA53 PUSH1 0x0 SHL PUSH2 0x253E JUMP JUMPDEST PUSH2 0x1C21 PUSH32 0x93F2CF4EE0883DD02D28BAEF9C0AB87C25F5F892C66831DD7AD62ED606E8E6D3 PUSH1 0x0 SHL PUSH2 0x253E JUMP JUMPDEST PUSH1 0x0 PUSH1 0x9 PUSH1 0x0 PUSH1 0x1 SLOAD DUP2 MSTORE PUSH1 0x20 ADD SWAP1 DUP2 MSTORE PUSH1 0x20 ADD PUSH1 0x0 KECCAK256 SWAP1 POP PUSH2 0x1C66 PUSH32 0x21094D1F4B6C00634102E8C01A4CF4248D81368F8FCDC5B141E68974D0DE50A7 PUSH1 0x0 SHL PUSH2 0x253E JUMP JUMPDEST PUSH2 0x1C92 PUSH32 0x8236A3F62930E493B10B7E585A869B572AA9FB763B84B010C8BE2BB69050A62D PUSH1 0x0 SHL PUSH2 0x253E JUMP JUMPDEST PUSH2 0x1CBE PUSH32 0x8A038BCFE83F408737FBD37393934CB789A78A17C6A2ECEC75B7E633AC3D833D PUSH1 0x0 SHL PUSH2 0x253E JUMP JUMPDEST PUSH1 0x0 DUP2 PUSH1 0x0 ADD DUP1 SLOAD PUSH2 0x1CCF SWAP1 PUSH2 0x2F5A JUMP JUMPDEST SWAP1 POP EQ ISZERO PUSH2 0x1D12 JUMPI PUSH1 0x40 MLOAD PUSH32 0x8C379A000000000000000000000000000000000000000000000000000000000 DUP2 MSTORE PUSH1 0x4 ADD PUSH2 0x1D09 SWAP1 PUSH2 0x2CE8 JUMP JUMPDEST PUSH1 0x40 MLOAD DUP1 SWAP2 SUB SWAP1 REVERT JUMPDEST PUSH2 0x1D3E PUSH32 0x9D8451996A8C5F0E9DF9257E90126DFB1E74EBC93A1FD2D313C2608389EF675F PUSH1 0x0 SHL PUSH2 0x253E JUMP JUMPDEST PUSH2 0x1D6A PUSH32 0xC4BABD36A906A557CA1EE7139B1A06D796FFC872A664B582F3E0838C2AAEB197 PUSH1 0x0 SHL PUSH2 0x253E JUMP JUMPDEST PUSH2 0x1D96 PUSH32 0x6CB7238F52A16D8C0CC0475F6FD119457C986CFE009CAC2AB601EC9ED53095D5 PUSH1 0x0 SHL PUSH2 0x253E JUMP JUMPDEST PUSH2 0x1DC2 PUSH32 0xFE301DFB62778105FAC051D59D0CAA589A71B2752193C57FC669334E6F4BBDAE PUSH1 0x0 SHL PUSH2 0x253E JUMP JUMPDEST PUSH2 0x1DEE PUSH32 0xE9D05EB3F685372B66F7ACA58A834B483DDDF05D8D0A1B9CD6012B160E122648 PUSH1 0x0 SHL PUSH2 0x253E JUMP JUMPDEST PUSH2 0x1E1A PUSH32 0xB01EB8B5A536BD0D4E1288C0F5FA815501CE1ED8492053AC470B7026D11F9DC7 PUSH1 0x0 SHL PUSH2 0x253E JUMP JUMPDEST PUSH1 0x0 DUP4 GT PUSH2 0x1E5D JUMPI PUSH1 0x40 MLOAD PUSH32 0x8C379A000000000000000000000000000000000000000000000000000000000 DUP2 MSTORE PUSH1 0x4 ADD PUSH2 0x1E54 SWAP1 PUSH2 0x2D28 JUMP JUMPDEST PUSH1 0x40 MLOAD DUP1 SWAP2 SUB SWAP1 REVERT JUMPDEST PUSH2 0x1E89 PUSH32 0xE30E899D09386C2D43DA901913C6F22806D4720E356D54E61F0CB10C75578F28 PUSH1 0x0 SHL PUSH2 0x253E JUMP JUMPDEST PUSH2 0x1EB4 PUSH31 0x7E9BCE4E2BD223968EF38A932348EDBD26C90048CBF08E0414851DB9DAF1D5 PUSH1 0x0 SHL PUSH2 0x253E JUMP JUMPDEST PUSH2 0x1EE0 PUSH32 0x634D715C37E86B5322E38204301BD4DF292B52A349A2BE93E43A5D8D1D1397EB PUSH1 0x0 SHL PUSH2 0x253E JUMP JUMPDEST PUSH1 0x0 PUSH1 0x9 PUSH1 0x0 PUSH1 0x1 SLOAD DUP2 MSTORE PUSH1 0x20 ADD SWAP1 DUP2 MSTORE PUSH1 0x20 ADD PUSH1 0x0 KECCAK256 SWAP1 POP PUSH2 0x1F25 PUSH32 0xEAB221B0E110BCDFA4AB75EF14E42C8443985B3AB32C13C4C0339733D7BD442A PUSH1 0x0 SHL PUSH2 0x253E JUMP JUMPDEST PUSH2 0x1F51 PUSH32 0xE6186D93B1C114E3CF542AE0559A4C074258F02FDD031C2692486CFE163E5629 PUSH1 0x0 SHL PUSH2 0x253E JUMP JUMPDEST DUP4 DUP2 PUSH1 0x2 ADD SLOAD PUSH2 0x1F61 SWAP2 SWAP1 PUSH2 0x2E52 JUMP JUMPDEST DUP2 PUSH1 0x2 ADD DUP2 SWAP1 SSTORE POP POP POP POP POP POP JUMP JUMPDEST PUSH2 0x1F9C PUSH32 0x772EC3A2E46D6C0E17E6D5169C055E39466BE200064FF393893D93F50E08745B PUSH1 0x0 SHL PUSH2 0x253E JUMP JUMPDEST PUSH2 0x1FC8 PUSH32 0x3A6E4F3FA67818171D34964EFA21FD85D0F0C0285879FD73E127E65239D70AF6 PUSH1 0x0 SHL PUSH2 0x253E JUMP JUMPDEST PUSH2 0x1FF4 PUSH32 0x330A6F045CD893814B9C761A83EA1A0C155465EE06C2297F67436AA67266FEFB PUSH1 0x0 SHL PUSH2 0x253E JUMP JUMPDEST PUSH2 0x2020 PUSH32 0x8652FCF7F3CE58426C0D9798C416E432B389242D3C87A1E971270F5E4A632D64 PUSH1 0x0 SHL PUSH2 0x253E JUMP JUMPDEST PUSH1 0x1 ISZERO ISZERO PUSH1 0xA PUSH1 0x0 CALLER PUSH20 0xFFFFFFFFFFFFFFFFFFFFFFFFFFFFFFFFFFFFFFFF AND PUSH20 0xFFFFFFFFFFFFFFFFFFFFFFFFFFFFFFFFFFFFFFFF AND DUP2 MSTORE PUSH1 0x20 ADD SWAP1 DUP2 MSTORE PUSH1 0x20 ADD PUSH1 0x0 KECCAK256 PUSH1 0x0 DUP4 DUP2 MSTORE PUSH1 0x20 ADD SWAP1 DUP2 MSTORE PUSH1 0x20 ADD PUSH1 0x0 KECCAK256 PUSH1 0x0 SWAP1 SLOAD SWAP1 PUSH2 0x100 EXP SWAP1 DIV PUSH1 0xFF AND ISZERO ISZERO EQ PUSH2 0x20C4 JUMPI PUSH1 0x40 MLOAD PUSH32 0x8C379A000000000000000000000000000000000000000000000000000000000 DUP2 MSTORE PUSH1 0x4 ADD PUSH2 0x20BB SWAP1 PUSH2 0x2C08 JUMP JUMPDEST PUSH1 0x40 MLOAD DUP1 SWAP2 SUB SWAP1 REVERT JUMPDEST PUSH2 0x20F0 PUSH32 0xEC692851365A95EB87505B2E0BF93E94F99CCC0795FECECAA57E2397A430015 PUSH1 0x0 SHL PUSH2 0x253E JUMP JUMPDEST PUSH2 0x211C PUSH32 0x301840F4A1ECF59EC5984548E4DAED0AA55710418A9C564719F16BD4413815A6 PUSH1 0x0 SHL PUSH2 0x253E JUMP JUMPDEST PUSH2 0x2148 PUSH32 0x374D77C23BC5F05CC08EE0AC9EC13DCB6C316BE684A67968D52ACA97D8771D89 PUSH1 0x0 SHL PUSH2 0x253E JUMP JUMPDEST PUSH1 0x0 PUSH1 0x9 PUSH1 0x0 DUP4 DUP2 MSTORE PUSH1 0x20 ADD SWAP1 DUP2 MSTORE PUSH1 0x20 ADD PUSH1 0x0 KECCAK256 SWAP1 POP PUSH2 0x218B PUSH32 0xFC21BBC9B8461584A93EE80CB30BDC8A0F821EC1A3AF2BDFB1771B8A29E86547 PUSH1 0x0 SHL PUSH2 0x253E JUMP JUMPDEST PUSH2 0x21B7 PUSH32 0xD470ADD96B7D9313B544B8548F36BF9EDB9CFC145D69ED67BCEAC9ADD8F952C2 PUSH1 0x0 SHL PUSH2 0x253E JUMP JUMPDEST PUSH1 0x1 DUP2 PUSH1 0x3 ADD SLOAD PUSH2 0x21C8 SWAP2 SWAP1 PUSH2 0x2EA8 JUMP JUMPDEST DUP2 PUSH1 0x3 ADD DUP2 SWAP1 SSTORE POP PUSH2 0x21FC PUSH32 0x5B89B4F1ADC0893E36162CE6186DA281CF708307EFB37C69BBA44CD6EECC4E5 PUSH1 0x0 SHL PUSH2 0x253E JUMP JUMPDEST PUSH2 0x2228 PUSH32 0x3D39F366F02571D8C93D254E633637D4FC178AECF07231D78CF1F711AA647369 PUSH1 0x0 SHL PUSH2 0x253E JUMP JUMPDEST PUSH1 0x1 DUP2 PUSH1 0x2 ADD SLOAD PUSH2 0x2239 SWAP2 SWAP1 PUSH2 0x2E52 JUMP JUMPDEST DUP2 PUSH1 0x2 ADD DUP2 SWAP1 SSTORE POP PUSH2 0x226D PUSH32 0xE2EE7C0B2E32E4A2F1F9F5DF0892AE542FE887EEF25EDD9F1EED4D0BF6B4C4CF PUSH1 0x0 SHL PUSH2 0x253E JUMP JUMPDEST PUSH2 0x2299 PUSH32 0x223AF0C2E3D04658FEFAD11DF238422C4A89F225530AB43DBB350693804F8C41 PUSH1 0x0 SHL PUSH2 0x253E JUMP JUMPDEST PUSH1 0x0 PUSH1 0xA PUSH1 0x0 CALLER PUSH20 0xFFFFFFFFFFFFFFFFFFFFFFFFFFFFFFFFFFFFFFFF AND PUSH20 0xFFFFFFFFFFFFFFFFFFFFFFFFFFFFFFFFFFFFFFFF AND DUP2 MSTORE PUSH1 0x20 ADD SWAP1 DUP2 MSTORE PUSH1 0x20 ADD PUSH1 0x0 KECCAK256 PUSH1 0x0 DUP5 DUP2 MSTORE PUSH1 0x20 ADD SWAP1 DUP2 MSTORE PUSH1 0x20 ADD PUSH1 0x0 KECCAK256 PUSH1 0x0 PUSH2 0x100 EXP DUP2 SLOAD DUP2 PUSH1 0xFF MUL NOT AND SWAP1 DUP4 ISZERO ISZERO MUL OR SWAP1 SSTORE POP POP POP JUMP JUMPDEST PUSH2 0x230E PUSH2 0x2541 JUMP JUMPDEST PUSH20 0xFFFFFFFFFFFFFFFFFFFFFFFFFFFFFFFFFFFFFFFF AND PUSH2 0x232C PUSH2 0x1348 JUMP JUMPDEST PUSH20 0xFFFFFFFFFFFFFFFFFFFFFFFFFFFFFFFFFFFFFFFF AND EQ PUSH2 0x2382 JUMPI PUSH1 0x40 MLOAD PUSH32 0x8C379A000000000000000000000000000000000000000000000000000000000 DUP2 MSTORE PUSH1 0x4 ADD PUSH2 0x2379 SWAP1 PUSH2 0x2CC8 JUMP JUMPDEST PUSH1 0x40 MLOAD DUP1 SWAP2 SUB SWAP1 REVERT JUMPDEST PUSH1 0x0 PUSH20 0xFFFFFFFFFFFFFFFFFFFFFFFFFFFFFFFFFFFFFFFF AND DUP2 PUSH20 0xFFFFFFFFFFFFFFFFFFFFFFFFFFFFFFFFFFFFFFFF AND EQ ISZERO PUSH2 0x23F2 JUMPI PUSH1 0x40 MLOAD PUSH32 0x8C379A000000000000000000000000000000000000000000000000000000000 DUP2 MSTORE PUSH1 0x4 ADD PUSH2 0x23E9 SWAP1 PUSH2 0x2C28 JUMP JUMPDEST PUSH1 0x40 MLOAD DUP1 SWAP2 SUB SWAP1 REVERT JUMPDEST PUSH2 0x23FB DUP2 PUSH2 0x2549 JUMP JUMPDEST POP JUMP JUMPDEST PUSH1 0x9 PUSH1 0x20 MSTORE DUP1 PUSH1 0x0 MSTORE PUSH1 0x40 PUSH1 0x0 KECCAK256 PUSH1 0x0 SWAP2 POP SWAP1 POP DUP1 PUSH1 0x0 ADD DUP1 SLOAD PUSH2 0x2421 SWAP1 PUSH2 0x2F5A JUMP JUMPDEST DUP1 PUSH1 0x1F ADD PUSH1 0x20 DUP1 SWAP2 DIV MUL PUSH1 0x20 ADD PUSH1 0x40 MLOAD SWAP1 DUP2 ADD PUSH1 0x40 MSTORE DUP1 SWAP3 SWAP2 SWAP1 DUP2 DUP2 MSTORE PUSH1 0x20 ADD DUP3 DUP1 SLOAD PUSH2 0x244D SWAP1 PUSH2 0x2F5A JUMP JUMPDEST DUP1 ISZERO PUSH2 0x249A JUMPI DUP1 PUSH1 0x1F LT PUSH2 0x246F JUMPI PUSH2 0x100 DUP1 DUP4 SLOAD DIV MUL DUP4 MSTORE SWAP2 PUSH1 0x20 ADD SWAP2 PUSH2 0x249A JUMP JUMPDEST DUP3 ADD SWAP2 SWAP1 PUSH1 0x0 MSTORE PUSH1 0x20 PUSH1 0x0 KECCAK256 SWAP1 JUMPDEST DUP2 SLOAD DUP2 MSTORE SWAP1 PUSH1 0x1 ADD SWAP1 PUSH1 0x20 ADD DUP1 DUP4 GT PUSH2 0x247D JUMPI DUP3 SWAP1 SUB PUSH1 0x1F AND DUP3 ADD SWAP2 JUMPDEST POP POP POP POP POP SWAP1 DUP1 PUSH1 0x1 ADD DUP1 SLOAD PUSH2 0x24AF SWAP1 PUSH2 0x2F5A JUMP JUMPDEST DUP1 PUSH1 0x1F ADD PUSH1 0x20 DUP1 SWAP2 DIV MUL PUSH1 0x20 ADD PUSH1 0x40 MLOAD SWAP1 DUP2 ADD PUSH1 0x40 MSTORE DUP1 SWAP3 SWAP2 SWAP1 DUP2 DUP2 MSTORE PUSH1 0x20 ADD DUP3 DUP1 SLOAD PUSH2 0x24DB SWAP1 PUSH2 0x2F5A JUMP JUMPDEST DUP1 ISZERO PUSH2 0x2528 JUMPI DUP1 PUSH1 0x1F LT PUSH2 0x24FD JUMPI PUSH2 0x100 DUP1 DUP4 SLOAD DIV MUL DUP4 MSTORE SWAP2 PUSH1 0x20 ADD SWAP2 PUSH2 0x2528 JUMP JUMPDEST DUP3 ADD SWAP2 SWAP1 PUSH1 0x0 MSTORE PUSH1 0x20 PUSH1 0x0 KECCAK256 SWAP1 JUMPDEST DUP2 SLOAD DUP2 MSTORE SWAP1 PUSH1 0x1 ADD SWAP1 PUSH1 0x20 ADD DUP1 DUP4 GT PUSH2 0x250B JUMPI DUP3 SWAP1 SUB PUSH1 0x1F AND DUP3 ADD SWAP2 JUMPDEST POP POP POP POP POP SWAP1 DUP1 PUSH1 0x2 ADD SLOAD SWAP1 DUP1 PUSH1 0x3 ADD SLOAD SWAP1 POP DUP5 JUMP JUMPDEST POP JUMP JUMPDEST PUSH1 0x0 CALLER SWAP1 POP SWAP1 JUMP JUMPDEST PUSH1 0x0 DUP1 PUSH1 0x0 SWAP1 SLOAD SWAP1 PUSH2 0x100 EXP SWAP1 DIV PUSH20 0xFFFFFFFFFFFFFFFFFFFFFFFFFFFFFFFFFFFFFFFF AND SWAP1 POP DUP2 PUSH1 0x0 DUP1 PUSH2 0x100 EXP DUP2 SLOAD DUP2 PUSH20 0xFFFFFFFFFFFFFFFFFFFFFFFFFFFFFFFFFFFFFFFF MUL NOT AND SWAP1 DUP4 PUSH20 0xFFFFFFFFFFFFFFFFFFFFFFFFFFFFFFFFFFFFFFFF AND MUL OR SWAP1 SSTORE POP DUP2 PUSH20 0xFFFFFFFFFFFFFFFFFFFFFFFFFFFFFFFFFFFFFFFF AND DUP2 PUSH20 0xFFFFFFFFFFFFFFFFFFFFFFFFFFFFFFFFFFFFFFFF AND PUSH32 0x8BE0079C531659141344CD1FD0A4F28419497F9722A3DAAFE3B4186F6B6457E0 PUSH1 0x40 MLOAD PUSH1 0x40 MLOAD DUP1 SWAP2 SUB SWAP1 LOG3 POP POP JUMP JUMPDEST DUP3 DUP1 SLOAD PUSH2 0x2619 SWAP1 PUSH2 0x2F5A JUMP JUMPDEST SWAP1 PUSH1 0x0 MSTORE PUSH1 0x20 PUSH1 0x0 KECCAK256 SWAP1 PUSH1 0x1F ADD PUSH1 0x20 SWAP1 DIV DUP2 ADD SWAP3 DUP3 PUSH2 0x263B JUMPI PUSH1 0x0 DUP6 SSTORE PUSH2 0x2682 JUMP JUMPDEST DUP3 PUSH1 0x1F LT PUSH2 0x2654 JUMPI DUP1 MLOAD PUSH1 0xFF NOT AND DUP4 DUP1 ADD OR DUP6 SSTORE PUSH2 0x2682 JUMP JUMPDEST DUP3 DUP1 ADD PUSH1 0x1 ADD DUP6 SSTORE DUP3 ISZERO PUSH2 0x2682 JUMPI SWAP2 DUP3 ADD JUMPDEST DUP3 DUP2 GT ISZERO PUSH2 0x2681 JUMPI DUP3 MLOAD DUP3 SSTORE SWAP2 PUSH1 0x20 ADD SWAP2 SWAP1 PUSH1 0x1 ADD SWAP1 PUSH2 0x2666 JUMP JUMPDEST JUMPDEST POP SWAP1 POP PUSH2 0x268F SWAP2 SWAP1 PUSH2 0x2693 JUMP JUMPDEST POP SWAP1 JUMP JUMPDEST JUMPDEST DUP1 DUP3 GT ISZERO PUSH2 0x26AC JUMPI PUSH1 0x0 DUP2 PUSH1 0x0 SWAP1 SSTORE POP PUSH1 0x1 ADD PUSH2 0x2694 JUMP JUMPDEST POP SWAP1 JUMP JUMPDEST PUSH1 0x0 PUSH2 0x26C3 PUSH2 0x26BE DUP5 PUSH2 0x2D88 JUMP JUMPDEST PUSH2 0x2D63 JUMP JUMPDEST SWAP1 POP DUP3 DUP2 MSTORE PUSH1 0x20 DUP2 ADD DUP5 DUP5 DUP5 ADD GT ISZERO PUSH2 0x26DB JUMPI PUSH1 0x0 DUP1 REVERT JUMPDEST PUSH2 0x26E6 DUP5 DUP3 DUP6 PUSH2 0x2F18 JUMP JUMPDEST POP SWAP4 SWAP3 POP POP POP JUMP JUMPDEST PUSH1 0x0 DUP2 CALLDATALOAD SWAP1 POP PUSH2 0x26FD DUP2 PUSH2 0x3264 JUMP JUMPDEST SWAP3 SWAP2 POP POP JUMP JUMPDEST PUSH1 0x0 DUP3 PUSH1 0x1F DUP4 ADD SLT PUSH2 0x2714 JUMPI PUSH1 0x0 DUP1 REVERT JUMPDEST DUP2 CALLDATALOAD PUSH2 0x2724 DUP5 DUP3 PUSH1 0x20 DUP7 ADD PUSH2 0x26B0 JUMP JUMPDEST SWAP2 POP POP SWAP3 SWAP2 POP POP JUMP JUMPDEST PUSH1 0x0 DUP2 CALLDATALOAD SWAP1 POP PUSH2 0x273C DUP2 PUSH2 0x327B JUMP JUMPDEST SWAP3 SWAP2 POP POP JUMP JUMPDEST PUSH1 0x0 PUSH1 0x20 DUP3 DUP5 SUB SLT ISZERO PUSH2 0x2754 JUMPI PUSH1 0x0 DUP1 REVERT JUMPDEST PUSH1 0x0 PUSH2 0x2762 DUP5 DUP3 DUP6 ADD PUSH2 0x26EE JUMP JUMPDEST SWAP2 POP POP SWAP3 SWAP2 POP POP JUMP JUMPDEST PUSH1 0x0 DUP1 PUSH1 0x0 PUSH1 0x60 DUP5 DUP7 SUB SLT ISZERO PUSH2 0x2780 JUMPI PUSH1 0x0 DUP1 REVERT JUMPDEST PUSH1 0x0 DUP5 ADD CALLDATALOAD PUSH8 0xFFFFFFFFFFFFFFFF DUP2 GT ISZERO PUSH2 0x279A JUMPI PUSH1 0x0 DUP1 REVERT JUMPDEST PUSH2 0x27A6 DUP7 DUP3 DUP8 ADD PUSH2 0x2703 JUMP JUMPDEST SWAP4 POP POP PUSH1 0x20 DUP5 ADD CALLDATALOAD PUSH8 0xFFFFFFFFFFFFFFFF DUP2 GT ISZERO PUSH2 0x27C3 JUMPI PUSH1 0x0 DUP1 REVERT JUMPDEST PUSH2 0x27CF DUP7 DUP3 DUP8 ADD PUSH2 0x2703 JUMP JUMPDEST SWAP3 POP POP PUSH1 0x40 PUSH2 0x27E0 DUP7 DUP3 DUP8 ADD PUSH2 0x272D JUMP JUMPDEST SWAP2 POP POP SWAP3 POP SWAP3 POP SWAP3 JUMP JUMPDEST PUSH1 0x0 PUSH1 0x20 DUP3 DUP5 SUB SLT ISZERO PUSH2 0x27FC JUMPI PUSH1 0x0 DUP1 REVERT JUMPDEST PUSH1 0x0 PUSH2 0x280A DUP5 DUP3 DUP6 ADD PUSH2 0x272D JUMP JUMPDEST SWAP2 POP POP SWAP3 SWAP2 POP POP JUMP JUMPDEST PUSH1 0x0 DUP1 PUSH1 0x40 DUP4 DUP6 SUB SLT ISZERO PUSH2 0x2826 JUMPI PUSH1 0x0 DUP1 REVERT JUMPDEST PUSH1 0x0 PUSH2 0x2834 DUP6 DUP3 DUP7 ADD PUSH2 0x272D JUMP JUMPDEST SWAP3 POP POP PUSH1 0x20 PUSH2 0x2845 DUP6 DUP3 DUP7 ADD PUSH2 0x272D JUMP JUMPDEST SWAP2 POP POP SWAP3 POP SWAP3 SWAP1 POP JUMP JUMPDEST PUSH1 0x0 PUSH2 0x285B DUP4 DUP4 PUSH2 0x287F JUMP JUMPDEST PUSH1 0x20 DUP4 ADD SWAP1 POP SWAP3 SWAP2 POP POP JUMP JUMPDEST PUSH1 0x0 PUSH2 0x2873 DUP4 DUP4 PUSH2 0x2B21 JUMP JUMPDEST PUSH1 0x20 DUP4 ADD SWAP1 POP SWAP3 SWAP2 POP POP JUMP JUMPDEST PUSH2 0x2888 DUP2 PUSH2 0x2EDC JUMP JUMPDEST DUP3 MSTORE POP POP JUMP JUMPDEST PUSH2 0x2897 DUP2 PUSH2 0x2EDC JUMP JUMPDEST DUP3 MSTORE POP POP JUMP JUMPDEST PUSH1 0x0 PUSH2 0x28A8 DUP3 PUSH2 0x2DD9 JUMP JUMPDEST PUSH2 0x28B2 DUP2 DUP6 PUSH2 0x2E14 JUMP JUMPDEST SWAP4 POP PUSH2 0x28BD DUP4 PUSH2 0x2DB9 JUMP JUMPDEST DUP1 PUSH1 0x0 JUMPDEST DUP4 DUP2 LT ISZERO PUSH2 0x28EE JUMPI DUP2 MLOAD PUSH2 0x28D5 DUP9 DUP3 PUSH2 0x284F JUMP JUMPDEST SWAP8 POP PUSH2 0x28E0 DUP4 PUSH2 0x2DFA JUMP JUMPDEST SWAP3 POP POP PUSH1 0x1 DUP2 ADD SWAP1 POP PUSH2 0x28C1 JUMP JUMPDEST POP DUP6 SWAP4 POP POP POP POP SWAP3 SWAP2 POP POP JUMP JUMPDEST PUSH1 0x0 PUSH2 0x2906 DUP3 PUSH2 0x2DE4 JUMP JUMPDEST PUSH2 0x2910 DUP2 DUP6 PUSH2 0x2E25 JUMP JUMPDEST SWAP4 POP PUSH2 0x291B DUP4 PUSH2 0x2DC9 JUMP JUMPDEST DUP1 PUSH1 0x0 JUMPDEST DUP4 DUP2 LT ISZERO PUSH2 0x294C JUMPI DUP2 MLOAD PUSH2 0x2933 DUP9 DUP3 PUSH2 0x2867 JUMP JUMPDEST SWAP8 POP PUSH2 0x293E DUP4 PUSH2 0x2E07 JUMP JUMPDEST SWAP3 POP POP PUSH1 0x1 DUP2 ADD SWAP1 POP PUSH2 0x291F JUMP JUMPDEST POP DUP6 SWAP4 POP POP POP POP SWAP3 SWAP2 POP POP JUMP JUMPDEST PUSH1 0x0 PUSH2 0x2964 DUP3 PUSH2 0x2DEF JUMP JUMPDEST PUSH2 0x296E DUP2 DUP6 PUSH2 0x2E36 JUMP JUMPDEST SWAP4 POP PUSH2 0x297E DUP2 DUP6 PUSH1 0x20 DUP7 ADD PUSH2 0x2F27 JUMP JUMPDEST PUSH2 0x2987 DUP2 PUSH2 0x3093 JUMP JUMPDEST DUP5 ADD SWAP2 POP POP SWAP3 SWAP2 POP POP JUMP JUMPDEST PUSH1 0x0 PUSH2 0x299D DUP3 PUSH2 0x2DEF JUMP JUMPDEST PUSH2 0x29A7 DUP2 DUP6 PUSH2 0x2E47 JUMP JUMPDEST SWAP4 POP PUSH2 0x29B7 DUP2 DUP6 PUSH1 0x20 DUP7 ADD PUSH2 0x2F27 JUMP JUMPDEST DUP1 DUP5 ADD SWAP2 POP POP SWAP3 SWAP2 POP POP JUMP JUMPDEST PUSH1 0x0 PUSH2 0x29D0 PUSH1 0x11 DUP4 PUSH2 0x2E36 JUMP JUMPDEST SWAP2 POP PUSH2 0x29DB DUP3 PUSH2 0x30A4 JUMP JUMPDEST PUSH1 0x20 DUP3 ADD SWAP1 POP SWAP2 SWAP1 POP JUMP JUMPDEST PUSH1 0x0 PUSH2 0x29F3 PUSH1 0x26 DUP4 PUSH2 0x2E36 JUMP JUMPDEST SWAP2 POP PUSH2 0x29FE DUP3 PUSH2 0x30CD JUMP JUMPDEST PUSH1 0x40 DUP3 ADD SWAP1 POP SWAP2 SWAP1 POP JUMP JUMPDEST PUSH1 0x0 PUSH2 0x2A16 PUSH1 0x19 DUP4 PUSH2 0x2E36 JUMP JUMPDEST SWAP2 POP PUSH2 0x2A21 DUP3 PUSH2 0x311C JUMP JUMPDEST PUSH1 0x20 DUP3 ADD SWAP1 POP SWAP2 SWAP1 POP JUMP JUMPDEST PUSH1 0x0 PUSH2 0x2A39 PUSH1 0x17 DUP4 PUSH2 0x2E36 JUMP JUMPDEST SWAP2 POP PUSH2 0x2A44 DUP3 PUSH2 0x3145 JUMP JUMPDEST PUSH1 0x20 DUP3 ADD SWAP1 POP SWAP2 SWAP1 POP JUMP JUMPDEST PUSH1 0x0 PUSH2 0x2A5C PUSH1 0x1A DUP4 PUSH2 0x2E36 JUMP JUMPDEST SWAP2 POP PUSH2 0x2A67 DUP3 PUSH2 0x316E JUMP JUMPDEST PUSH1 0x20 DUP3 ADD SWAP1 POP SWAP2 SWAP1 POP JUMP JUMPDEST PUSH1 0x0 PUSH2 0x2A7F PUSH1 0x17 DUP4 PUSH2 0x2E36 JUMP JUMPDEST SWAP2 POP PUSH2 0x2A8A DUP3 PUSH2 0x3197 JUMP JUMPDEST PUSH1 0x20 DUP3 ADD SWAP1 POP SWAP2 SWAP1 POP JUMP JUMPDEST PUSH1 0x0 PUSH2 0x2AA2 PUSH1 0x20 DUP4 PUSH2 0x2E36 JUMP JUMPDEST SWAP2 POP PUSH2 0x2AAD DUP3 PUSH2 0x31C0 JUMP JUMPDEST PUSH1 0x20 DUP3 ADD SWAP1 POP SWAP2 SWAP1 POP JUMP JUMPDEST PUSH1 0x0 PUSH2 0x2AC5 PUSH1 0x13 DUP4 PUSH2 0x2E36 JUMP JUMPDEST SWAP2 POP PUSH2 0x2AD0 DUP3 PUSH2 0x31E9 JUMP JUMPDEST PUSH1 0x20 DUP3 ADD SWAP1 POP SWAP2 SWAP1 POP JUMP JUMPDEST PUSH1 0x0 PUSH2 0x2AE8 PUSH1 0x18 DUP4 PUSH2 0x2E36 JUMP JUMPDEST SWAP2 POP PUSH2 0x2AF3 DUP3 PUSH2 0x3212 JUMP JUMPDEST PUSH1 0x20 DUP3 ADD SWAP1 POP SWAP2 SWAP1 POP JUMP JUMPDEST PUSH1 0x0 PUSH2 0x2B0B PUSH1 0x14 DUP4 PUSH2 0x2E36 JUMP JUMPDEST SWAP2 POP PUSH2 0x2B16 DUP3 PUSH2 0x323B JUMP JUMPDEST PUSH1 0x20 DUP3 ADD SWAP1 POP SWAP2 SWAP1 POP JUMP JUMPDEST PUSH2 0x2B2A DUP2 PUSH2 0x2F0E JUMP JUMPDEST DUP3 MSTORE POP POP JUMP JUMPDEST PUSH2 0x2B39 DUP2 PUSH2 0x2F0E JUMP JUMPDEST DUP3 MSTORE POP POP JUMP JUMPDEST PUSH1 0x0 PUSH2 0x2B4B DUP3 DUP5 PUSH2 0x2992 JUMP JUMPDEST SWAP2 POP DUP2 SWAP1 POP SWAP3 SWAP2 POP POP JUMP JUMPDEST PUSH1 0x0 PUSH1 0x20 DUP3 ADD SWAP1 POP PUSH2 0x2B6B PUSH1 0x0 DUP4 ADD DUP5 PUSH2 0x288E JUMP JUMPDEST SWAP3 SWAP2 POP POP JUMP JUMPDEST PUSH1 0x0 PUSH1 0x20 DUP3 ADD SWAP1 POP DUP2 DUP2 SUB PUSH1 0x0 DUP4 ADD MSTORE PUSH2 0x2B8B DUP2 DUP5 PUSH2 0x289D JUMP JUMPDEST SWAP1 POP SWAP3 SWAP2 POP POP JUMP JUMPDEST PUSH1 0x0 PUSH1 0x20 DUP3 ADD SWAP1 POP DUP2 DUP2 SUB PUSH1 0x0 DUP4 ADD MSTORE PUSH2 0x2BAD DUP2 DUP5 PUSH2 0x28FB JUMP JUMPDEST SWAP1 POP SWAP3 SWAP2 POP POP JUMP JUMPDEST PUSH1 0x0 PUSH1 0x80 DUP3 ADD SWAP1 POP DUP2 DUP2 SUB PUSH1 0x0 DUP4 ADD MSTORE PUSH2 0x2BCF DUP2 DUP8 PUSH2 0x2959 JUMP JUMPDEST SWAP1 POP DUP2 DUP2 SUB PUSH1 0x20 DUP4 ADD MSTORE PUSH2 0x2BE3 DUP2 DUP7 PUSH2 0x2959 JUMP JUMPDEST SWAP1 POP PUSH2 0x2BF2 PUSH1 0x40 DUP4 ADD DUP6 PUSH2 0x2B30 JUMP JUMPDEST PUSH2 0x2BFF PUSH1 0x60 DUP4 ADD DUP5 PUSH2 0x2B30 JUMP JUMPDEST SWAP6 SWAP5 POP POP POP POP POP JUMP JUMPDEST PUSH1 0x0 PUSH1 0x20 DUP3 ADD SWAP1 POP DUP2 DUP2 SUB PUSH1 0x0 DUP4 ADD MSTORE PUSH2 0x2C21 DUP2 PUSH2 0x29C3 JUMP JUMPDEST SWAP1 POP SWAP2 SWAP1 POP JUMP JUMPDEST PUSH1 0x0 PUSH1 0x20 DUP3 ADD SWAP1 POP DUP2 DUP2 SUB PUSH1 0x0 DUP4 ADD MSTORE PUSH2 0x2C41 DUP2 PUSH2 0x29E6 JUMP JUMPDEST SWAP1 POP SWAP2 SWAP1 POP JUMP JUMPDEST PUSH1 0x0 PUSH1 0x20 DUP3 ADD SWAP1 POP DUP2 DUP2 SUB PUSH1 0x0 DUP4 ADD MSTORE PUSH2 0x2C61 DUP2 PUSH2 0x2A09 JUMP JUMPDEST SWAP1 POP SWAP2 SWAP1 POP JUMP JUMPDEST PUSH1 0x0 PUSH1 0x20 DUP3 ADD SWAP1 POP DUP2 DUP2 SUB PUSH1 0x0 DUP4 ADD MSTORE PUSH2 0x2C81 DUP2 PUSH2 0x2A2C JUMP JUMPDEST SWAP1 POP SWAP2 SWAP1 POP JUMP JUMPDEST PUSH1 0x0 PUSH1 0x20 DUP3 ADD SWAP1 POP DUP2 DUP2 SUB PUSH1 0x0 DUP4 ADD MSTORE PUSH2 0x2CA1 DUP2 PUSH2 0x2A4F JUMP JUMPDEST SWAP1 POP SWAP2 SWAP1 POP JUMP JUMPDEST PUSH1 0x0 PUSH1 0x20 DUP3 ADD SWAP1 POP DUP2 DUP2 SUB PUSH1 0x0 DUP4 ADD MSTORE PUSH2 0x2CC1 DUP2 PUSH2 0x2A72 JUMP JUMPDEST SWAP1 POP SWAP2 SWAP1 POP JUMP JUMPDEST PUSH1 0x0 PUSH1 0x20 DUP3 ADD SWAP1 POP DUP2 DUP2 SUB PUSH1 0x0 DUP4 ADD MSTORE PUSH2 0x2CE1 DUP2 PUSH2 0x2A95 JUMP JUMPDEST SWAP1 POP SWAP2 SWAP1 POP JUMP JUMPDEST PUSH1 0x0 PUSH1 0x20 DUP3 ADD SWAP1 POP DUP2 DUP2 SUB PUSH1 0x0 DUP4 ADD MSTORE PUSH2 0x2D01 DUP2 PUSH2 0x2AB8 JUMP JUMPDEST SWAP1 POP SWAP2 SWAP1 POP JUMP JUMPDEST PUSH1 0x0 PUSH1 0x20 DUP3 ADD SWAP1 POP DUP2 DUP2 SUB PUSH1 0x0 DUP4 ADD MSTORE PUSH2 0x2D21 DUP2 PUSH2 0x2ADB JUMP JUMPDEST SWAP1 POP SWAP2 SWAP1 POP JUMP JUMPDEST PUSH1 0x0 PUSH1 0x20 DUP3 ADD SWAP1 POP DUP2 DUP2 SUB PUSH1 0x0 DUP4 ADD MSTORE PUSH2 0x2D41 DUP2 PUSH2 0x2AFE JUMP JUMPDEST SWAP1 POP SWAP2 SWAP1 POP JUMP JUMPDEST PUSH1 0x0 PUSH1 0x20 DUP3 ADD SWAP1 POP PUSH2 0x2D5D PUSH1 0x0 DUP4 ADD DUP5 PUSH2 0x2B30 JUMP JUMPDEST SWAP3 SWAP2 POP POP JUMP JUMPDEST PUSH1 0x0 PUSH2 0x2D6D PUSH2 0x2D7E JUMP JUMPDEST SWAP1 POP PUSH2 0x2D79 DUP3 DUP3 PUSH2 0x2F8C JUMP JUMPDEST SWAP2 SWAP1 POP JUMP JUMPDEST PUSH1 0x0 PUSH1 0x40 MLOAD SWAP1 POP SWAP1 JUMP JUMPDEST PUSH1 0x0 PUSH8 0xFFFFFFFFFFFFFFFF DUP3 GT ISZERO PUSH2 0x2DA3 JUMPI PUSH2 0x2DA2 PUSH2 0x3064 JUMP JUMPDEST JUMPDEST PUSH2 0x2DAC DUP3 PUSH2 0x3093 JUMP JUMPDEST SWAP1 POP PUSH1 0x20 DUP2 ADD SWAP1 POP SWAP2 SWAP1 POP JUMP JUMPDEST PUSH1 0x0 DUP2 SWAP1 POP PUSH1 0x20 DUP3 ADD SWAP1 POP SWAP2 SWAP1 POP JUMP JUMPDEST PUSH1 0x0 DUP2 SWAP1 POP PUSH1 0x20 DUP3 ADD SWAP1 POP SWAP2 SWAP1 POP JUMP JUMPDEST PUSH1 0x0 DUP2 MLOAD SWAP1 POP SWAP2 SWAP1 POP JUMP JUMPDEST PUSH1 0x0 DUP2 MLOAD SWAP1 POP SWAP2 SWAP1 POP JUMP JUMPDEST PUSH1 0x0 DUP2 MLOAD SWAP1 POP SWAP2 SWAP1 POP JUMP JUMPDEST PUSH1 0x0 PUSH1 0x20 DUP3 ADD SWAP1 POP SWAP2 SWAP1 POP JUMP JUMPDEST PUSH1 0x0 PUSH1 0x20 DUP3 ADD SWAP1 POP SWAP2 SWAP1 POP JUMP JUMPDEST PUSH1 0x0 DUP3 DUP3 MSTORE PUSH1 0x20 DUP3 ADD SWAP1 POP SWAP3 SWAP2 POP POP JUMP JUMPDEST PUSH1 0x0 DUP3 DUP3 MSTORE PUSH1 0x20 DUP3 ADD SWAP1 POP SWAP3 SWAP2 POP POP JUMP JUMPDEST PUSH1 0x0 DUP3 DUP3 MSTORE PUSH1 0x20 DUP3 ADD SWAP1 POP SWAP3 SWAP2 POP POP JUMP JUMPDEST PUSH1 0x0 DUP2 SWAP1 POP SWAP3 SWAP2 POP POP JUMP JUMPDEST PUSH1 0x0 PUSH2 0x2E5D DUP3 PUSH2 0x2F0E JUMP JUMPDEST SWAP2 POP PUSH2 0x2E68 DUP4 PUSH2 0x2F0E JUMP JUMPDEST SWAP3 POP DUP3 PUSH32 0xFFFFFFFFFFFFFFFFFFFFFFFFFFFFFFFFFFFFFFFFFFFFFFFFFFFFFFFFFFFFFFFF SUB DUP3 GT ISZERO PUSH2 0x2E9D JUMPI PUSH2 0x2E9C PUSH2 0x3006 JUMP JUMPDEST JUMPDEST DUP3 DUP3 ADD SWAP1 POP SWAP3 SWAP2 POP POP JUMP JUMPDEST PUSH1 0x0 PUSH2 0x2EB3 DUP3 PUSH2 0x2F0E JUMP JUMPDEST SWAP2 POP PUSH2 0x2EBE DUP4 PUSH2 0x2F0E JUMP JUMPDEST SWAP3 POP DUP3 DUP3 LT ISZERO PUSH2 0x2ED1 JUMPI PUSH2 0x2ED0 PUSH2 0x3006 JUMP JUMPDEST JUMPDEST DUP3 DUP3 SUB SWAP1 POP SWAP3 SWAP2 POP POP JUMP JUMPDEST PUSH1 0x0 PUSH2 0x2EE7 DUP3 PUSH2 0x2EEE JUMP JUMPDEST SWAP1 POP SWAP2 SWAP1 POP JUMP JUMPDEST PUSH1 0x0 PUSH20 0xFFFFFFFFFFFFFFFFFFFFFFFFFFFFFFFFFFFFFFFF DUP3 AND SWAP1 POP SWAP2 SWAP1 POP JUMP JUMPDEST PUSH1 0x0 DUP2 SWAP1 POP SWAP2 SWAP1 POP JUMP JUMPDEST DUP3 DUP2 DUP4 CALLDATACOPY PUSH1 0x0 DUP4 DUP4 ADD MSTORE POP POP POP JUMP JUMPDEST PUSH1 0x0 JUMPDEST DUP4 DUP2 LT ISZERO PUSH2 0x2F45 JUMPI DUP1 DUP3 ADD MLOAD DUP2 DUP5 ADD MSTORE PUSH1 0x20 DUP2 ADD SWAP1 POP PUSH2 0x2F2A JUMP JUMPDEST DUP4 DUP2 GT ISZERO PUSH2 0x2F54 JUMPI PUSH1 0x0 DUP5 DUP5 ADD MSTORE JUMPDEST POP POP POP POP JUMP JUMPDEST PUSH1 0x0 PUSH1 0x2 DUP3 DIV SWAP1 POP PUSH1 0x1 DUP3 AND DUP1 PUSH2 0x2F72 JUMPI PUSH1 0x7F DUP3 AND SWAP2 POP JUMPDEST PUSH1 0x20 DUP3 LT DUP2 EQ ISZERO PUSH2 0x2F86 JUMPI PUSH2 0x2F85 PUSH2 0x3035 JUMP JUMPDEST JUMPDEST POP SWAP2 SWAP1 POP JUMP JUMPDEST PUSH2 0x2F95 DUP3 PUSH2 0x3093 JUMP JUMPDEST DUP2 ADD DUP2 DUP2 LT PUSH8 0xFFFFFFFFFFFFFFFF DUP3 GT OR ISZERO PUSH2 0x2FB4 JUMPI PUSH2 0x2FB3 PUSH2 0x3064 JUMP JUMPDEST JUMPDEST DUP1 PUSH1 0x40 MSTORE POP POP POP JUMP JUMPDEST PUSH1 0x0 PUSH2 0x2FC8 DUP3 PUSH2 0x2F0E JUMP JUMPDEST SWAP2 POP PUSH32 0xFFFFFFFFFFFFFFFFFFFFFFFFFFFFFFFFFFFFFFFFFFFFFFFFFFFFFFFFFFFFFFFF DUP3 EQ ISZERO PUSH2 0x2FFB JUMPI PUSH2 0x2FFA PUSH2 0x3006 JUMP JUMPDEST JUMPDEST PUSH1 0x1 DUP3 ADD SWAP1 POP SWAP2 SWAP1 POP JUMP JUMPDEST PUSH32 0x4E487B7100000000000000000000000000000000000000000000000000000000 PUSH1 0x0 MSTORE PUSH1 0x11 PUSH1 0x4 MSTORE PUSH1 0x24 PUSH1 0x0 REVERT JUMPDEST PUSH32 0x4E487B7100000000000000000000000000000000000000000000000000000000 PUSH1 0x0 MSTORE PUSH1 0x22 PUSH1 0x4 MSTORE PUSH1 0x24 PUSH1 0x0 REVERT JUMPDEST PUSH32 0x4E487B7100000000000000000000000000000000000000000000000000000000 PUSH1 0x0 MSTORE PUSH1 0x41 PUSH1 0x4 MSTORE PUSH1 0x24 PUSH1 0x0 REVERT JUMPDEST PUSH1 0x0 PUSH1 0x1F NOT PUSH1 0x1F DUP4 ADD AND SWAP1 POP SWAP2 SWAP1 POP JUMP JUMPDEST PUSH32 0x4E6F20636F707920746F2072657475726E000000000000000000000000000000 PUSH1 0x0 DUP3 ADD MSTORE POP JUMP JUMPDEST PUSH32 0x4F776E61626C653A206E6577206F776E657220697320746865207A65726F2061 PUSH1 0x0 DUP3 ADD MSTORE PUSH32 0x6464726573730000000000000000000000000000000000000000000000000000 PUSH1 0x20 DUP3 ADD MSTORE POP JUMP JUMPDEST PUSH32 0x5573657220616C72656164792068617320636F7079206F757400000000000000 PUSH1 0x0 DUP3 ADD MSTORE POP JUMP JUMPDEST PUSH32 0x4E6F20626F6F6B73206C65667420746F20626F72726F77000000000000000000 PUSH1 0x0 DUP3 ADD MSTORE POP JUMP JUMPDEST PUSH32 0x4D75737420686176652061746C65617374206F6E6520636F7079000000000000 PUSH1 0x0 DUP3 ADD MSTORE POP JUMP JUMPDEST PUSH32 0x426F6F6B20616C726561647920696E206C696272617279000000000000000000 PUSH1 0x0 DUP3 ADD MSTORE POP JUMP JUMPDEST PUSH32 0x4F776E61626C653A2063616C6C6572206973206E6F7420746865206F776E6572 PUSH1 0x0 DUP3 ADD MSTORE POP JUMP JUMPDEST PUSH32 0x426F6F6B20646F6573206E6F7420657869737400000000000000000000000000 PUSH1 0x0 DUP3 ADD MSTORE POP JUMP JUMPDEST PUSH32 0x426F6F6B206E616D652063616E277420626520656D7074790000000000000000 PUSH1 0x0 DUP3 ADD MSTORE POP JUMP JUMPDEST PUSH32 0x43616E7420616464207A65726F20436F70696573000000000000000000000000 PUSH1 0x0 DUP3 ADD MSTORE POP JUMP JUMPDEST PUSH2 0x326D DUP2 PUSH2 0x2EDC JUMP JUMPDEST DUP2 EQ PUSH2 0x3278 JUMPI PUSH1 0x0 DUP1 REVERT JUMPDEST POP JUMP JUMPDEST PUSH2 0x3284 DUP2 PUSH2 0x2F0E JUMP JUMPDEST DUP2 EQ PUSH2 0x328F JUMPI PUSH1 0x0 DUP1 REVERT JUMPDEST POP JUMP INVALID LOG2 PUSH5 0x6970667358 0x22 SLT KECCAK256 0x29 0xDC LOG3 0xF9 OR PUSH23 0x36C7F77425B0BB9764D65775E8D945A357350305E3415 0xA5 GAS CREATE2 PUSH5 0x736F6C6343 STOP ADDMOD DIV STOP CALLER "
        },
        "methodIdentifiers": {
          "Ledger(uint256)": "fb011944",
          "addCopies(uint256,uint256)": "c0d01989",
          "addNewBook(string,string,uint256)": "bc4d1141",
          "booksAvaliable()": "18dfba68",
          "borrowBook(uint256)": "7e490a9e",
          "deweyDecimalId()": "77d970ba",
          "libraryTotalHistory()": "82176436",
          "owner()": "8da5cb5b",
          "renounceOwnership()": "715018a6",
          "returnBook(uint256)": "ca5140c9",
          "transferOwnership(address)": "f2fde38b",
          "whoHasTheBookIWant(uint256)": "7705eff3"
        }
      }
    }
  }
}