{
  "contracts/TheDadlessLibrary.sol": {
    "TheDadlessLibrary": {
      "abi": [
        {
          "inputs": [
            {
              "internalType": "uint256",
              "name": "",
              "type": "uint256"
            }
          ],
          "name": "Ledger",
          "outputs": [
            {
              "internalType": "string",
              "name": "name",
              "type": "string"
            },
            {
              "internalType": "string",
              "name": "author",
              "type": "string"
            },
            {
              "internalType": "uint256",
              "name": "totalCopies",
              "type": "uint256"
            },
            {
              "internalType": "uint256",
              "name": "copiesOut",
              "type": "uint256"
            }
          ],
          "stateMutability": "view",
          "type": "function"
        },
        {
          "inputs": [
            {
              "internalType": "uint256",
              "name": "_deweyDecimalId",
              "type": "uint256"
            },
            {
              "internalType": "uint256",
              "name": "_newCopies",
              "type": "uint256"
            }
          ],
          "name": "addCopies",
          "outputs": [],
          "stateMutability": "nonpayable",
          "type": "function"
        },
        {
          "inputs": [
            {
              "internalType": "string",
              "name": "_name",
              "type": "string"
            },
            {
              "internalType": "string",
              "name": "_author",
              "type": "string"
            },
            {
              "internalType": "uint256",
              "name": "_totalCopies",
              "type": "uint256"
            }
          ],
          "name": "addNewBook",
          "outputs": [],
          "stateMutability": "nonpayable",
          "type": "function"
        },
        {
          "inputs": [],
          "name": "booksAvaliable",
          "outputs": [
            {
              "internalType": "uint256[]",
              "name": "",
              "type": "uint256[]"
            }
          ],
          "stateMutability": "view",
          "type": "function"
        },
        {
          "inputs": [
            {
              "internalType": "uint256",
              "name": "_deweyDeciamalId",
              "type": "uint256"
            }
          ],
          "name": "borrowBook",
          "outputs": [],
          "stateMutability": "nonpayable",
          "type": "function"
        },
        {
          "inputs": [],
          "name": "deweyDecimalId",
          "outputs": [
            {
              "internalType": "uint256",
              "name": "",
              "type": "uint256"
            }
          ],
          "stateMutability": "view",
          "type": "function"
        },
        {
          "inputs": [],
          "name": "libraryTotalHistory",
          "outputs": [
            {
              "internalType": "address[]",
              "name": "",
              "type": "address[]"
            }
          ],
          "stateMutability": "view",
          "type": "function"
        },
        {
          "inputs": [],
          "name": "owner",
          "outputs": [
            {
              "internalType": "address",
              "name": "",
              "type": "address"
            }
          ],
          "stateMutability": "view",
          "type": "function"
        },
        {
          "inputs": [
            {
              "internalType": "uint256",
              "name": "_deweyDeciamalId",
              "type": "uint256"
            }
          ],
          "name": "returnBook",
          "outputs": [],
          "stateMutability": "nonpayable",
          "type": "function"
        },
        {
          "inputs": [
            {
              "internalType": "uint256",
              "name": "_deweyDecimalId",
              "type": "uint256"
            }
          ],
          "name": "whoHasTheBookIWant",
          "outputs": [
            {
              "internalType": "address[]",
              "name": "",
              "type": "address[]"
            }
          ],
          "stateMutability": "view",
          "type": "function"
        }
      ],
      "evm": {
        "bytecode": {
          "linkReferences": {},
          "object": "608060405234801561001057600080fd5b50336000806101000a81548173ffffffffffffffffffffffffffffffffffffffff021916908373ffffffffffffffffffffffffffffffffffffffff160217905550611af8806100606000396000f3fe608060405234801561001057600080fd5b506004361061009e5760003560e01c80638da5cb5b116100665780638da5cb5b14610149578063bc4d114114610167578063c0d0198914610183578063ca5140c91461019f578063fb011944146101bb5761009e565b806318dfba68146100a35780637705eff3146100c157806377d970ba146100f15780637e490a9e1461010f578063821764361461012b575b600080fd5b6100ab6101ee565b6040516100b89190611449565b60405180910390f35b6100db60048036038101906100d691906110c3565b610428565b6040516100e89190611427565b60405180910390f35b6100f9610597565b60405161010691906115de565b60405180910390f35b610129600480360381019061012491906110c3565b61059d565b005b6101336107f3565b6040516101409190611427565b60405180910390f35b610151610881565b60405161015e919061140c565b60405180910390f35b610181600480360381019061017c9190611044565b6108a5565b005b61019d600480360381019061019891906110ec565b610b13565b005b6101b960048036038101906101b491906110c3565b610c8a565b005b6101d560048036038101906101d091906110c3565b610de4565b6040516101e5949392919061146b565b60405180910390f35b6060600080600190505b60015481116102a957600a60003373ffffffffffffffffffffffffffffffffffffffff1673ffffffffffffffffffffffffffffffffffffffff168152602001908152602001600020600082815260200190815260200160002060009054906101000a900460ff16158015610282575060006009600083815260200190815260200160002060020154115b1561029657818061029290611853565b9250505b80806102a190611853565b9150506101f8565b5060008167ffffffffffffffff8111156102ec577f4e487b7100000000000000000000000000000000000000000000000000000000600052604160045260246000fd5b60405190808252806020026020018201604052801561031a5781602001602082028036833780820191505090505b509050600091506000600190505b600154811161041f57600a60003373ffffffffffffffffffffffffffffffffffffffff1673ffffffffffffffffffffffffffffffffffffffff168152602001908152602001600020600082815260200190815260200160002060009054906101000a900460ff161580156103b2575060006009600083815260200190815260200160002060020154115b1561040c57808284815181106103f1577f4e487b7100000000000000000000000000000000000000000000000000000000600052603260045260246000fd5b602002602001018181525050828061040890611853565b9350505b808061041790611853565b915050610328565b50809250505090565b60606000600960008481526020019081526020016000206003015467ffffffffffffffff811115610482577f4e487b7100000000000000000000000000000000000000000000000000000000600052604160045260246000fd5b6040519080825280602002602001820160405280156104b05781602001602082028036833780820191505090505b50905060005b815181101561058d5760096000858152602001908152602001600020600401600082815260200190815260200160002060009054906101000a900473ffffffffffffffffffffffffffffffffffffffff16828281518110610540577f4e487b7100000000000000000000000000000000000000000000000000000000600052603260045260246000fd5b602002602001019073ffffffffffffffffffffffffffffffffffffffff16908173ffffffffffffffffffffffffffffffffffffffff1681525050808061058590611853565b9150506104b6565b5080915050919050565b60015481565b600a60003373ffffffffffffffffffffffffffffffffffffffff1673ffffffffffffffffffffffffffffffffffffffff168152602001908152602001600020600082815260200190815260200160002060009054906101000a900460ff161561063b576040517f08c379a0000000000000000000000000000000000000000000000000000000008152600401610632906114de565b60405180910390fd5b60006009600083815260200190815260200160002090506000816002015411610699576040517f08c379a0000000000000000000000000000000000000000000000000000000008152600401610690906114fe565b60405180910390fd5b600181600201546106aa919061173e565b81600201819055506001600a60003373ffffffffffffffffffffffffffffffffffffffff1673ffffffffffffffffffffffffffffffffffffffff168152602001908152602001600020600084815260200190815260200160002060006101000a81548160ff021916908315150217905550338160040160008360030154815260200190815260200160002060006101000a81548173ffffffffffffffffffffffffffffffffffffffff021916908373ffffffffffffffffffffffffffffffffffffffff1602179055506001816003015461078491906116e8565b81600301819055506002339080600181540180825580915050600190039060005260206000200160009091909190916101000a81548173ffffffffffffffffffffffffffffffffffffffff021916908373ffffffffffffffffffffffffffffffffffffffff1602179055505050565b6060600280548060200260200160405190810160405280929190818152602001828054801561087757602002820191906000526020600020905b8160009054906101000a900473ffffffffffffffffffffffffffffffffffffffff1673ffffffffffffffffffffffffffffffffffffffff168152602001906001019080831161082d575b5050505050905090565b60008054906101000a900473ffffffffffffffffffffffffffffffffffffffff1681565b3373ffffffffffffffffffffffffffffffffffffffff1660008054906101000a900473ffffffffffffffffffffffffffffffffffffffff1673ffffffffffffffffffffffffffffffffffffffff1614610933576040517f08c379a000000000000000000000000000000000000000000000000000000000815260040161092a9061151e565b60405180910390fd5b8260088160405161094491906113f5565b908152602001604051809103902060009054906101000a900460ff16156109a0576040517f08c379a00000000000000000000000000000000000000000000000000000000081526004016109979061155e565b60405180910390fd5b6000845114156109e5576040517f08c379a00000000000000000000000000000000000000000000000000000000081526004016109dc9061159e565b60405180910390fd5b600083511415610a2a576040517f08c379a0000000000000000000000000000000000000000000000000000000008152600401610a219061159e565b60405180910390fd5b60008211610a6d576040517f08c379a0000000000000000000000000000000000000000000000000000000008152600401610a649061153e565b60405180910390fd5b60018054610a7b91906116e8565b6001819055506001600885604051610a9391906113f5565b908152602001604051809103902060006101000a81548160ff0219169083151502179055506000600960006001548152602001908152602001600020905084816000019080519060200190610ae9929190610f24565b5083816001019080519060200190610b02929190610f24565b508281600201819055505050505050565b3373ffffffffffffffffffffffffffffffffffffffff1660008054906101000a900473ffffffffffffffffffffffffffffffffffffffff1673ffffffffffffffffffffffffffffffffffffffff1614610ba1576040517f08c379a0000000000000000000000000000000000000000000000000000000008152600401610b989061151e565b60405180910390fd5b81600060096000600154815260200190815260200160002090506000816000018054610bcc906117f0565b90501415610c0f576040517f08c379a0000000000000000000000000000000000000000000000000000000008152600401610c069061157e565b60405180910390fd5b60008311610c52576040517f08c379a0000000000000000000000000000000000000000000000000000000008152600401610c49906115be565b60405180910390fd5b60006009600060015481526020019081526020016000209050838160020154610c7b91906116e8565b81600201819055505050505050565b60011515600a60003373ffffffffffffffffffffffffffffffffffffffff1673ffffffffffffffffffffffffffffffffffffffff168152602001908152602001600020600083815260200190815260200160002060009054906101000a900460ff16151514610d2e576040517f08c379a0000000000000000000000000000000000000000000000000000000008152600401610d25906114be565b60405180910390fd5b600060096000838152602001908152602001600020905060018160030154610d56919061173e565b816003018190555060018160020154610d6f91906116e8565b81600201819055506000600a60003373ffffffffffffffffffffffffffffffffffffffff1673ffffffffffffffffffffffffffffffffffffffff168152602001908152602001600020600084815260200190815260200160002060006101000a81548160ff0219169083151502179055505050565b6009602052806000526040600020600091509050806000018054610e07906117f0565b80601f0160208091040260200160405190810160405280929190818152602001828054610e33906117f0565b8015610e805780601f10610e5557610100808354040283529160200191610e80565b820191906000526020600020905b815481529060010190602001808311610e6357829003601f168201915b505050505090806001018054610e95906117f0565b80601f0160208091040260200160405190810160405280929190818152602001828054610ec1906117f0565b8015610f0e5780601f10610ee357610100808354040283529160200191610f0e565b820191906000526020600020905b815481529060010190602001808311610ef157829003601f168201915b5050505050908060020154908060030154905084565b828054610f30906117f0565b90600052602060002090601f016020900481019282610f525760008555610f99565b82601f10610f6b57805160ff1916838001178555610f99565b82800160010185558215610f99579182015b82811115610f98578251825591602001919060010190610f7d565b5b509050610fa69190610faa565b5090565b5b80821115610fc3576000816000905550600101610fab565b5090565b6000610fda610fd58461161e565b6115f9565b905082815260208101848484011115610ff257600080fd5b610ffd8482856117ae565b509392505050565b600082601f83011261101657600080fd5b8135611026848260208601610fc7565b91505092915050565b60008135905061103e81611aab565b92915050565b60008060006060848603121561105957600080fd5b600084013567ffffffffffffffff81111561107357600080fd5b61107f86828701611005565b935050602084013567ffffffffffffffff81111561109c57600080fd5b6110a886828701611005565b92505060406110b98682870161102f565b9150509250925092565b6000602082840312156110d557600080fd5b60006110e38482850161102f565b91505092915050565b600080604083850312156110ff57600080fd5b600061110d8582860161102f565b925050602061111e8582860161102f565b9150509250929050565b60006111348383611158565b60208301905092915050565b600061114c83836113d7565b60208301905092915050565b61116181611772565b82525050565b61117081611772565b82525050565b60006111818261166f565b61118b81856116aa565b93506111968361164f565b8060005b838110156111c75781516111ae8882611128565b97506111b983611690565b92505060018101905061119a565b5085935050505092915050565b60006111df8261167a565b6111e981856116bb565b93506111f48361165f565b8060005b8381101561122557815161120c8882611140565b97506112178361169d565b9250506001810190506111f8565b5085935050505092915050565b600061123d82611685565b61124781856116cc565b93506112578185602086016117bd565b61126081611929565b840191505092915050565b600061127682611685565b61128081856116dd565b93506112908185602086016117bd565b80840191505092915050565b60006112a96011836116cc565b91506112b48261193a565b602082019050919050565b60006112cc6019836116cc565b91506112d782611963565b602082019050919050565b60006112ef6017836116cc565b91506112fa8261198c565b602082019050919050565b6000611312600d836116cc565b915061131d826119b5565b602082019050919050565b6000611335601a836116cc565b9150611340826119de565b602082019050919050565b60006113586017836116cc565b915061136382611a07565b602082019050919050565b600061137b6013836116cc565b915061138682611a30565b602082019050919050565b600061139e6018836116cc565b91506113a982611a59565b602082019050919050565b60006113c16014836116cc565b91506113cc82611a82565b602082019050919050565b6113e0816117a4565b82525050565b6113ef816117a4565b82525050565b6000611401828461126b565b915081905092915050565b60006020820190506114216000830184611167565b92915050565b600060208201905081810360008301526114418184611176565b905092915050565b6000602082019050818103600083015261146381846111d4565b905092915050565b600060808201905081810360008301526114858187611232565b905081810360208301526114998186611232565b90506114a860408301856113e6565b6114b560608301846113e6565b95945050505050565b600060208201905081810360008301526114d78161129c565b9050919050565b600060208201905081810360008301526114f7816112bf565b9050919050565b60006020820190508181036000830152611517816112e2565b9050919050565b6000602082019050818103600083015261153781611305565b9050919050565b6000602082019050818103600083015261155781611328565b9050919050565b600060208201905081810360008301526115778161134b565b9050919050565b600060208201905081810360008301526115978161136e565b9050919050565b600060208201905081810360008301526115b781611391565b9050919050565b600060208201905081810360008301526115d7816113b4565b9050919050565b60006020820190506115f360008301846113e6565b92915050565b6000611603611614565b905061160f8282611822565b919050565b6000604051905090565b600067ffffffffffffffff821115611639576116386118fa565b5b61164282611929565b9050602081019050919050565b6000819050602082019050919050565b6000819050602082019050919050565b600081519050919050565b600081519050919050565b600081519050919050565b6000602082019050919050565b6000602082019050919050565b600082825260208201905092915050565b600082825260208201905092915050565b600082825260208201905092915050565b600081905092915050565b60006116f3826117a4565b91506116fe836117a4565b9250827fffffffffffffffffffffffffffffffffffffffffffffffffffffffffffffffff038211156117335761173261189c565b5b828201905092915050565b6000611749826117a4565b9150611754836117a4565b9250828210156117675761176661189c565b5b828203905092915050565b600061177d82611784565b9050919050565b600073ffffffffffffffffffffffffffffffffffffffff82169050919050565b6000819050919050565b82818337600083830152505050565b60005b838110156117db5780820151818401526020810190506117c0565b838111156117ea576000848401525b50505050565b6000600282049050600182168061180857607f821691505b6020821081141561181c5761181b6118cb565b5b50919050565b61182b82611929565b810181811067ffffffffffffffff8211171561184a576118496118fa565b5b80604052505050565b600061185e826117a4565b91507fffffffffffffffffffffffffffffffffffffffffffffffffffffffffffffffff8214156118915761189061189c565b5b600182019050919050565b7f4e487b7100000000000000000000000000000000000000000000000000000000600052601160045260246000fd5b7f4e487b7100000000000000000000000000000000000000000000000000000000600052602260045260246000fd5b7f4e487b7100000000000000000000000000000000000000000000000000000000600052604160045260246000fd5b6000601f19601f8301169050919050565b7f4e6f20636f707920746f2072657475726e000000000000000000000000000000600082015250565b7f5573657220616c72656164792068617320636f7079206f757400000000000000600082015250565b7f4e6f20626f6f6b73206c65667420746f20626f72726f77000000000000000000600082015250565b7f4e6f7420746865206f776e657200000000000000000000000000000000000000600082015250565b7f4d75737420686176652061746c65617374206f6e6520636f7079000000000000600082015250565b7f426f6f6b20616c726561647920696e206c696272617279000000000000000000600082015250565b7f426f6f6b20646f6573206e6f7420657869737400000000000000000000000000600082015250565b7f426f6f6b206e616d652063616e277420626520656d7074790000000000000000600082015250565b7f43616e7420616464207a65726f20436f70696573000000000000000000000000600082015250565b611ab4816117a4565b8114611abf57600080fd5b5056fea2646970667358221220e315b7e1de7f70b269702669b9979720059f2355c8b2d388ed78d51dc46d541264736f6c63430008040033",
          "opcodes": "PUSH1 0x80 PUSH1 0x40 MSTORE CALLVALUE DUP1 ISZERO PUSH2 0x10 JUMPI PUSH1 0x0 DUP1 REVERT JUMPDEST POP CALLER PUSH1 0x0 DUP1 PUSH2 0x100 EXP DUP2 SLOAD DUP2 PUSH20 0xFFFFFFFFFFFFFFFFFFFFFFFFFFFFFFFFFFFFFFFF MUL NOT AND SWAP1 DUP4 PUSH20 0xFFFFFFFFFFFFFFFFFFFFFFFFFFFFFFFFFFFFFFFF AND MUL OR SWAP1 SSTORE POP PUSH2 0x1AF8 DUP1 PUSH2 0x60 PUSH1 0x0 CODECOPY PUSH1 0x0 RETURN INVALID PUSH1 0x80 PUSH1 0x40 MSTORE CALLVALUE DUP1 ISZERO PUSH2 0x10 JUMPI PUSH1 0x0 DUP1 REVERT JUMPDEST POP PUSH1 0x4 CALLDATASIZE LT PUSH2 0x9E JUMPI PUSH1 0x0 CALLDATALOAD PUSH1 0xE0 SHR DUP1 PUSH4 0x8DA5CB5B GT PUSH2 0x66 JUMPI DUP1 PUSH4 0x8DA5CB5B EQ PUSH2 0x149 JUMPI DUP1 PUSH4 0xBC4D1141 EQ PUSH2 0x167 JUMPI DUP1 PUSH4 0xC0D01989 EQ PUSH2 0x183 JUMPI DUP1 PUSH4 0xCA5140C9 EQ PUSH2 0x19F JUMPI DUP1 PUSH4 0xFB011944 EQ PUSH2 0x1BB JUMPI PUSH2 0x9E JUMP JUMPDEST DUP1 PUSH4 0x18DFBA68 EQ PUSH2 0xA3 JUMPI DUP1 PUSH4 0x7705EFF3 EQ PUSH2 0xC1 JUMPI DUP1 PUSH4 0x77D970BA EQ PUSH2 0xF1 JUMPI DUP1 PUSH4 0x7E490A9E EQ PUSH2 0x10F JUMPI DUP1 PUSH4 0x82176436 EQ PUSH2 0x12B JUMPI JUMPDEST PUSH1 0x0 DUP1 REVERT JUMPDEST PUSH2 0xAB PUSH2 0x1EE JUMP JUMPDEST PUSH1 0x40 MLOAD PUSH2 0xB8 SWAP2 SWAP1 PUSH2 0x1449 JUMP JUMPDEST PUSH1 0x40 MLOAD DUP1 SWAP2 SUB SWAP1 RETURN JUMPDEST PUSH2 0xDB PUSH1 0x4 DUP1 CALLDATASIZE SUB DUP2 ADD SWAP1 PUSH2 0xD6 SWAP2 SWAP1 PUSH2 0x10C3 JUMP JUMPDEST PUSH2 0x428 JUMP JUMPDEST PUSH1 0x40 MLOAD PUSH2 0xE8 SWAP2 SWAP1 PUSH2 0x1427 JUMP JUMPDEST PUSH1 0x40 MLOAD DUP1 SWAP2 SUB SWAP1 RETURN JUMPDEST PUSH2 0xF9 PUSH2 0x597 JUMP JUMPDEST PUSH1 0x40 MLOAD PUSH2 0x106 SWAP2 SWAP1 PUSH2 0x15DE JUMP JUMPDEST PUSH1 0x40 MLOAD DUP1 SWAP2 SUB SWAP1 RETURN JUMPDEST PUSH2 0x129 PUSH1 0x4 DUP1 CALLDATASIZE SUB DUP2 ADD SWAP1 PUSH2 0x124 SWAP2 SWAP1 PUSH2 0x10C3 JUMP JUMPDEST PUSH2 0x59D JUMP JUMPDEST STOP JUMPDEST PUSH2 0x133 PUSH2 0x7F3 JUMP JUMPDEST PUSH1 0x40 MLOAD PUSH2 0x140 SWAP2 SWAP1 PUSH2 0x1427 JUMP JUMPDEST PUSH1 0x40 MLOAD DUP1 SWAP2 SUB SWAP1 RETURN JUMPDEST PUSH2 0x151 PUSH2 0x881 JUMP JUMPDEST PUSH1 0x40 MLOAD PUSH2 0x15E SWAP2 SWAP1 PUSH2 0x140C JUMP JUMPDEST PUSH1 0x40 MLOAD DUP1 SWAP2 SUB SWAP1 RETURN JUMPDEST PUSH2 0x181 PUSH1 0x4 DUP1 CALLDATASIZE SUB DUP2 ADD SWAP1 PUSH2 0x17C SWAP2 SWAP1 PUSH2 0x1044 JUMP JUMPDEST PUSH2 0x8A5 JUMP JUMPDEST STOP JUMPDEST PUSH2 0x19D PUSH1 0x4 DUP1 CALLDATASIZE SUB DUP2 ADD SWAP1 PUSH2 0x198 SWAP2 SWAP1 PUSH2 0x10EC JUMP JUMPDEST PUSH2 0xB13 JUMP JUMPDEST STOP JUMPDEST PUSH2 0x1B9 PUSH1 0x4 DUP1 CALLDATASIZE SUB DUP2 ADD SWAP1 PUSH2 0x1B4 SWAP2 SWAP1 PUSH2 0x10C3 JUMP JUMPDEST PUSH2 0xC8A JUMP JUMPDEST STOP JUMPDEST PUSH2 0x1D5 PUSH1 0x4 DUP1 CALLDATASIZE SUB DUP2 ADD SWAP1 PUSH2 0x1D0 SWAP2 SWAP1 PUSH2 0x10C3 JUMP JUMPDEST PUSH2 0xDE4 JUMP JUMPDEST PUSH1 0x40 MLOAD PUSH2 0x1E5 SWAP5 SWAP4 SWAP3 SWAP2 SWAP1 PUSH2 0x146B JUMP JUMPDEST PUSH1 0x40 MLOAD DUP1 SWAP2 SUB SWAP1 RETURN JUMPDEST PUSH1 0x60 PUSH1 0x0 DUP1 PUSH1 0x1 SWAP1 POP JUMPDEST PUSH1 0x1 SLOAD DUP2 GT PUSH2 0x2A9 JUMPI PUSH1 0xA PUSH1 0x0 CALLER PUSH20 0xFFFFFFFFFFFFFFFFFFFFFFFFFFFFFFFFFFFFFFFF AND PUSH20 0xFFFFFFFFFFFFFFFFFFFFFFFFFFFFFFFFFFFFFFFF AND DUP2 MSTORE PUSH1 0x20 ADD SWAP1 DUP2 MSTORE PUSH1 0x20 ADD PUSH1 0x0 KECCAK256 PUSH1 0x0 DUP3 DUP2 MSTORE PUSH1 0x20 ADD SWAP1 DUP2 MSTORE PUSH1 0x20 ADD PUSH1 0x0 KECCAK256 PUSH1 0x0 SWAP1 SLOAD SWAP1 PUSH2 0x100 EXP SWAP1 DIV PUSH1 0xFF AND ISZERO DUP1 ISZERO PUSH2 0x282 JUMPI POP PUSH1 0x0 PUSH1 0x9 PUSH1 0x0 DUP4 DUP2 MSTORE PUSH1 0x20 ADD SWAP1 DUP2 MSTORE PUSH1 0x20 ADD PUSH1 0x0 KECCAK256 PUSH1 0x2 ADD SLOAD GT JUMPDEST ISZERO PUSH2 0x296 JUMPI DUP2 DUP1 PUSH2 0x292 SWAP1 PUSH2 0x1853 JUMP JUMPDEST SWAP3 POP POP JUMPDEST DUP1 DUP1 PUSH2 0x2A1 SWAP1 PUSH2 0x1853 JUMP JUMPDEST SWAP2 POP POP PUSH2 0x1F8 JUMP JUMPDEST POP PUSH1 0x0 DUP2 PUSH8 0xFFFFFFFFFFFFFFFF DUP2 GT ISZERO PUSH2 0x2EC JUMPI PUSH32 0x4E487B7100000000000000000000000000000000000000000000000000000000 PUSH1 0x0 MSTORE PUSH1 0x41 PUSH1 0x4 MSTORE PUSH1 0x24 PUSH1 0x0 REVERT JUMPDEST PUSH1 0x40 MLOAD SWAP1 DUP1 DUP3 MSTORE DUP1 PUSH1 0x20 MUL PUSH1 0x20 ADD DUP3 ADD PUSH1 0x40 MSTORE DUP1 ISZERO PUSH2 0x31A JUMPI DUP2 PUSH1 0x20 ADD PUSH1 0x20 DUP3 MUL DUP1 CALLDATASIZE DUP4 CALLDATACOPY DUP1 DUP3 ADD SWAP2 POP POP SWAP1 POP JUMPDEST POP SWAP1 POP PUSH1 0x0 SWAP2 POP PUSH1 0x0 PUSH1 0x1 SWAP1 POP JUMPDEST PUSH1 0x1 SLOAD DUP2 GT PUSH2 0x41F JUMPI PUSH1 0xA PUSH1 0x0 CALLER PUSH20 0xFFFFFFFFFFFFFFFFFFFFFFFFFFFFFFFFFFFFFFFF AND PUSH20 0xFFFFFFFFFFFFFFFFFFFFFFFFFFFFFFFFFFFFFFFF AND DUP2 MSTORE PUSH1 0x20 ADD SWAP1 DUP2 MSTORE PUSH1 0x20 ADD PUSH1 0x0 KECCAK256 PUSH1 0x0 DUP3 DUP2 MSTORE PUSH1 0x20 ADD SWAP1 DUP2 MSTORE PUSH1 0x20 ADD PUSH1 0x0 KECCAK256 PUSH1 0x0 SWAP1 SLOAD SWAP1 PUSH2 0x100 EXP SWAP1 DIV PUSH1 0xFF AND ISZERO DUP1 ISZERO PUSH2 0x3B2 JUMPI POP PUSH1 0x0 PUSH1 0x9 PUSH1 0x0 DUP4 DUP2 MSTORE PUSH1 0x20 ADD SWAP1 DUP2 MSTORE PUSH1 0x20 ADD PUSH1 0x0 KECCAK256 PUSH1 0x2 ADD SLOAD GT JUMPDEST ISZERO PUSH2 0x40C JUMPI DUP1 DUP3 DUP5 DUP2 MLOAD DUP2 LT PUSH2 0x3F1 JUMPI PUSH32 0x4E487B7100000000000000000000000000000000000000000000000000000000 PUSH1 0x0 MSTORE PUSH1 0x32 PUSH1 0x4 MSTORE PUSH1 0x24 PUSH1 0x0 REVERT JUMPDEST PUSH1 0x20 MUL PUSH1 0x20 ADD ADD DUP2 DUP2 MSTORE POP POP DUP3 DUP1 PUSH2 0x408 SWAP1 PUSH2 0x1853 JUMP JUMPDEST SWAP4 POP POP JUMPDEST DUP1 DUP1 PUSH2 0x417 SWAP1 PUSH2 0x1853 JUMP JUMPDEST SWAP2 POP POP PUSH2 0x328 JUMP JUMPDEST POP DUP1 SWAP3 POP POP POP SWAP1 JUMP JUMPDEST PUSH1 0x60 PUSH1 0x0 PUSH1 0x9 PUSH1 0x0 DUP5 DUP2 MSTORE PUSH1 0x20 ADD SWAP1 DUP2 MSTORE PUSH1 0x20 ADD PUSH1 0x0 KECCAK256 PUSH1 0x3 ADD SLOAD PUSH8 0xFFFFFFFFFFFFFFFF DUP2 GT ISZERO PUSH2 0x482 JUMPI PUSH32 0x4E487B7100000000000000000000000000000000000000000000000000000000 PUSH1 0x0 MSTORE PUSH1 0x41 PUSH1 0x4 MSTORE PUSH1 0x24 PUSH1 0x0 REVERT JUMPDEST PUSH1 0x40 MLOAD SWAP1 DUP1 DUP3 MSTORE DUP1 PUSH1 0x20 MUL PUSH1 0x20 ADD DUP3 ADD PUSH1 0x40 MSTORE DUP1 ISZERO PUSH2 0x4B0 JUMPI DUP2 PUSH1 0x20 ADD PUSH1 0x20 DUP3 MUL DUP1 CALLDATASIZE DUP4 CALLDATACOPY DUP1 DUP3 ADD SWAP2 POP POP SWAP1 POP JUMPDEST POP SWAP1 POP PUSH1 0x0 JUMPDEST DUP2 MLOAD DUP2 LT ISZERO PUSH2 0x58D JUMPI PUSH1 0x9 PUSH1 0x0 DUP6 DUP2 MSTORE PUSH1 0x20 ADD SWAP1 DUP2 MSTORE PUSH1 0x20 ADD PUSH1 0x0 KECCAK256 PUSH1 0x4 ADD PUSH1 0x0 DUP3 DUP2 MSTORE PUSH1 0x20 ADD SWAP1 DUP2 MSTORE PUSH1 0x20 ADD PUSH1 0x0 KECCAK256 PUSH1 0x0 SWAP1 SLOAD SWAP1 PUSH2 0x100 EXP SWAP1 DIV PUSH20 0xFFFFFFFFFFFFFFFFFFFFFFFFFFFFFFFFFFFFFFFF AND DUP3 DUP3 DUP2 MLOAD DUP2 LT PUSH2 0x540 JUMPI PUSH32 0x4E487B7100000000000000000000000000000000000000000000000000000000 PUSH1 0x0 MSTORE PUSH1 0x32 PUSH1 0x4 MSTORE PUSH1 0x24 PUSH1 0x0 REVERT JUMPDEST PUSH1 0x20 MUL PUSH1 0x20 ADD ADD SWAP1 PUSH20 0xFFFFFFFFFFFFFFFFFFFFFFFFFFFFFFFFFFFFFFFF AND SWAP1 DUP2 PUSH20 0xFFFFFFFFFFFFFFFFFFFFFFFFFFFFFFFFFFFFFFFF AND DUP2 MSTORE POP POP DUP1 DUP1 PUSH2 0x585 SWAP1 PUSH2 0x1853 JUMP JUMPDEST SWAP2 POP POP PUSH2 0x4B6 JUMP JUMPDEST POP DUP1 SWAP2 POP POP SWAP2 SWAP1 POP JUMP JUMPDEST PUSH1 0x1 SLOAD DUP2 JUMP JUMPDEST PUSH1 0xA PUSH1 0x0 CALLER PUSH20 0xFFFFFFFFFFFFFFFFFFFFFFFFFFFFFFFFFFFFFFFF AND PUSH20 0xFFFFFFFFFFFFFFFFFFFFFFFFFFFFFFFFFFFFFFFF AND DUP2 MSTORE PUSH1 0x20 ADD SWAP1 DUP2 MSTORE PUSH1 0x20 ADD PUSH1 0x0 KECCAK256 PUSH1 0x0 DUP3 DUP2 MSTORE PUSH1 0x20 ADD SWAP1 DUP2 MSTORE PUSH1 0x20 ADD PUSH1 0x0 KECCAK256 PUSH1 0x0 SWAP1 SLOAD SWAP1 PUSH2 0x100 EXP SWAP1 DIV PUSH1 0xFF AND ISZERO PUSH2 0x63B JUMPI PUSH1 0x40 MLOAD PUSH32 0x8C379A000000000000000000000000000000000000000000000000000000000 DUP2 MSTORE PUSH1 0x4 ADD PUSH2 0x632 SWAP1 PUSH2 0x14DE JUMP JUMPDEST PUSH1 0x40 MLOAD DUP1 SWAP2 SUB SWAP1 REVERT JUMPDEST PUSH1 0x0 PUSH1 0x9 PUSH1 0x0 DUP4 DUP2 MSTORE PUSH1 0x20 ADD SWAP1 DUP2 MSTORE PUSH1 0x20 ADD PUSH1 0x0 KECCAK256 SWAP1 POP PUSH1 0x0 DUP2 PUSH1 0x2 ADD SLOAD GT PUSH2 0x699 JUMPI PUSH1 0x40 MLOAD PUSH32 0x8C379A000000000000000000000000000000000000000000000000000000000 DUP2 MSTORE PUSH1 0x4 ADD PUSH2 0x690 SWAP1 PUSH2 0x14FE JUMP JUMPDEST PUSH1 0x40 MLOAD DUP1 SWAP2 SUB SWAP1 REVERT JUMPDEST PUSH1 0x1 DUP2 PUSH1 0x2 ADD SLOAD PUSH2 0x6AA SWAP2 SWAP1 PUSH2 0x173E JUMP JUMPDEST DUP2 PUSH1 0x2 ADD DUP2 SWAP1 SSTORE POP PUSH1 0x1 PUSH1 0xA PUSH1 0x0 CALLER PUSH20 0xFFFFFFFFFFFFFFFFFFFFFFFFFFFFFFFFFFFFFFFF AND PUSH20 0xFFFFFFFFFFFFFFFFFFFFFFFFFFFFFFFFFFFFFFFF AND DUP2 MSTORE PUSH1 0x20 ADD SWAP1 DUP2 MSTORE PUSH1 0x20 ADD PUSH1 0x0 KECCAK256 PUSH1 0x0 DUP5 DUP2 MSTORE PUSH1 0x20 ADD SWAP1 DUP2 MSTORE PUSH1 0x20 ADD PUSH1 0x0 KECCAK256 PUSH1 0x0 PUSH2 0x100 EXP DUP2 SLOAD DUP2 PUSH1 0xFF MUL NOT AND SWAP1 DUP4 ISZERO ISZERO MUL OR SWAP1 SSTORE POP CALLER DUP2 PUSH1 0x4 ADD PUSH1 0x0 DUP4 PUSH1 0x3 ADD SLOAD DUP2 MSTORE PUSH1 0x20 ADD SWAP1 DUP2 MSTORE PUSH1 0x20 ADD PUSH1 0x0 KECCAK256 PUSH1 0x0 PUSH2 0x100 EXP DUP2 SLOAD DUP2 PUSH20 0xFFFFFFFFFFFFFFFFFFFFFFFFFFFFFFFFFFFFFFFF MUL NOT AND SWAP1 DUP4 PUSH20 0xFFFFFFFFFFFFFFFFFFFFFFFFFFFFFFFFFFFFFFFF AND MUL OR SWAP1 SSTORE POP PUSH1 0x1 DUP2 PUSH1 0x3 ADD SLOAD PUSH2 0x784 SWAP2 SWAP1 PUSH2 0x16E8 JUMP JUMPDEST DUP2 PUSH1 0x3 ADD DUP2 SWAP1 SSTORE POP PUSH1 0x2 CALLER SWAP1 DUP1 PUSH1 0x1 DUP2 SLOAD ADD DUP1 DUP3 SSTORE DUP1 SWAP2 POP POP PUSH1 0x1 SWAP1 SUB SWAP1 PUSH1 0x0 MSTORE PUSH1 0x20 PUSH1 0x0 KECCAK256 ADD PUSH1 0x0 SWAP1 SWAP2 SWAP1 SWAP2 SWAP1 SWAP2 PUSH2 0x100 EXP DUP2 SLOAD DUP2 PUSH20 0xFFFFFFFFFFFFFFFFFFFFFFFFFFFFFFFFFFFFFFFF MUL NOT AND SWAP1 DUP4 PUSH20 0xFFFFFFFFFFFFFFFFFFFFFFFFFFFFFFFFFFFFFFFF AND MUL OR SWAP1 SSTORE POP POP POP JUMP JUMPDEST PUSH1 0x60 PUSH1 0x2 DUP1 SLOAD DUP1 PUSH1 0x20 MUL PUSH1 0x20 ADD PUSH1 0x40 MLOAD SWAP1 DUP2 ADD PUSH1 0x40 MSTORE DUP1 SWAP3 SWAP2 SWAP1 DUP2 DUP2 MSTORE PUSH1 0x20 ADD DUP3 DUP1 SLOAD DUP1 ISZERO PUSH2 0x877 JUMPI PUSH1 0x20 MUL DUP3 ADD SWAP2 SWAP1 PUSH1 0x0 MSTORE PUSH1 0x20 PUSH1 0x0 KECCAK256 SWAP1 JUMPDEST DUP2 PUSH1 0x0 SWAP1 SLOAD SWAP1 PUSH2 0x100 EXP SWAP1 DIV PUSH20 0xFFFFFFFFFFFFFFFFFFFFFFFFFFFFFFFFFFFFFFFF AND PUSH20 0xFFFFFFFFFFFFFFFFFFFFFFFFFFFFFFFFFFFFFFFF AND DUP2 MSTORE PUSH1 0x20 ADD SWAP1 PUSH1 0x1 ADD SWAP1 DUP1 DUP4 GT PUSH2 0x82D JUMPI JUMPDEST POP POP POP POP POP SWAP1 POP SWAP1 JUMP JUMPDEST PUSH1 0x0 DUP1 SLOAD SWAP1 PUSH2 0x100 EXP SWAP1 DIV PUSH20 0xFFFFFFFFFFFFFFFFFFFFFFFFFFFFFFFFFFFFFFFF AND DUP2 JUMP JUMPDEST CALLER PUSH20 0xFFFFFFFFFFFFFFFFFFFFFFFFFFFFFFFFFFFFFFFF AND PUSH1 0x0 DUP1 SLOAD SWAP1 PUSH2 0x100 EXP SWAP1 DIV PUSH20 0xFFFFFFFFFFFFFFFFFFFFFFFFFFFFFFFFFFFFFFFF AND PUSH20 0xFFFFFFFFFFFFFFFFFFFFFFFFFFFFFFFFFFFFFFFF AND EQ PUSH2 0x933 JUMPI PUSH1 0x40 MLOAD PUSH32 0x8C379A000000000000000000000000000000000000000000000000000000000 DUP2 MSTORE PUSH1 0x4 ADD PUSH2 0x92A SWAP1 PUSH2 0x151E JUMP JUMPDEST PUSH1 0x40 MLOAD DUP1 SWAP2 SUB SWAP1 REVERT JUMPDEST DUP3 PUSH1 0x8 DUP2 PUSH1 0x40 MLOAD PUSH2 0x944 SWAP2 SWAP1 PUSH2 0x13F5 JUMP JUMPDEST SWAP1 DUP2 MSTORE PUSH1 0x20 ADD PUSH1 0x40 MLOAD DUP1 SWAP2 SUB SWAP1 KECCAK256 PUSH1 0x0 SWAP1 SLOAD SWAP1 PUSH2 0x100 EXP SWAP1 DIV PUSH1 0xFF AND ISZERO PUSH2 0x9A0 JUMPI PUSH1 0x40 MLOAD PUSH32 0x8C379A000000000000000000000000000000000000000000000000000000000 DUP2 MSTORE PUSH1 0x4 ADD PUSH2 0x997 SWAP1 PUSH2 0x155E JUMP JUMPDEST PUSH1 0x40 MLOAD DUP1 SWAP2 SUB SWAP1 REVERT JUMPDEST PUSH1 0x0 DUP5 MLOAD EQ ISZERO PUSH2 0x9E5 JUMPI PUSH1 0x40 MLOAD PUSH32 0x8C379A000000000000000000000000000000000000000000000000000000000 DUP2 MSTORE PUSH1 0x4 ADD PUSH2 0x9DC SWAP1 PUSH2 0x159E JUMP JUMPDEST PUSH1 0x40 MLOAD DUP1 SWAP2 SUB SWAP1 REVERT JUMPDEST PUSH1 0x0 DUP4 MLOAD EQ ISZERO PUSH2 0xA2A JUMPI PUSH1 0x40 MLOAD PUSH32 0x8C379A000000000000000000000000000000000000000000000000000000000 DUP2 MSTORE PUSH1 0x4 ADD PUSH2 0xA21 SWAP1 PUSH2 0x159E JUMP JUMPDEST PUSH1 0x40 MLOAD DUP1 SWAP2 SUB SWAP1 REVERT JUMPDEST PUSH1 0x0 DUP3 GT PUSH2 0xA6D JUMPI PUSH1 0x40 MLOAD PUSH32 0x8C379A000000000000000000000000000000000000000000000000000000000 DUP2 MSTORE PUSH1 0x4 ADD PUSH2 0xA64 SWAP1 PUSH2 0x153E JUMP JUMPDEST PUSH1 0x40 MLOAD DUP1 SWAP2 SUB SWAP1 REVERT JUMPDEST PUSH1 0x1 DUP1 SLOAD PUSH2 0xA7B SWAP2 SWAP1 PUSH2 0x16E8 JUMP JUMPDEST PUSH1 0x1 DUP2 SWAP1 SSTORE POP PUSH1 0x1 PUSH1 0x8 DUP6 PUSH1 0x40 MLOAD PUSH2 0xA93 SWAP2 SWAP1 PUSH2 0x13F5 JUMP JUMPDEST SWAP1 DUP2 MSTORE PUSH1 0x20 ADD PUSH1 0x40 MLOAD DUP1 SWAP2 SUB SWAP1 KECCAK256 PUSH1 0x0 PUSH2 0x100 EXP DUP2 SLOAD DUP2 PUSH1 0xFF MUL NOT AND SWAP1 DUP4 ISZERO ISZERO MUL OR SWAP1 SSTORE POP PUSH1 0x0 PUSH1 0x9 PUSH1 0x0 PUSH1 0x1 SLOAD DUP2 MSTORE PUSH1 0x20 ADD SWAP1 DUP2 MSTORE PUSH1 0x20 ADD PUSH1 0x0 KECCAK256 SWAP1 POP DUP5 DUP2 PUSH1 0x0 ADD SWAP1 DUP1 MLOAD SWAP1 PUSH1 0x20 ADD SWAP1 PUSH2 0xAE9 SWAP3 SWAP2 SWAP1 PUSH2 0xF24 JUMP JUMPDEST POP DUP4 DUP2 PUSH1 0x1 ADD SWAP1 DUP1 MLOAD SWAP1 PUSH1 0x20 ADD SWAP1 PUSH2 0xB02 SWAP3 SWAP2 SWAP1 PUSH2 0xF24 JUMP JUMPDEST POP DUP3 DUP2 PUSH1 0x2 ADD DUP2 SWAP1 SSTORE POP POP POP POP POP POP JUMP JUMPDEST CALLER PUSH20 0xFFFFFFFFFFFFFFFFFFFFFFFFFFFFFFFFFFFFFFFF AND PUSH1 0x0 DUP1 SLOAD SWAP1 PUSH2 0x100 EXP SWAP1 DIV PUSH20 0xFFFFFFFFFFFFFFFFFFFFFFFFFFFFFFFFFFFFFFFF AND PUSH20 0xFFFFFFFFFFFFFFFFFFFFFFFFFFFFFFFFFFFFFFFF AND EQ PUSH2 0xBA1 JUMPI PUSH1 0x40 MLOAD PUSH32 0x8C379A000000000000000000000000000000000000000000000000000000000 DUP2 MSTORE PUSH1 0x4 ADD PUSH2 0xB98 SWAP1 PUSH2 0x151E JUMP JUMPDEST PUSH1 0x40 MLOAD DUP1 SWAP2 SUB SWAP1 REVERT JUMPDEST DUP2 PUSH1 0x0 PUSH1 0x9 PUSH1 0x0 PUSH1 0x1 SLOAD DUP2 MSTORE PUSH1 0x20 ADD SWAP1 DUP2 MSTORE PUSH1 0x20 ADD PUSH1 0x0 KECCAK256 SWAP1 POP PUSH1 0x0 DUP2 PUSH1 0x0 ADD DUP1 SLOAD PUSH2 0xBCC SWAP1 PUSH2 0x17F0 JUMP JUMPDEST SWAP1 POP EQ ISZERO PUSH2 0xC0F JUMPI PUSH1 0x40 MLOAD PUSH32 0x8C379A000000000000000000000000000000000000000000000000000000000 DUP2 MSTORE PUSH1 0x4 ADD PUSH2 0xC06 SWAP1 PUSH2 0x157E JUMP JUMPDEST PUSH1 0x40 MLOAD DUP1 SWAP2 SUB SWAP1 REVERT JUMPDEST PUSH1 0x0 DUP4 GT PUSH2 0xC52 JUMPI PUSH1 0x40 MLOAD PUSH32 0x8C379A000000000000000000000000000000000000000000000000000000000 DUP2 MSTORE PUSH1 0x4 ADD PUSH2 0xC49 SWAP1 PUSH2 0x15BE JUMP JUMPDEST PUSH1 0x40 MLOAD DUP1 SWAP2 SUB SWAP1 REVERT JUMPDEST PUSH1 0x0 PUSH1 0x9 PUSH1 0x0 PUSH1 0x1 SLOAD DUP2 MSTORE PUSH1 0x20 ADD SWAP1 DUP2 MSTORE PUSH1 0x20 ADD PUSH1 0x0 KECCAK256 SWAP1 POP DUP4 DUP2 PUSH1 0x2 ADD SLOAD PUSH2 0xC7B SWAP2 SWAP1 PUSH2 0x16E8 JUMP JUMPDEST DUP2 PUSH1 0x2 ADD DUP2 SWAP1 SSTORE POP POP POP POP POP POP JUMP JUMPDEST PUSH1 0x1 ISZERO ISZERO PUSH1 0xA PUSH1 0x0 CALLER PUSH20 0xFFFFFFFFFFFFFFFFFFFFFFFFFFFFFFFFFFFFFFFF AND PUSH20 0xFFFFFFFFFFFFFFFFFFFFFFFFFFFFFFFFFFFFFFFF AND DUP2 MSTORE PUSH1 0x20 ADD SWAP1 DUP2 MSTORE PUSH1 0x20 ADD PUSH1 0x0 KECCAK256 PUSH1 0x0 DUP4 DUP2 MSTORE PUSH1 0x20 ADD SWAP1 DUP2 MSTORE PUSH1 0x20 ADD PUSH1 0x0 KECCAK256 PUSH1 0x0 SWAP1 SLOAD SWAP1 PUSH2 0x100 EXP SWAP1 DIV PUSH1 0xFF AND ISZERO ISZERO EQ PUSH2 0xD2E JUMPI PUSH1 0x40 MLOAD PUSH32 0x8C379A000000000000000000000000000000000000000000000000000000000 DUP2 MSTORE PUSH1 0x4 ADD PUSH2 0xD25 SWAP1 PUSH2 0x14BE JUMP JUMPDEST PUSH1 0x40 MLOAD DUP1 SWAP2 SUB SWAP1 REVERT JUMPDEST PUSH1 0x0 PUSH1 0x9 PUSH1 0x0 DUP4 DUP2 MSTORE PUSH1 0x20 ADD SWAP1 DUP2 MSTORE PUSH1 0x20 ADD PUSH1 0x0 KECCAK256 SWAP1 POP PUSH1 0x1 DUP2 PUSH1 0x3 ADD SLOAD PUSH2 0xD56 SWAP2 SWAP1 PUSH2 0x173E JUMP JUMPDEST DUP2 PUSH1 0x3 ADD DUP2 SWAP1 SSTORE POP PUSH1 0x1 DUP2 PUSH1 0x2 ADD SLOAD PUSH2 0xD6F SWAP2 SWAP1 PUSH2 0x16E8 JUMP JUMPDEST DUP2 PUSH1 0x2 ADD DUP2 SWAP1 SSTORE POP PUSH1 0x0 PUSH1 0xA PUSH1 0x0 CALLER PUSH20 0xFFFFFFFFFFFFFFFFFFFFFFFFFFFFFFFFFFFFFFFF AND PUSH20 0xFFFFFFFFFFFFFFFFFFFFFFFFFFFFFFFFFFFFFFFF AND DUP2 MSTORE PUSH1 0x20 ADD SWAP1 DUP2 MSTORE PUSH1 0x20 ADD PUSH1 0x0 KECCAK256 PUSH1 0x0 DUP5 DUP2 MSTORE PUSH1 0x20 ADD SWAP1 DUP2 MSTORE PUSH1 0x20 ADD PUSH1 0x0 KECCAK256 PUSH1 0x0 PUSH2 0x100 EXP DUP2 SLOAD DUP2 PUSH1 0xFF MUL NOT AND SWAP1 DUP4 ISZERO ISZERO MUL OR SWAP1 SSTORE POP POP POP JUMP JUMPDEST PUSH1 0x9 PUSH1 0x20 MSTORE DUP1 PUSH1 0x0 MSTORE PUSH1 0x40 PUSH1 0x0 KECCAK256 PUSH1 0x0 SWAP2 POP SWAP1 POP DUP1 PUSH1 0x0 ADD DUP1 SLOAD PUSH2 0xE07 SWAP1 PUSH2 0x17F0 JUMP JUMPDEST DUP1 PUSH1 0x1F ADD PUSH1 0x20 DUP1 SWAP2 DIV MUL PUSH1 0x20 ADD PUSH1 0x40 MLOAD SWAP1 DUP2 ADD PUSH1 0x40 MSTORE DUP1 SWAP3 SWAP2 SWAP1 DUP2 DUP2 MSTORE PUSH1 0x20 ADD DUP3 DUP1 SLOAD PUSH2 0xE33 SWAP1 PUSH2 0x17F0 JUMP JUMPDEST DUP1 ISZERO PUSH2 0xE80 JUMPI DUP1 PUSH1 0x1F LT PUSH2 0xE55 JUMPI PUSH2 0x100 DUP1 DUP4 SLOAD DIV MUL DUP4 MSTORE SWAP2 PUSH1 0x20 ADD SWAP2 PUSH2 0xE80 JUMP JUMPDEST DUP3 ADD SWAP2 SWAP1 PUSH1 0x0 MSTORE PUSH1 0x20 PUSH1 0x0 KECCAK256 SWAP1 JUMPDEST DUP2 SLOAD DUP2 MSTORE SWAP1 PUSH1 0x1 ADD SWAP1 PUSH1 0x20 ADD DUP1 DUP4 GT PUSH2 0xE63 JUMPI DUP3 SWAP1 SUB PUSH1 0x1F AND DUP3 ADD SWAP2 JUMPDEST POP POP POP POP POP SWAP1 DUP1 PUSH1 0x1 ADD DUP1 SLOAD PUSH2 0xE95 SWAP1 PUSH2 0x17F0 JUMP JUMPDEST DUP1 PUSH1 0x1F ADD PUSH1 0x20 DUP1 SWAP2 DIV MUL PUSH1 0x20 ADD PUSH1 0x40 MLOAD SWAP1 DUP2 ADD PUSH1 0x40 MSTORE DUP1 SWAP3 SWAP2 SWAP1 DUP2 DUP2 MSTORE PUSH1 0x20 ADD DUP3 DUP1 SLOAD PUSH2 0xEC1 SWAP1 PUSH2 0x17F0 JUMP JUMPDEST DUP1 ISZERO PUSH2 0xF0E JUMPI DUP1 PUSH1 0x1F LT PUSH2 0xEE3 JUMPI PUSH2 0x100 DUP1 DUP4 SLOAD DIV MUL DUP4 MSTORE SWAP2 PUSH1 0x20 ADD SWAP2 PUSH2 0xF0E JUMP JUMPDEST DUP3 ADD SWAP2 SWAP1 PUSH1 0x0 MSTORE PUSH1 0x20 PUSH1 0x0 KECCAK256 SWAP1 JUMPDEST DUP2 SLOAD DUP2 MSTORE SWAP1 PUSH1 0x1 ADD SWAP1 PUSH1 0x20 ADD DUP1 DUP4 GT PUSH2 0xEF1 JUMPI DUP3 SWAP1 SUB PUSH1 0x1F AND DUP3 ADD SWAP2 JUMPDEST POP POP POP POP POP SWAP1 DUP1 PUSH1 0x2 ADD SLOAD SWAP1 DUP1 PUSH1 0x3 ADD SLOAD SWAP1 POP DUP5 JUMP JUMPDEST DUP3 DUP1 SLOAD PUSH2 0xF30 SWAP1 PUSH2 0x17F0 JUMP JUMPDEST SWAP1 PUSH1 0x0 MSTORE PUSH1 0x20 PUSH1 0x0 KECCAK256 SWAP1 PUSH1 0x1F ADD PUSH1 0x20 SWAP1 DIV DUP2 ADD SWAP3 DUP3 PUSH2 0xF52 JUMPI PUSH1 0x0 DUP6 SSTORE PUSH2 0xF99 JUMP JUMPDEST DUP3 PUSH1 0x1F LT PUSH2 0xF6B JUMPI DUP1 MLOAD PUSH1 0xFF NOT AND DUP4 DUP1 ADD OR DUP6 SSTORE PUSH2 0xF99 JUMP JUMPDEST DUP3 DUP1 ADD PUSH1 0x1 ADD DUP6 SSTORE DUP3 ISZERO PUSH2 0xF99 JUMPI SWAP2 DUP3 ADD JUMPDEST DUP3 DUP2 GT ISZERO PUSH2 0xF98 JUMPI DUP3 MLOAD DUP3 SSTORE SWAP2 PUSH1 0x20 ADD SWAP2 SWAP1 PUSH1 0x1 ADD SWAP1 PUSH2 0xF7D JUMP JUMPDEST JUMPDEST POP SWAP1 POP PUSH2 0xFA6 SWAP2 SWAP1 PUSH2 0xFAA JUMP JUMPDEST POP SWAP1 JUMP JUMPDEST JUMPDEST DUP1 DUP3 GT ISZERO PUSH2 0xFC3 JUMPI PUSH1 0x0 DUP2 PUSH1 0x0 SWAP1 SSTORE POP PUSH1 0x1 ADD PUSH2 0xFAB JUMP JUMPDEST POP SWAP1 JUMP JUMPDEST PUSH1 0x0 PUSH2 0xFDA PUSH2 0xFD5 DUP5 PUSH2 0x161E JUMP JUMPDEST PUSH2 0x15F9 JUMP JUMPDEST SWAP1 POP DUP3 DUP2 MSTORE PUSH1 0x20 DUP2 ADD DUP5 DUP5 DUP5 ADD GT ISZERO PUSH2 0xFF2 JUMPI PUSH1 0x0 DUP1 REVERT JUMPDEST PUSH2 0xFFD DUP5 DUP3 DUP6 PUSH2 0x17AE JUMP JUMPDEST POP SWAP4 SWAP3 POP POP POP JUMP JUMPDEST PUSH1 0x0 DUP3 PUSH1 0x1F DUP4 ADD SLT PUSH2 0x1016 JUMPI PUSH1 0x0 DUP1 REVERT JUMPDEST DUP2 CALLDATALOAD PUSH2 0x1026 DUP5 DUP3 PUSH1 0x20 DUP7 ADD PUSH2 0xFC7 JUMP JUMPDEST SWAP2 POP POP SWAP3 SWAP2 POP POP JUMP JUMPDEST PUSH1 0x0 DUP2 CALLDATALOAD SWAP1 POP PUSH2 0x103E DUP2 PUSH2 0x1AAB JUMP JUMPDEST SWAP3 SWAP2 POP POP JUMP JUMPDEST PUSH1 0x0 DUP1 PUSH1 0x0 PUSH1 0x60 DUP5 DUP7 SUB SLT ISZERO PUSH2 0x1059 JUMPI PUSH1 0x0 DUP1 REVERT JUMPDEST PUSH1 0x0 DUP5 ADD CALLDATALOAD PUSH8 0xFFFFFFFFFFFFFFFF DUP2 GT ISZERO PUSH2 0x1073 JUMPI PUSH1 0x0 DUP1 REVERT JUMPDEST PUSH2 0x107F DUP7 DUP3 DUP8 ADD PUSH2 0x1005 JUMP JUMPDEST SWAP4 POP POP PUSH1 0x20 DUP5 ADD CALLDATALOAD PUSH8 0xFFFFFFFFFFFFFFFF DUP2 GT ISZERO PUSH2 0x109C JUMPI PUSH1 0x0 DUP1 REVERT JUMPDEST PUSH2 0x10A8 DUP7 DUP3 DUP8 ADD PUSH2 0x1005 JUMP JUMPDEST SWAP3 POP POP PUSH1 0x40 PUSH2 0x10B9 DUP7 DUP3 DUP8 ADD PUSH2 0x102F JUMP JUMPDEST SWAP2 POP POP SWAP3 POP SWAP3 POP SWAP3 JUMP JUMPDEST PUSH1 0x0 PUSH1 0x20 DUP3 DUP5 SUB SLT ISZERO PUSH2 0x10D5 JUMPI PUSH1 0x0 DUP1 REVERT JUMPDEST PUSH1 0x0 PUSH2 0x10E3 DUP5 DUP3 DUP6 ADD PUSH2 0x102F JUMP JUMPDEST SWAP2 POP POP SWAP3 SWAP2 POP POP JUMP JUMPDEST PUSH1 0x0 DUP1 PUSH1 0x40 DUP4 DUP6 SUB SLT ISZERO PUSH2 0x10FF JUMPI PUSH1 0x0 DUP1 REVERT JUMPDEST PUSH1 0x0 PUSH2 0x110D DUP6 DUP3 DUP7 ADD PUSH2 0x102F JUMP JUMPDEST SWAP3 POP POP PUSH1 0x20 PUSH2 0x111E DUP6 DUP3 DUP7 ADD PUSH2 0x102F JUMP JUMPDEST SWAP2 POP POP SWAP3 POP SWAP3 SWAP1 POP JUMP JUMPDEST PUSH1 0x0 PUSH2 0x1134 DUP4 DUP4 PUSH2 0x1158 JUMP JUMPDEST PUSH1 0x20 DUP4 ADD SWAP1 POP SWAP3 SWAP2 POP POP JUMP JUMPDEST PUSH1 0x0 PUSH2 0x114C DUP4 DUP4 PUSH2 0x13D7 JUMP JUMPDEST PUSH1 0x20 DUP4 ADD SWAP1 POP SWAP3 SWAP2 POP POP JUMP JUMPDEST PUSH2 0x1161 DUP2 PUSH2 0x1772 JUMP JUMPDEST DUP3 MSTORE POP POP JUMP JUMPDEST PUSH2 0x1170 DUP2 PUSH2 0x1772 JUMP JUMPDEST DUP3 MSTORE POP POP JUMP JUMPDEST PUSH1 0x0 PUSH2 0x1181 DUP3 PUSH2 0x166F JUMP JUMPDEST PUSH2 0x118B DUP2 DUP6 PUSH2 0x16AA JUMP JUMPDEST SWAP4 POP PUSH2 0x1196 DUP4 PUSH2 0x164F JUMP JUMPDEST DUP1 PUSH1 0x0 JUMPDEST DUP4 DUP2 LT ISZERO PUSH2 0x11C7 JUMPI DUP2 MLOAD PUSH2 0x11AE DUP9 DUP3 PUSH2 0x1128 JUMP JUMPDEST SWAP8 POP PUSH2 0x11B9 DUP4 PUSH2 0x1690 JUMP JUMPDEST SWAP3 POP POP PUSH1 0x1 DUP2 ADD SWAP1 POP PUSH2 0x119A JUMP JUMPDEST POP DUP6 SWAP4 POP POP POP POP SWAP3 SWAP2 POP POP JUMP JUMPDEST PUSH1 0x0 PUSH2 0x11DF DUP3 PUSH2 0x167A JUMP JUMPDEST PUSH2 0x11E9 DUP2 DUP6 PUSH2 0x16BB JUMP JUMPDEST SWAP4 POP PUSH2 0x11F4 DUP4 PUSH2 0x165F JUMP JUMPDEST DUP1 PUSH1 0x0 JUMPDEST DUP4 DUP2 LT ISZERO PUSH2 0x1225 JUMPI DUP2 MLOAD PUSH2 0x120C DUP9 DUP3 PUSH2 0x1140 JUMP JUMPDEST SWAP8 POP PUSH2 0x1217 DUP4 PUSH2 0x169D JUMP JUMPDEST SWAP3 POP POP PUSH1 0x1 DUP2 ADD SWAP1 POP PUSH2 0x11F8 JUMP JUMPDEST POP DUP6 SWAP4 POP POP POP POP SWAP3 SWAP2 POP POP JUMP JUMPDEST PUSH1 0x0 PUSH2 0x123D DUP3 PUSH2 0x1685 JUMP JUMPDEST PUSH2 0x1247 DUP2 DUP6 PUSH2 0x16CC JUMP JUMPDEST SWAP4 POP PUSH2 0x1257 DUP2 DUP6 PUSH1 0x20 DUP7 ADD PUSH2 0x17BD JUMP JUMPDEST PUSH2 0x1260 DUP2 PUSH2 0x1929 JUMP JUMPDEST DUP5 ADD SWAP2 POP POP SWAP3 SWAP2 POP POP JUMP JUMPDEST PUSH1 0x0 PUSH2 0x1276 DUP3 PUSH2 0x1685 JUMP JUMPDEST PUSH2 0x1280 DUP2 DUP6 PUSH2 0x16DD JUMP JUMPDEST SWAP4 POP PUSH2 0x1290 DUP2 DUP6 PUSH1 0x20 DUP7 ADD PUSH2 0x17BD JUMP JUMPDEST DUP1 DUP5 ADD SWAP2 POP POP SWAP3 SWAP2 POP POP JUMP JUMPDEST PUSH1 0x0 PUSH2 0x12A9 PUSH1 0x11 DUP4 PUSH2 0x16CC JUMP JUMPDEST SWAP2 POP PUSH2 0x12B4 DUP3 PUSH2 0x193A JUMP JUMPDEST PUSH1 0x20 DUP3 ADD SWAP1 POP SWAP2 SWAP1 POP JUMP JUMPDEST PUSH1 0x0 PUSH2 0x12CC PUSH1 0x19 DUP4 PUSH2 0x16CC JUMP JUMPDEST SWAP2 POP PUSH2 0x12D7 DUP3 PUSH2 0x1963 JUMP JUMPDEST PUSH1 0x20 DUP3 ADD SWAP1 POP SWAP2 SWAP1 POP JUMP JUMPDEST PUSH1 0x0 PUSH2 0x12EF PUSH1 0x17 DUP4 PUSH2 0x16CC JUMP JUMPDEST SWAP2 POP PUSH2 0x12FA DUP3 PUSH2 0x198C JUMP JUMPDEST PUSH1 0x20 DUP3 ADD SWAP1 POP SWAP2 SWAP1 POP JUMP JUMPDEST PUSH1 0x0 PUSH2 0x1312 PUSH1 0xD DUP4 PUSH2 0x16CC JUMP JUMPDEST SWAP2 POP PUSH2 0x131D DUP3 PUSH2 0x19B5 JUMP JUMPDEST PUSH1 0x20 DUP3 ADD SWAP1 POP SWAP2 SWAP1 POP JUMP JUMPDEST PUSH1 0x0 PUSH2 0x1335 PUSH1 0x1A DUP4 PUSH2 0x16CC JUMP JUMPDEST SWAP2 POP PUSH2 0x1340 DUP3 PUSH2 0x19DE JUMP JUMPDEST PUSH1 0x20 DUP3 ADD SWAP1 POP SWAP2 SWAP1 POP JUMP JUMPDEST PUSH1 0x0 PUSH2 0x1358 PUSH1 0x17 DUP4 PUSH2 0x16CC JUMP JUMPDEST SWAP2 POP PUSH2 0x1363 DUP3 PUSH2 0x1A07 JUMP JUMPDEST PUSH1 0x20 DUP3 ADD SWAP1 POP SWAP2 SWAP1 POP JUMP JUMPDEST PUSH1 0x0 PUSH2 0x137B PUSH1 0x13 DUP4 PUSH2 0x16CC JUMP JUMPDEST SWAP2 POP PUSH2 0x1386 DUP3 PUSH2 0x1A30 JUMP JUMPDEST PUSH1 0x20 DUP3 ADD SWAP1 POP SWAP2 SWAP1 POP JUMP JUMPDEST PUSH1 0x0 PUSH2 0x139E PUSH1 0x18 DUP4 PUSH2 0x16CC JUMP JUMPDEST SWAP2 POP PUSH2 0x13A9 DUP3 PUSH2 0x1A59 JUMP JUMPDEST PUSH1 0x20 DUP3 ADD SWAP1 POP SWAP2 SWAP1 POP JUMP JUMPDEST PUSH1 0x0 PUSH2 0x13C1 PUSH1 0x14 DUP4 PUSH2 0x16CC JUMP JUMPDEST SWAP2 POP PUSH2 0x13CC DUP3 PUSH2 0x1A82 JUMP JUMPDEST PUSH1 0x20 DUP3 ADD SWAP1 POP SWAP2 SWAP1 POP JUMP JUMPDEST PUSH2 0x13E0 DUP2 PUSH2 0x17A4 JUMP JUMPDEST DUP3 MSTORE POP POP JUMP JUMPDEST PUSH2 0x13EF DUP2 PUSH2 0x17A4 JUMP JUMPDEST DUP3 MSTORE POP POP JUMP JUMPDEST PUSH1 0x0 PUSH2 0x1401 DUP3 DUP5 PUSH2 0x126B JUMP JUMPDEST SWAP2 POP DUP2 SWAP1 POP SWAP3 SWAP2 POP POP JUMP JUMPDEST PUSH1 0x0 PUSH1 0x20 DUP3 ADD SWAP1 POP PUSH2 0x1421 PUSH1 0x0 DUP4 ADD DUP5 PUSH2 0x1167 JUMP JUMPDEST SWAP3 SWAP2 POP POP JUMP JUMPDEST PUSH1 0x0 PUSH1 0x20 DUP3 ADD SWAP1 POP DUP2 DUP2 SUB PUSH1 0x0 DUP4 ADD MSTORE PUSH2 0x1441 DUP2 DUP5 PUSH2 0x1176 JUMP JUMPDEST SWAP1 POP SWAP3 SWAP2 POP POP JUMP JUMPDEST PUSH1 0x0 PUSH1 0x20 DUP3 ADD SWAP1 POP DUP2 DUP2 SUB PUSH1 0x0 DUP4 ADD MSTORE PUSH2 0x1463 DUP2 DUP5 PUSH2 0x11D4 JUMP JUMPDEST SWAP1 POP SWAP3 SWAP2 POP POP JUMP JUMPDEST PUSH1 0x0 PUSH1 0x80 DUP3 ADD SWAP1 POP DUP2 DUP2 SUB PUSH1 0x0 DUP4 ADD MSTORE PUSH2 0x1485 DUP2 DUP8 PUSH2 0x1232 JUMP JUMPDEST SWAP1 POP DUP2 DUP2 SUB PUSH1 0x20 DUP4 ADD MSTORE PUSH2 0x1499 DUP2 DUP7 PUSH2 0x1232 JUMP JUMPDEST SWAP1 POP PUSH2 0x14A8 PUSH1 0x40 DUP4 ADD DUP6 PUSH2 0x13E6 JUMP JUMPDEST PUSH2 0x14B5 PUSH1 0x60 DUP4 ADD DUP5 PUSH2 0x13E6 JUMP JUMPDEST SWAP6 SWAP5 POP POP POP POP POP JUMP JUMPDEST PUSH1 0x0 PUSH1 0x20 DUP3 ADD SWAP1 POP DUP2 DUP2 SUB PUSH1 0x0 DUP4 ADD MSTORE PUSH2 0x14D7 DUP2 PUSH2 0x129C JUMP JUMPDEST SWAP1 POP SWAP2 SWAP1 POP JUMP JUMPDEST PUSH1 0x0 PUSH1 0x20 DUP3 ADD SWAP1 POP DUP2 DUP2 SUB PUSH1 0x0 DUP4 ADD MSTORE PUSH2 0x14F7 DUP2 PUSH2 0x12BF JUMP JUMPDEST SWAP1 POP SWAP2 SWAP1 POP JUMP JUMPDEST PUSH1 0x0 PUSH1 0x20 DUP3 ADD SWAP1 POP DUP2 DUP2 SUB PUSH1 0x0 DUP4 ADD MSTORE PUSH2 0x1517 DUP2 PUSH2 0x12E2 JUMP JUMPDEST SWAP1 POP SWAP2 SWAP1 POP JUMP JUMPDEST PUSH1 0x0 PUSH1 0x20 DUP3 ADD SWAP1 POP DUP2 DUP2 SUB PUSH1 0x0 DUP4 ADD MSTORE PUSH2 0x1537 DUP2 PUSH2 0x1305 JUMP JUMPDEST SWAP1 POP SWAP2 SWAP1 POP JUMP JUMPDEST PUSH1 0x0 PUSH1 0x20 DUP3 ADD SWAP1 POP DUP2 DUP2 SUB PUSH1 0x0 DUP4 ADD MSTORE PUSH2 0x1557 DUP2 PUSH2 0x1328 JUMP JUMPDEST SWAP1 POP SWAP2 SWAP1 POP JUMP JUMPDEST PUSH1 0x0 PUSH1 0x20 DUP3 ADD SWAP1 POP DUP2 DUP2 SUB PUSH1 0x0 DUP4 ADD MSTORE PUSH2 0x1577 DUP2 PUSH2 0x134B JUMP JUMPDEST SWAP1 POP SWAP2 SWAP1 POP JUMP JUMPDEST PUSH1 0x0 PUSH1 0x20 DUP3 ADD SWAP1 POP DUP2 DUP2 SUB PUSH1 0x0 DUP4 ADD MSTORE PUSH2 0x1597 DUP2 PUSH2 0x136E JUMP JUMPDEST SWAP1 POP SWAP2 SWAP1 POP JUMP JUMPDEST PUSH1 0x0 PUSH1 0x20 DUP3 ADD SWAP1 POP DUP2 DUP2 SUB PUSH1 0x0 DUP4 ADD MSTORE PUSH2 0x15B7 DUP2 PUSH2 0x1391 JUMP JUMPDEST SWAP1 POP SWAP2 SWAP1 POP JUMP JUMPDEST PUSH1 0x0 PUSH1 0x20 DUP3 ADD SWAP1 POP DUP2 DUP2 SUB PUSH1 0x0 DUP4 ADD MSTORE PUSH2 0x15D7 DUP2 PUSH2 0x13B4 JUMP JUMPDEST SWAP1 POP SWAP2 SWAP1 POP JUMP JUMPDEST PUSH1 0x0 PUSH1 0x20 DUP3 ADD SWAP1 POP PUSH2 0x15F3 PUSH1 0x0 DUP4 ADD DUP5 PUSH2 0x13E6 JUMP JUMPDEST SWAP3 SWAP2 POP POP JUMP JUMPDEST PUSH1 0x0 PUSH2 0x1603 PUSH2 0x1614 JUMP JUMPDEST SWAP1 POP PUSH2 0x160F DUP3 DUP3 PUSH2 0x1822 JUMP JUMPDEST SWAP2 SWAP1 POP JUMP JUMPDEST PUSH1 0x0 PUSH1 0x40 MLOAD SWAP1 POP SWAP1 JUMP JUMPDEST PUSH1 0x0 PUSH8 0xFFFFFFFFFFFFFFFF DUP3 GT ISZERO PUSH2 0x1639 JUMPI PUSH2 0x1638 PUSH2 0x18FA JUMP JUMPDEST JUMPDEST PUSH2 0x1642 DUP3 PUSH2 0x1929 JUMP JUMPDEST SWAP1 POP PUSH1 0x20 DUP2 ADD SWAP1 POP SWAP2 SWAP1 POP JUMP JUMPDEST PUSH1 0x0 DUP2 SWAP1 POP PUSH1 0x20 DUP3 ADD SWAP1 POP SWAP2 SWAP1 POP JUMP JUMPDEST PUSH1 0x0 DUP2 SWAP1 POP PUSH1 0x20 DUP3 ADD SWAP1 POP SWAP2 SWAP1 POP JUMP JUMPDEST PUSH1 0x0 DUP2 MLOAD SWAP1 POP SWAP2 SWAP1 POP JUMP JUMPDEST PUSH1 0x0 DUP2 MLOAD SWAP1 POP SWAP2 SWAP1 POP JUMP JUMPDEST PUSH1 0x0 DUP2 MLOAD SWAP1 POP SWAP2 SWAP1 POP JUMP JUMPDEST PUSH1 0x0 PUSH1 0x20 DUP3 ADD SWAP1 POP SWAP2 SWAP1 POP JUMP JUMPDEST PUSH1 0x0 PUSH1 0x20 DUP3 ADD SWAP1 POP SWAP2 SWAP1 POP JUMP JUMPDEST PUSH1 0x0 DUP3 DUP3 MSTORE PUSH1 0x20 DUP3 ADD SWAP1 POP SWAP3 SWAP2 POP POP JUMP JUMPDEST PUSH1 0x0 DUP3 DUP3 MSTORE PUSH1 0x20 DUP3 ADD SWAP1 POP SWAP3 SWAP2 POP POP JUMP JUMPDEST PUSH1 0x0 DUP3 DUP3 MSTORE PUSH1 0x20 DUP3 ADD SWAP1 POP SWAP3 SWAP2 POP POP JUMP JUMPDEST PUSH1 0x0 DUP2 SWAP1 POP SWAP3 SWAP2 POP POP JUMP JUMPDEST PUSH1 0x0 PUSH2 0x16F3 DUP3 PUSH2 0x17A4 JUMP JUMPDEST SWAP2 POP PUSH2 0x16FE DUP4 PUSH2 0x17A4 JUMP JUMPDEST SWAP3 POP DUP3 PUSH32 0xFFFFFFFFFFFFFFFFFFFFFFFFFFFFFFFFFFFFFFFFFFFFFFFFFFFFFFFFFFFFFFFF SUB DUP3 GT ISZERO PUSH2 0x1733 JUMPI PUSH2 0x1732 PUSH2 0x189C JUMP JUMPDEST JUMPDEST DUP3 DUP3 ADD SWAP1 POP SWAP3 SWAP2 POP POP JUMP JUMPDEST PUSH1 0x0 PUSH2 0x1749 DUP3 PUSH2 0x17A4 JUMP JUMPDEST SWAP2 POP PUSH2 0x1754 DUP4 PUSH2 0x17A4 JUMP JUMPDEST SWAP3 POP DUP3 DUP3 LT ISZERO PUSH2 0x1767 JUMPI PUSH2 0x1766 PUSH2 0x189C JUMP JUMPDEST JUMPDEST DUP3 DUP3 SUB SWAP1 POP SWAP3 SWAP2 POP POP JUMP JUMPDEST PUSH1 0x0 PUSH2 0x177D DUP3 PUSH2 0x1784 JUMP JUMPDEST SWAP1 POP SWAP2 SWAP1 POP JUMP JUMPDEST PUSH1 0x0 PUSH20 0xFFFFFFFFFFFFFFFFFFFFFFFFFFFFFFFFFFFFFFFF DUP3 AND SWAP1 POP SWAP2 SWAP1 POP JUMP JUMPDEST PUSH1 0x0 DUP2 SWAP1 POP SWAP2 SWAP1 POP JUMP JUMPDEST DUP3 DUP2 DUP4 CALLDATACOPY PUSH1 0x0 DUP4 DUP4 ADD MSTORE POP POP POP JUMP JUMPDEST PUSH1 0x0 JUMPDEST DUP4 DUP2 LT ISZERO PUSH2 0x17DB JUMPI DUP1 DUP3 ADD MLOAD DUP2 DUP5 ADD MSTORE PUSH1 0x20 DUP2 ADD SWAP1 POP PUSH2 0x17C0 JUMP JUMPDEST DUP4 DUP2 GT ISZERO PUSH2 0x17EA JUMPI PUSH1 0x0 DUP5 DUP5 ADD MSTORE JUMPDEST POP POP POP POP JUMP JUMPDEST PUSH1 0x0 PUSH1 0x2 DUP3 DIV SWAP1 POP PUSH1 0x1 DUP3 AND DUP1 PUSH2 0x1808 JUMPI PUSH1 0x7F DUP3 AND SWAP2 POP JUMPDEST PUSH1 0x20 DUP3 LT DUP2 EQ ISZERO PUSH2 0x181C JUMPI PUSH2 0x181B PUSH2 0x18CB JUMP JUMPDEST JUMPDEST POP SWAP2 SWAP1 POP JUMP JUMPDEST PUSH2 0x182B DUP3 PUSH2 0x1929 JUMP JUMPDEST DUP2 ADD DUP2 DUP2 LT PUSH8 0xFFFFFFFFFFFFFFFF DUP3 GT OR ISZERO PUSH2 0x184A JUMPI PUSH2 0x1849 PUSH2 0x18FA JUMP JUMPDEST JUMPDEST DUP1 PUSH1 0x40 MSTORE POP POP POP JUMP JUMPDEST PUSH1 0x0 PUSH2 0x185E DUP3 PUSH2 0x17A4 JUMP JUMPDEST SWAP2 POP PUSH32 0xFFFFFFFFFFFFFFFFFFFFFFFFFFFFFFFFFFFFFFFFFFFFFFFFFFFFFFFFFFFFFFFF DUP3 EQ ISZERO PUSH2 0x1891 JUMPI PUSH2 0x1890 PUSH2 0x189C JUMP JUMPDEST JUMPDEST PUSH1 0x1 DUP3 ADD SWAP1 POP SWAP2 SWAP1 POP JUMP JUMPDEST PUSH32 0x4E487B7100000000000000000000000000000000000000000000000000000000 PUSH1 0x0 MSTORE PUSH1 0x11 PUSH1 0x4 MSTORE PUSH1 0x24 PUSH1 0x0 REVERT JUMPDEST PUSH32 0x4E487B7100000000000000000000000000000000000000000000000000000000 PUSH1 0x0 MSTORE PUSH1 0x22 PUSH1 0x4 MSTORE PUSH1 0x24 PUSH1 0x0 REVERT JUMPDEST PUSH32 0x4E487B7100000000000000000000000000000000000000000000000000000000 PUSH1 0x0 MSTORE PUSH1 0x41 PUSH1 0x4 MSTORE PUSH1 0x24 PUSH1 0x0 REVERT JUMPDEST PUSH1 0x0 PUSH1 0x1F NOT PUSH1 0x1F DUP4 ADD AND SWAP1 POP SWAP2 SWAP1 POP JUMP JUMPDEST PUSH32 0x4E6F20636F707920746F2072657475726E000000000000000000000000000000 PUSH1 0x0 DUP3 ADD MSTORE POP JUMP JUMPDEST PUSH32 0x5573657220616C72656164792068617320636F7079206F757400000000000000 PUSH1 0x0 DUP3 ADD MSTORE POP JUMP JUMPDEST PUSH32 0x4E6F20626F6F6B73206C65667420746F20626F72726F77000000000000000000 PUSH1 0x0 DUP3 ADD MSTORE POP JUMP JUMPDEST PUSH32 0x4E6F7420746865206F776E657200000000000000000000000000000000000000 PUSH1 0x0 DUP3 ADD MSTORE POP JUMP JUMPDEST PUSH32 0x4D75737420686176652061746C65617374206F6E6520636F7079000000000000 PUSH1 0x0 DUP3 ADD MSTORE POP JUMP JUMPDEST PUSH32 0x426F6F6B20616C726561647920696E206C696272617279000000000000000000 PUSH1 0x0 DUP3 ADD MSTORE POP JUMP JUMPDEST PUSH32 0x426F6F6B20646F6573206E6F7420657869737400000000000000000000000000 PUSH1 0x0 DUP3 ADD MSTORE POP JUMP JUMPDEST PUSH32 0x426F6F6B206E616D652063616E277420626520656D7074790000000000000000 PUSH1 0x0 DUP3 ADD MSTORE POP JUMP JUMPDEST PUSH32 0x43616E7420616464207A65726F20436F70696573000000000000000000000000 PUSH1 0x0 DUP3 ADD MSTORE POP JUMP JUMPDEST PUSH2 0x1AB4 DUP2 PUSH2 0x17A4 JUMP JUMPDEST DUP2 EQ PUSH2 0x1ABF JUMPI PUSH1 0x0 DUP1 REVERT JUMPDEST POP JUMP INVALID LOG2 PUSH5 0x6970667358 0x22 SLT KECCAK256 0xE3 ISZERO 0xB7 0xE1 0xDE PUSH32 0x70B269702669B9979720059F2355C8B2D388ED78D51DC46D541264736F6C6343 STOP ADDMOD DIV STOP CALLER "
        },
        "methodIdentifiers": {
          "Ledger(uint256)": "fb011944",
          "addCopies(uint256,uint256)": "c0d01989",
          "addNewBook(string,string,uint256)": "bc4d1141",
          "booksAvaliable()": "18dfba68",
          "borrowBook(uint256)": "7e490a9e",
          "deweyDecimalId()": "77d970ba",
          "libraryTotalHistory()": "82176436",
          "owner()": "8da5cb5b",
          "returnBook(uint256)": "ca5140c9",
          "whoHasTheBookIWant(uint256)": "7705eff3"
        }
      }
    }
  }
}